:100000000C94F9020C9440030C9440030C944003AC
:100010000C9440030C9440030C9440030C94400354
:100020000C9440030C9440030C948F2C0C94612D81
:100030000C9492240C9440030C9440030C944003C1
:100040000C9440030C9440030C9440030C94400324
:100050000C9440030C9407250C9440030C9440032B
:100060000C9440030C9440030C9440030C94400304
:100070000C9440030C9440030C9440030C944003F4
:100080000C9440030C9440030C9440030C944003E4
:100090000C9440030C9440030C9440030C944003D4
:1000A0000C9440030C9440030C944003891192116A
:1000B00097119C11A111A611AB11B011B511BA1174
:1000C000BF11C411C911CE11D311D811DD11E21124
:1000D000E711EC11F111F611FB110012361539156B
:1000E0003E1545154A154F15541559155E156315DE
:1000F00068156D156F1571157315791579157915C5
:1001000079157915A11AA11AD31AD31A201B3E1BEF
:10011000521C521C491BE21BF31BF31BF21CF21C6A
:10012000041D041DFB1C041D041D041DF21CF21CF7
:10013000001D041D041D001DCE2DF52DED2EF52DE9
:10014000ED2E412E642EED2EBB2ECA2E35001E0044
:100150001F0020002100220023002400250026008B
:1001600027002D002E002A002B0014001A00080082
:10017000150017001C0018000C00120013002F00BF
:1001800030003100294204001600070009000A006F
:100190000B000D000E000F0033003400000028009B
:1001A000E1001D001B0006001900050011001000F1
:1001B000360037003872520000004C00E000E300C7
:1001C000E200000000002C0000000000E6000351E7
:1001D0005000510000004F0001000100010001002B
:1001E0000100010001000100010001000100010007
:1001F00001000100010014001A00090013000A00A8
:100200000D000F0018001C0033002F00300001000B
:100210000100040015001600170007000B00110074
:1002200008000C00120034000000010001001D0055
:100230001B000100190005000E00100036003700F9
:1002400001000100000001000100010001000000A8
:100250000000010000000000010001000100010099
:10026000000001000253FD00FE00FF00000000003E
:10027000000000000000000000000000000001007D
:10028000000000004B000000B90000007C007A0074
:10029000000000007D0000000000000001004A0096
:1002A0004E004D007E0000005000510052004F00F3
:1002B000000000000000010001000000000000003C
:1002C000000000000000000000000000F400F0004A
:1002D0000000F50001000100010000000000F40032
:1002E0000000000001000100F200F1000000F30036
:1002F00029003A003B003C003D003E003F0040002A
:10030000410042004300440045002A000000005222
:100310000000DE5C005C00000000000049000000FE
:100320004600470048004C003900C85CC75CCC5C04
:10033000CB5CC65CC55CCA5CC95CC25CC45CC35CAB
:100340000000000001000000000001520000BF5C3E
:10035000145CA800AA00A9000000AE000000000084
:10036000010001000100000000000000000000008A
:1003700001000100AC00AD000000AB000001010174
:100380000101010101010202020202020202020352
:100390000303030303030304040404040404050522
:1003A00005050506060606060707070707080808E5
:1003B00008090909090A0A0A0B0B0B0C0C0C0D0D94
:1003C0000D0E0E0E0F0F0F1010111111121213132C
:1003D0001414151516161717181819191A1A1B1BA5
:1003E0001C1D1D1E1E1F2020212222232424252601
:1003F00026272829292A2B2C2D2D2E2F3031323239
:10040000333435363738393A3B3C3D3E3F40414244
:10041000434445464748494A4C4D4E4F505153542A
:10042000555658595A5B5D5E5F61626465666869DE
:100430006B6C6D6F7072737577787A7B7D7E80825E
:10044000838587888A8C8E8F91939596989A9C9EA7
:10045000A0A2A3A5A7A9ABADAFB1B3B5B7BABCBEB7
:10046000C0C2C4C6C9CBCDCFD1D4D6D8DBDDDFE284
:10047000E4E7E9EBEEF0F3F5F8FAFDFF04033000F2
:100480000000100344005A003600300052004700BC
:10049000420000000E0344005A005400450043008F
:1004A000480000000403090409023B00020100A007
:1004B000FA090400000103010100092111010001F2
:1004C0002240000705810308000A09040100010316
:1004D00000000009211101000122BC000705820370
:1004E00020000A12011001000000085A44211102E4
:1004F000000102030105010902A10185020901A110
:1005000000050919012905150025019505750181C9
:100510000295017503810105010930093115812515
:100520007F95027508810609381581257F9501752B
:10053000088106050C0A38021581257F950175088A
:100540008106C0C005010980A101850319012AB7F0
:1005500000150126B700950175108100C0050C0932
:1005600001A101850419012AA002150126A0029506
:100570000175108100C005010906A1018505050767
:1005800019E029E715002501950875018102050785
:10059000190029EF1500250195F075018102050864
:1005A00019012905950575019102950175039101C0
:1005B000C005010906A101050719E029E715002575
:1005C00001950875018102950175088101050719DA
:1005D0000029FF150026FF00950675088100050813
:1005E0001901290595057501910295017503910180
:1005F000C00011241FBECFEFDAE0DEBFCDBF04B6CE
:1006000003FE27C08091190790911A07A0911B073C
:10061000B0911C078730904BA740B04BD1F410929B
:10062000190710921A0710921B0710921C0714BE8C
:1006300084B7877F84BF0FB6F894A8958091600037
:10064000886180936000109260000FBEE0E0F8E3E4
:10065000099513E0A0E0B1E0E6EDF0E602C00590F8
:100660000D92A63AB107D9F727E0A6EAB3E001C098
:100670001D92A931B207E1F70E94BE290C9469309E
:100680000C94000081E00E9484120C94582480E0B5
:100690000E9484120C943E240E94551881FF07C0CA
:1006A0002FEF4FEF6FEF88E290E00C94E00A08958F
:1006B00081E0089581E008950C945A0308950C9404
:1006C0005E031F93CF93DF9300D000D01F92CDB76E
:1006D000DEB749835A836B833091660489819A819E
:1006E000311114C0662359F0222349F00E94AE2133
:1006F000182F682F89819A810E94572103C00E9478
:100700008221182F69817A81812F04C00E94AE2135
:1007100069817A810F900F900F900F900F90DF9169
:10072000CF911F910C942104FC01262F408151810F
:100730006281738184810C946103CF93DF93EC0118
:1007400060E00E949403BE01DF91CF910C945F039F
:100750000E9453250E94D922811102C00E94792350
:100760000E9456120C9422060E94F0100C941E0651
:1007700008950C94B80381E008950C94BB03CF93C3
:10078000C82F0E94B9038C2F0E94BD03CF910895FA
:1007900008950E94E01C0E94C8032FEF84E39CE0B0
:1007A000215080409040E1F700C000000C942D25BE
:1007B0000F931F93CF93DF93EC0161E00E949403AA
:1007C0008C01BE010E944D108823A9F1BE01C80111
:1007D0000E945C03882379F1BE01C8010E94F315D1
:1007E000882349F1BE01C8010E943416882319F1FB
:1007F000BE01C8010E945F178823E9F0BE01C8014D
:100800000E941F158823B9F08A81882369F0011599
:100810008CE5180731F00E3D1C4531F40E94792318
:100820000AC00E94C90307C0CE01DF91CF911F917A
:100830000F910C94580380E0DF91CF911F910F919D
:10084000089526E4829FC0011124FC012EE0729FCE
:10085000E00DF11D1124E60FF11DEE0FFF1FE45B0B
:10086000FE4F859194910895CF93DF930E942104C8
:100870000E943605EC01811521E5920708F043C07E
:10088000811540E5940708F08AC0883E910520F55F
:10089000803E910508F0E6C0883A910570F4853AEB
:1008A000910508F074C08130910509F4DBC008F4AB
:1008B000D7C0049708F0D6C0D3C08F3B910508F08D
:1008C000CFC0C85AD0E0CC0FDD1FCF5DDC4F099000
:1008D000D881C02DD464C6C0C11580E2D80758F4B1
:1008E000C11521E0D20708F0BDC0C03FD10508F412
:1008F000B7C0D065B7C0C11540E4D40708F4B0C094
:10090000DF70D06AAFC0C11585E5D807A0F4C11566
:1009100024E5D20708F08AC0C11543E5D40708F0E2
:100920006FC0C11582E5D80708F054C0DC2FCC2772
:10093000C16FD06A97C0C11529E5D207A0F4C115CF
:1009400048E5D40708F077C0C11586E5D80708F058
:1009500087C08C2F0E94CA058F71C82FD0E0DC2F72
:10096000CC27D0627FC0C1152AE5D20708F468C041
:10097000CE0190568115904208F072C08D2F8F7174
:100980000E94CA05DD27D0628F71D82B6BC0C55A73
:10099000D0E0C15BDC4FC881D0E0D06463C074E0BC
:1009A000969587957A95E1F783709C2F937021E057
:1009B00030E002C0220F331F9A95E2F73C68382BD3
:1009C000CF70C695C69580E2C89FE0011124C22B66
:1009D000D32B48C0CE018370992721E030E002C0BC
:1009E000220F331F8A95E2F78C2F8695869540E279
:1009F000849FC0011124E901C82BD92BDC6832C0C7
:100A0000CE018370992721E030E002C0220F331F0E
:100A10008A95E2F78C2F8695869540E2849FC001E7
:100A20001124E901C82BD92BDA681CC0DC2FCC2794
:100A3000C46FD06A17C0DC2FCC27C06FD06A12C039
:100A40008C2F8F700E94CA0594E0D695C7959A9511
:100A5000E1F7CF70D0E0DC2FCC27D069C82B02C0E3
:100A6000C0E0D0E0CE01DF91CF91089582389105AA
:100A700069F1B0F48133910509F46DC048F489320D
:100A8000910509F463C08A32910509F469C008959B
:100A90008533910509F455C089339105B9F008955E
:100AA000833E910569F138F4803E9105B1F0823EB4
:100AB000910509F10895863E9105A9F1873E9105BA
:100AC000B9F1843E910509F064C023C020910A0762
:100AD00020FD4FC021FD4DC0089580910A0780FD83
:100AE00044C080910B0780FF44C080910A0784FDB9
:100AF00042C083EE4DC080910A0782FF38C0F5CF17
:100B000080910A0782FD33C080910B0780FD31C0C0
:100B1000ECCF80910B0781FF32C080910A0784FDE2
:100B20002AC087EE35C080910A0783FF26C0F5CF23
:100B300080910A0783FD21C080910B0781FD1FC0B2
:100B4000ECCF80910A0785FD1CC01DC080910A076B
:100B500085FD19C016C080910A0786FD16C017C012
:100B600080910A0786FD13C010C089E311C082EE90
:100B70000FC080EE0DC080E00BC086EE09C084EE91
:100B800007C089E205C085E303C08AE201C081E3B2
:100B900090E0089590910A0792FF0DC0282F2871C8
:100BA000283019F4877F846006C0282F24712430F0
:100BB00011F48B7F886093FF0DC0282F2871283196
:100BC00019F4877E846106C0282F2471243111F422
:100BD0008B7E886120910B0720FF0DC0382F387164
:100BE000383019F4877F816006C0382F3171313079
:100BF00011F48E7F886021FF0DC0282F28712831C5
:100C000019F4877E816106C0282F2171213111F4EA
:100C10008E7E886194FD877E0895E82FF0E0EE0FC8
:100C2000FF1FEA5CFA4F808191810895089580EA60
:100C30008A95F1F7089508950C941B060C941C06F0
:100C40000C941B060C942006CF93DF93A0E6B3E030
:100C500045E653E061E070E08D91E82FE295EF709A
:100C6000F0E021A18F70EB0102C0CC0FDD1F8A954F
:100C7000E2F7CE019C2F9095922391A392A1892B0C
:100C800082A34A175B0741F7A2E5B3E040E653E0D1
:100C900061E070E08D91E82FE295EF70F0E021A126
:100CA0008F70EB0102C0CC0FDD1F8A95E2F7CE01F9
:100CB0009C2F9095922391A392A1892B82A34A17EE
:100CC0005B0741F7ECE2F5E0A6E3B5E086E395E0EB
:100CD000119211921D921D928E179F07C9F785E000
:100CE0000E940307DF91CF910C94A8036F927F922B
:100CF0008F929F92AF92BF92CF92DF92EF92FF922C
:100D00000F931F93CF93DF9380E6C82E83E0D82EF6
:100D10000CE215E096E3A92E95E0B92E712C8824FB
:100D20008394912CF60181916F01C82FC295CF70E9
:100D3000D0E099A18F70740101C0EE0C8A95EAF79A
:100D4000892F8E2989A38AA16E2C609486218AA37B
:100D50000E941706E2E5F3E040E050E020E030E0DA
:100D60006191A62FA295AF70B0E090968C9190E023
:100D70006F7002C0959587956A95E2F780FD08C06F
:100D8000C401042E02C0880F991F0A94E2F702C022
:100D900080E090E0282B392B4F5F5F4F4E3051059C
:100DA000F9F689A1682269A28AA1E82AEAA2F801D3
:100DB000808191812817390721F03183208381E0D8
:100DC00001C080E0782A0E5F1F4FA016B10609F01F
:100DD000A9CF272D45E066E375E08CE295E00E94FF
:100DE00004070E94B403872DDF91CF911F910F91CB
:100DF000FF90EF90DF90CF90BF90AF909F908F903B
:100E00007F906F9008950895FF920F931F93CF9353
:100E1000DF93F82E092F162FD72FC42F222349F046
:100E200081E08093A8030E94C4249093A703809339
:100E3000A6038091A8038823D9F08091A6039091FE
:100E4000A7030E94DC24049798F0EF2DF02FA12F28
:100E5000BD2F80E090E04C2F50E08417950734F4CC
:100E6000219131912D933D930196F7CF1092A803D4
:100E7000DF91CF911F910F91FF900895EF92FF9214
:100E80000F931F93CF93DF93F62E472FE82FF0E0B9
:100E9000711106C0E458FC4F6491762F862F72C002
:100EA000272F30E0E458FC4FE4910E2F10E056E07D
:100EB000659FC0011124CFEFD0E0BE010E94212F19
:100EC0005BEA5603C001579F900D11248F0D911DB1
:100ED0008F0D911D982F990F890F7E01E21AF30A49
:100EE000E09ED001E19EB00DF09EB00D1124489F10
:100EF000A0011124452F55277E01E41AF50AE09E32
:100F0000A001E19E500DF09E500D11247E01E81AC3
:100F1000F108E29EC001E39E900DF29E900D112417
:100F2000892F9927C81BD90BC09FC001C19F900D65
:100F3000D09F900D11246230710591F048F4611535
:100F40007105E1F061307105A9F48B2F752F19C07F
:100F50006430710561F038F06630710579F00AC0CF
:100F6000892F7B2F0EC08E2F7B2FE52F0AC08E2F4F
:100F7000792F02C0852F7E2FEB2F03C08B2F7E2F62
:100F8000E92F6E2FDF91CF911F910F91FF90EF907E
:100F9000089520E030E0869F212D969F200D311D81
:100FA0001124C9010895BC018230910508F4089507
:100FB000613E8EE1780748F49B0195E036952795D0
:100FC0009A95E1F748E0420F01C04FEF91E0242FDE
:100FD00030E0290F311D35952795229FF001239F81
:100FE000F00DF00D11246E177F0718F44FEF420F2C
:100FF00004C02F3F39F091E0920F491740F78FEF6F
:10100000890F08958FEF0895482F982F46FD9095EA
:10101000E92FEF739F7046FD9F5FE295EF70EE0F33
:10102000F0E0EB59FC4F2181299F802D212D1124C7
:1010300082958F702295207F822B3081982F930F7D
:10104000892F47FD819580580895E42FF0E0EE0F39
:10105000FF1FE65BFE4F408134EE439F412D11247C
:10106000E82FF0E050E0445E5F4FDA01A21BB109C7
:101070009D01B7FF03C031952195310993E0220FFF
:10108000331F9A95E1F7AF01421B530B9A0157FFAB
:1010900002C020E030E0582F259F212D1124822FFF
:1010A0000895622F0895E42FF0E0EE0FFF1FE65B36
:1010B000FE4F6081621B0895E42FF0E0EE0FFF1FEA
:1010C000E55BFE4F6081621B0895A22F50E0FA019C
:1010D000EE0FFF1FE55BFE4F9081905297FD9195BB
:1010E000440F551FFA01E65BFE4F3081232F30E09D
:1010F0002A1B3109290F311D97FD3A95620F08957A
:10110000EF920F931F9393E0099F8001112415958F
:1011100007956E2D600F1F910F91EF9008950F931B
:10112000CF93DF93D72FC82F47FD4195E8E3F0E039
:10113000CF01841B910947FD9395889FB001899F3A
:10114000700D700D1124229FC001239F900D900DF2
:101150001124860F971F0E94D307682F660F860FF2
:10116000682F600F7D2F8C2FDF91CF910F91089505
:101170000F931F93522F10E0F801EE0FFF1FE55B56
:10118000FE4FE081F0E0B0979F015203D001539FE2
:10119000B00D1124000F111FF801E65BFE4F008116
:1011A00010E00057110940039001419F300D1124B8
:1011B0002A0F3B1F37FF02C021583F4F220F232F1A
:1011C000221F330B620F1F910F9108950F931F93EE
:1011D000522F10E0F801EE0FFF1FE55BFE4FE0819C
:1011E000F0E0B097EE0FFF1F9F015203D001539F15
:1011F000B00D1124000F111FF801E65BFE4F0081B6
:1012000010E000571109000F111F40039001419F8A
:10121000300D11242A0F3B1F37FF02C021583F4FCA
:10122000220F232F221F330B620F1F910F9108955E
:101230000F931F9310E0F801EE0FFF1FE65BFE4FC8
:101240009081905797FD9195000F111FF801E55B74
:10125000FE4FE081F0E0B097DF01AA0FBB1F8D01C8
:101260000E0F1F1F2003D001219FB00D1124E8E3B2
:10127000F0E0E91BF10997FDF3959F01220F331F61
:1012800089010E0F1F1F40039001419F300D112453
:101290002A0F3B1F37FF02C021583F4F220F232F39
:1012A000221F330B620F1F910F9108954095282F35
:1012B000429F412D1124842F089522E8241B08F415
:1012C00020E0620F0895FC019B01009721F477FF55
:1012D0002BC080E80895AC0197FF04C04427552730
:1012E000481B590BB901640F751F37FD0CC0241B37
:1012F000350BC901A5E0880F991FAA95E1F70E9457
:10130000352F80E20CC0CB0165E0880F991F6A95EC
:10131000E1F7BA01621B730B0E94352F80E6861B32
:10132000F7FF03C08195089580E00895FF920F9321
:101330001F93CF93DF93F62ED72F182FC901C12FFC
:10134000C01BBA010E946309982F990F890FC81B0F
:101350002C2F219F212D1124822F6F2D7D2FDF9186
:10136000CF911F910F91FF900895EF920F931F93CC
:10137000CF93DF93D62FC72F182FC9010E19010F56
:10138000BA010E946309081B202F219F212D1124DF
:10139000822F6D2F7C2FDF91CF911F910F91EF90B6
:1013A00008950F93CF93DF93D72FC82FC901BA01A8
:1013B0000E946309682F600F7D2F8C2FDF91CF91E2
:1013C0000F910895EF920F93CF93DF93D72FC82FEC
:1013D000C9010E19BA010E946309602F681B7D2F95
:1013E0008C2FDF91CF910F91EF9008951F93CF93A2
:1013F000DF93FC01618140815FEF560FA1E0A60FF2
:101400009FEF940F81E0840FC62FD0E0941780F4F3
:101410002EE02C9FF0012D9FF00D1124EA52FC4F7D
:10142000E90FF11D208130E1230F08F42FEF208315
:10143000242F30E07EE07C9FF0017D9FF00D112491
:10144000EA52FC4FEF01C20FD31F788110E2710FF7
:1014500008F47FEF78838E3040F4E80FF11D70813F
:1014600010E1710F08F47FEF7083A53070F5B0E0E4
:10147000941780F47EE07A9FF0017B9FF00D112499
:10148000EA52FC4FE90FF11D70811DE0710F08F465
:101490007FEF70837EE07A9FF0017B9FF00D112437
:1014A000EA52FC4FDF01A20FB31F7C9110E1710FD4
:1014B00008F47FEF7C938E3040F4E80FF11D7081CB
:1014C0001DE0710F08F47FEF7083561778F5652FD4
:1014D00070E0941780F44EE0469FF001479FF00DB6
:1014E0001124EA52FC4FE90FF11D40815DE0450FE8
:1014F00008F44FEF40839EE0969FF001979FF00D18
:101500001124EA52FC4FDF01A20FB31F2C9130E1EE
:10151000230F08F42FEF2C938E3040F4E80FF11DC9
:1015200020813DE0230F08F42FEF2083DF91CF913E
:101530001F91089545E050E06CE170E080E495E093
:101540000C94F52F45E050E06CE170E080E495E00C
:101550000C941330E0E4F5E085E280838091220270
:1015600090912302A091240281839283A3838FE729
:1015700084830C94A20A80E008950F931F93CF9365
:10158000DF93C82FD62F8A010E94BB0A9EE0C99F15
:10159000F0011124EC5FFE4FED0FF11D90819F3F94
:1015A00029F0F801E80FF11D90838F5FDF91CF9153
:1015B0001F910F910895E0917303F09174030994C2
:1015C000E0916F03F091700309944F925F926F92D4
:1015D0007F928F929F92AF92BF92CF92DF92EF92C3
:1015E0000F931F93CF93DF932C013B01FC01C0812C
:1015F0008DE0C89FC02D1124DDE0DC0FD03408F051
:10160000DFE360914405669580914505909146051C
:101610000E94C907182FCD1708F044C08C2E912CBA
:10162000F401E853FE4F9081F20181818923C1F1D9
:10163000F401EE0FFF1FE65BFE4FC080D12CF0E7F8
:10164000CF1AD108F401EE0FFF1FE55BFE4FA0801B
:10165000B12C80E2A81AB108CC9C9001CD9C300D31
:10166000300D1124AA9CC001AB9C900D900D11244B
:10167000820F931F0E94D307082F6091410570913C
:10168000420580914305E12E9501A601F3010995DC
:101690000E943E07462F282F672FC4010E94E00AB0
:1016A000CF5FB9CF81E0DF3308F080E0DF91CF91E9
:1016B0001F910F91EF90DF90CF90BF90AF909F90D0
:1016C0008F907F906F905F904F90089565EB79E0D9
:1016D0000C94E50A60E878E00C94E50A62EE79E0A3
:1016E0000C94E50AAF92BF92CF92DF92EF92FF92F5
:1016F0000F931F93CF93DF936C015B01FC01C081BB
:101700008DE0C89FC02D1124DDE0DC0FD03408F03F
:10171000DFE360914405669580914505909146050B
:101720000E94C907182FCD1778F5EC2EF12CF70180
:10173000E853FE4F9081F6018181892319F1F70169
:10174000EE0FFF1FE55BFE4F208130E02052310994
:10175000F701EE0FFF1FE65BFE4F408150E0405760
:101760005109609141057091420580914305012F17
:10177000F50109950E943E07462F282F672FC701C4
:101780000E94E00ACF5FCFCF81E0DF3308F080E036
:10179000DF91CF911F910F91FF90EF90DF90CF904D
:1017A000BF90AF90089566E979E00C94720B6FE8F2
:1017B00078E00C94720B61ED79E00C94720BBF929F
:1017C000CF92DF92EF92FF920F931F93CF93DF930D
:1017D0008C017B01FC01C0818DE0C89FC02D1124CC
:1017E000DDE0DC0FD03408F0DFE36091440566955E
:1017F000669580914505909146050E94C907B82ECF
:10180000CD17F0F4CC2ED12CF601E853FE4F908189
:10181000F8018181892391F0609141057091420521
:10182000809143052B2D4C2FF70109950E943E070F
:10183000462F282F672FC6010E94E00ACF5FE0CF16
:1018400081E0DF3308F080E0DF91CF911F910F91AD
:10185000FF90EF90DF90CF90BF90089565E278E021
:101860000C94DF0B61E578E00C94DF0B63E578E026
:101870000C94DF0B6CE578E00C94DF0B65E678E008
:101880000C94DF0B7F928F929F92AF92BF92CF9278
:10189000DF92EF92FF920F931F93CF93DF936C0130
:1018A0005B01FC01C0818DE0C89FC02D1124DDE0EB
:1018B000DC0FD03408F0DFE360914405669566954F
:1018C00080914505909146050E94C907182F80E434
:1018D000810F0E94040890E8F92EF80E812F0E94D3
:1018E000040820E8722E780ECD1700F58C2E912C6E
:1018F000F401E853FE4F9081F60181818923A1F024
:10190000609141057091420580914305E12E0C2FB5
:10191000272D4F2DF50109950E943E07462F282FB0
:10192000672FC4010E94E00ACF5FDECF81E0DF3382
:1019300008F080E0DF91CF911F910F91FF90EF9021
:10194000DF90CF90BF90AF909F908F907F90089541
:1019500068EB78E00C94420C66EE78E00C94420C54
:1019600068E179E00C94420CAF92BF92CF92DF9283
:10197000EF92FF920F931F93CF93DF937C015B0154
:10198000FC01C0818DE0C89FC02D1124DDE0DC0F7B
:10199000D03408F0DFE32091440530E040E050E02F
:1019A0006FEF7FEF80E090E00E94492F8901CD1713
:1019B000E8F5CC2ED12CF601E853FE4F9081F701CB
:1019C0008181892389F190914905915097FD15C036
:1019D000292F092E000C330BF901E75BFA4F81899F
:1019E000C813F3CF220F331FF901E75BFA4F218DA4
:1019F000328D2017310748F701C0980160914405E6
:101A0000C9010E94C907AC0160914105709142056E
:101A100080914305F50109950E943E07462F282F26
:101A2000672FC6010E94E00ACF5FC1CF81E0DF339C
:101A300008F080E0DF91CF911F910F91FF90EF9020
:101A4000DF90CF90BF90AF90089566E579E00C9459
:101A5000B40C6DE579E00C94B40CDF92EF92FF9238
:101A60000F931F93CF93DF938C01DC018C91CDE01A
:101A70008C9FC02D1124DDE0DC0FD03408F0DFE3B3
:101A80006091410570914205809143050E943E0797
:101A9000F62EE72ED82ECD1798F4EC2FF0E0DF01CC
:101AA000A853BE4F8C91D80111969C91982331F088
:101AB0002D2D4F2D6E2DCF010E94E00ACF5FEBCF71
:101AC00081E0DF3308F080E0DF91CF911F910F912B
:101AD000FF90EF90DF900895AF92BF92CF92DF9288
:101AE000EF92FF920F931F93CF93DF938C01FC0132
:101AF000C0818DE0C89FC02D1124DDE0DC0FD03403
:101B000008F0DFE3E0904205F0904305D0904105F6
:101B10006D2D7E2D8F2D0E943E07C62EB72EA82E2E
:101B2000609144056D0D7E2D8F2D0E943E07F62E8F
:101B3000E72ED82ECD17B8F48C2F90E0FC01E85397
:101B4000FE4F3081F8012181232359F030FF04C07A
:101B50002D2D4F2D6E2D03C02A2D4C2D6B2D0E9447
:101B6000E00ACF5FE7CF81E0DF3308F080E0DF916C
:101B7000CF911F910F91FF90EF90DF90CF90BF908A
:101B8000AF900895BF92CF92DF92EF92FF920F93A2
:101B90001F93CF93DF937C01FC01C0818DE0C89F30
:101BA000C02D1124DDE0DC0FD03408F0DFE3C0905D
:101BB0004205B09043052091440530E4D32E3D2DDD
:101BC000329F312D1124D32ECD1738F50C2F10E074
:101BD000F801E853FE4F9081F70181818923D9F004
:101BE000F801EE0FFF1FE65BFE4F6081D69EB0014D
:101BF000112495E0759567959A95E1F780914105D7
:101C0000680F7C2D8B2D0E943E07462F282F672FB3
:101C1000C8010E94E00ACF5FD7CF81E0DF3308F030
:101C200080E0DF91CF911F910F91FF90EF90DF90B7
:101C3000CF90BF900895DF92EF92FF920F931F9382
:101C4000CF93DF938C01DC01CC918DE0C89FC02D38
:101C50001124DDE0DC0FD03408F0DFE3E090410533
:101C6000F0904205D09043056091440566956695D5
:101C7000669580914505909146050E94C9070E948E
:101C80000408805887FD8195880F282F3D2D239FBC
:101C9000212D1124822FB7010E943E07F62EE72E38
:101CA000D82ECD1798F4EC2FF0E0DF01A853BE4FEB
:101CB0008C91D80111969C91982331F02D2D4F2DA8
:101CC0006E2DCF010E94E00ACF5FEBCF81E0DF33C2
:101CD00008F080E0DF91CF911F910F91FF90EF907E
:101CE000DF900895DF92EF92FF920F931F93CF93AF
:101CF000DF93EC01FC01E853FE4F9081692381F1F1
:101D0000D09042050091430510914105E12EF12C40
:101D10000E94DC2F282FC7018C549F4F68E671E08A
:101D20000E94352F8E199F0997FD039695958795EB
:101D3000959587952370612F289F600D11247D2D27
:101D4000802F0E943E07462F282F672FCE01DF915C
:101D5000CF911F910F91FF90EF90DF900C94E00ACC
:101D6000DF91CF911F910F91FF90EF90DF90089539
:101D7000CF92DF92FF920F931F93CF93DF938C014B
:101D8000FC01C281C1111DC06091440520E1620FB8
:101D900008F46FEF80914505909146050E94C907B0
:101DA0006AE070E00E94212F892B59F50E94DC2FF8
:101DB0006FE370E00E94352FF80161810E94720E7E
:101DC00020C0FC018081CDE08C9FC02D11249DE0BE
:101DD000F92EFC0EFFE3FF1510F48FE3F82ED0E090
:101DE000CF2CD12CCC15DD053CF4F8016181CE015E
:101DF0000E94720E2196F6CFC1E0FEE3FF1508F4B3
:101E0000C0E08C2FDF91CF911F910F91FF90DF9059
:101E1000CF9008951F93CF93DF93FC01E853FE4FBB
:101E200020816223A9F0EC010E94DC2F182F0E9470
:101E3000DC2F612F782F809143050E943E07462FAB
:101E4000282F672FCE01DF91CF911F910C94E00ACC
:101E5000DF91CF911F910895CF92DF92FF920F9360
:101E60001F93CF93DF938C01FC01C281C1111DC070
:101E70006091440520E1620F08F46FEF8091450501
:101E8000909146050E94C90765E070E00E94212FED
:101E9000892B59F50E94DC2F6FE370E00E94352FEB
:101EA000F80161810E940A0F20C0FC018081CDE011
:101EB0008C9FC02D11249DE0F92EFC0EFFE3FF1531
:101EC00010F48FE3F82ED0E0CF2CD12CCC15DD050B
:101ED0003CF4F8016181CE010E940A0F2196F6CFF1
:101EE000C1E0FEE3FF1508F4C0E08C2FDF91CF9135
:101EF0001F910F91FF90DF90CF900895E0917103B3
:101F0000F091720309942F923F924F925F926F92D9
:101F10007F928F929F92AF92BF92CF92DF92EF9279
:101F2000FF920F931F93CF93DF93CDB7DEB72B971D
:101F30000FB6F894DEBF0FBECDBF3C01DC018C9123
:101F40000DE0809F002D1124BDE0B00FB987B7349C
:101F500010F0E6E4E987D30112968C91882361F0B2
:101F600040E060E080E00E947E0F86E4E6EDF3E072
:101F7000DF011D928A95E9F710E0F985EF2FF0E077
:101F8000FB87EA878EE0482ECE0101965C019AEA33
:101F9000292E8A859B85081719070CF060C0C80197
:101FA00065E070E00E94352F7B014C01489EF001F6
:101FB000499EF00D1124EA52FC4FE60FF71F5080A6
:101FC000A5010E94BD0A382E65018C2D8A19831542
:101FD00008F032C0D601EC91F0E0E853FE4F90815A
:101FE000F3018181892321F1252D35E5231B08F497
:101FF00020E0622D621B70914205222D352D230FAA
:1020000008F42FEF3091430582E0289F200D112422
:102010002E5F239F212D1124822F0E943E07462FE1
:10202000D6019C91282F672F892F90E00E94E00A0B
:10203000BFEFCB1ADB0AC9CF252D31E0231B08F4F3
:1020400020E0489CC001499C900D11248A529C4F6D
:10205000FC01EE0DFF1D20830F5F1F4F9ACF81E023
:102060009985963408F080E02B960FB6F894DEBF81
:102070000FBECDBFDF91CF911F910F91FF90EF90D9
:10208000DF90CF90BF90AF909F908F907F906F9098
:102090005F904F903F902F900895AF92BF92CF9254
:1020A000DF92EF92FF920F931F93CF93DF93CDB701
:1020B000DEB728970FB6F894DEBF0FBECDBF8B01F9
:1020C000FB018281882349F0AE014F5F5F4F608141
:1020D00081810E94BD0AD82E01C0D12CC090A903D5
:1020E000ED2CF12CC7018C0D911D099764F188E04E
:1020F00090E05C01AE18BF08B70166557C4FA501A2
:102100008AEA93E00E94EC2FB7016E547C4FA50140
:1021100082EB93E00E94EC2FA501440F551FB701FD
:10212000660F771F6E537C4F82EC93E00E94EC2F7A
:10213000B70166547C4FA5018AEB93E00E94EC2F17
:10214000CA94C092A903F090A903DE01119640E061
:10215000842F8F0DD41609F190E05D91252F30E08A
:10216000BC0167557C4FF901EE0FFF1FE65BFE4F88
:10217000E080FB01E182220F331FF901E55BFE4F96
:102180002081FB012187518B880F991FFC01E755A6
:10219000FC4F128E118E4F5FDBCF8093A90380918D
:1021A00040058C7F843519F4C8010E94F60981E04E
:1021B00028960FB6F894DEBF0FBECDBFDF91CF914A
:1021C0001F910F91FF90EF90DF90CF90BF90AF9055
:1021D000089508950C94E9100E94EA100C944C03A1
:1021E0004F925F926F927F928F929F92AF92BF9227
:1021F000CF92DF92EF92FF92CF93DF936091D20361
:102200007091D3038091D4039091D5030E94EB2465
:102210006B017C010E94D0244B015C016093D203CE
:102220007093D3038093D4039093D503A091A90313
:10223000E9EAF3E08A2F90E04FEF5FEF60E070E0B3
:102240004C195D096E097F09A91799F0218D328D0E
:102250002901612C712C441555056605770510F48C
:10226000815004C02C0D3D1D328F218F9F5F32960F
:10227000EBCF8093A903D0911C04D11108C0C09169
:1022800040058C2F837019F0C695C69501C0C0E03B
:10229000809107028130E9F038F0823009F4C7C03C
:1022A000833009F4D1C0E1C0109208028092450544
:1022B00090924605A0924705B092480589E2E9EA66
:1022C000F3E0A9E4B5E001900D928A95E1F781E091
:1022D000B8C080910B02C8130DC020914005237037
:1022E00030E040910C0250E081E02417350719F4EA
:1022F00080E001C081E0817080930A024C2F50E0A1
:102300004831510508F081C0FA01EA5AFF4F0C9498
:10231000682F882309F479C040E060E080E00E94E3
:102320007E0F73C088E092E00E942D0D6FC088E0A0
:1023300092E00E946C0D6AC088E092E00E94C20D9B
:1023400065C088E092E00E941B0E60C088E092E0C9
:102350000E942E0C5BC088E092E00E94D30B56C016
:1023600088E092E00E94660B51C088E092E00E94F3
:10237000320C4CC088E092E00E94360C47C088E0E6
:1023800092E00E943A0C42C088E092E00E943E0C2B
:102390003DC088E092E00E946A0B38C088E092E07D
:1023A0000E94D70B33C088E092E00E94DB0B2EC066
:1023B00088E092E00E946E0B29C088E092E00E94C3
:1023C000A80C24C088E092E00E94AC0C1FC088E0FA
:1023D00092E00E94B00C1AC088E092E00E94B80E11
:1023E00015C088E092E00E942C0F10C088E092E0B7
:1023F0000E94830F0BC088E092E00E94250D06C06A
:1024000088E092E00E94290D01C080E090910802CE
:102410009F5F90930802811128C082E08093070299
:1024200080910A02811121C0CC2351F01EC0C093BB
:102430000B0280914005837080930C020E94DB0A9E
:1024400083E08093070211C06091450570914605B5
:1024500080914705909148050E94EB2460317105F9
:102460008105910510F010920702D11110C0DF9183
:10247000CF91FF90EF90DF90CF90BF90AF909F9063
:102480008F907F906F905F904F900C94EC10DF9145
:10249000CF91FF90EF90DF90CF90BF90AF909F9043
:1024A0008F907F906F905F904F900895E0916D03B3
:1024B000F0916E03099510924905E2E6F5E08FEF81
:1024C0009FEF8193919325E0E237F207D1F71092C5
:1024D000A903E2ECF3E08FEF9FEF8193919323E068
:1024E000E23DF207D1F70E94D922811104C00E9477
:1024F00079230E94AA0A0E949A0A809140058C7F43
:1025000011F40C94AA0A0895CF93C82F882329F0B8
:1025100040E060E080E00E947E0FC0931C04CF91F9
:102520000895E0E4F5E0908181E0892780831092AE
:1025300007020C94A20A90914005892F86958695F2
:102540008F5F8F739370883120F4880F880F892BE9
:1025500002C0892F846080934005109207020C947A
:10256000A20A90914005892F86958695815C8F738C
:102570009370882321F0880F880F892B02C0892F40
:102580008C6580934005109207020C94A20AE0E447
:10259000F5E08181885F81830C94A20AE0E4F5E094
:1025A0008181885081830C94A20AE0E4F5E02281C5
:1025B00030E1230F08F42FEF22830C94A20AE0E409
:1025C000F5E0228130E1231B08F420E022830C9403
:1025D000A20AE0E4F5E0238130E1230F08F42FEFB5
:1025E00023830C94A20AE0E4F5E0238130E1231B6D
:1025F00008F420E023830C94A20AE0E4F5E02481AF
:1026000030E1230F08F42FEF24830C94A20AE0E4B6
:10261000F5E0248130E1231B08F420E024830C94AE
:10262000A20AE0E4F5E0880F880F90819370892B6F
:102630008083109207020C94A20A60E080E50E9459
:10264000AB1461E080E50C94AB14CF930E9490171B
:1026500060E080E50E948113C0E021E041E061E09C
:102660008C2F0E940F14CF5FCF33B9F760E080E565
:102670000E94DD1461E080E5CF910C94DD1460933D
:10268000F2064093F30624E630E042E050E062EFC9
:1026900076E0880F0E941D1821E0892B09F020E0C8
:1026A000822F0895EF92FF921F93CF93DF937B01C8
:1026B000182F110FC0E0D0E0C093F206D701AC0F85
:1026C000BD1FE3EFF6E08D91819387E0E330F807DB
:1026D000D1F724E630E041E150E062EF76E0812F6F
:1026E0000E941D18892B31F46096C03CD10521F75A
:1026F00081E001C080E0DF91CF911F91FF90EF90CA
:1027000008951F93CF93DF93C82FD62F45EC6EEF1C
:102710000E943F1340E06DEF8C2F0E943F1310E0AA
:1027200040E0612F8C2F0E943F131F5F1831C1F7CB
:1027300045EC6EEF8C2F0E943F1341E06DEF8C2F24
:102740000E943F1310E040E0612F8C2F0E943F1346
:102750001F5F103CC1F745EC6EEF8C2F0E943F13BA
:1027600043E06DEF8C2F0E943F134FEF61E08C2F01
:102770000E943F1380E4D89FA0011124416060E0D3
:102780008C2F0E943F138FE39CE90197F1F700C063
:102790000000DF91CF911F9108958F33910520F5AF
:1027A000880F991F880F991FFC01EB5DFD4F528127
:1027B0003381808183707181E82FF0E0A0EC8A9FE3
:1027C000C00111248E589A4FDC01A70FB11D6C93E4
:1027D000DC01A50FB11D4C93DC01A30FB11D2C939F
:1027E000E15BFB4F81E080830895FF920F931F937D
:1027F000CF93DF93182F062FF42EC0E0D0E02F2DBB
:10280000402F612FCE010E94CD132196CF33D105E9
:10281000B1F7DF91CF911F910F91FF900895CF9362
:10282000DF9334E0839FC0011124FC01EB5DFD4F79
:102830008081837051819281C381A52FA695A69531
:10284000A695392F369536953695EC2FE695E69573
:10285000E6955770F92FF770C77090E0B0E0D8E1B7
:10286000662391F0D89FB001D99F700D1124615E4D
:102870007B4FA60FB71F61E070E001C0660F5A954D
:10288000EAF75C91652B12C0D89FB001D99F700DFB
:102890001124615E7B4FA60FB71F61E070E001C09D
:1028A000660F5A95EAF760955C9165236C93632FE8
:1028B00070E038E1389FD001399FB00D1124A15E3E
:1028C000BB4FA60FB71F442349F041E050E001C0C1
:1028D000440FFA95EAF73C91432B09C041E050E0E0
:1028E00001C0440FFA95EAF740953C9143234C937D
:1028F0004E2F50E0222399F028E1289FF001299FD4
:10290000F00D1124E15EFB4FE40FF51F21E030E0F4
:1029100001C0220FCA95EAF73081232B13C028E1AA
:10292000289FF001299FF00D1124E15EFB4FE40F79
:10293000F51F21E030E001C0220FCA95EAF720958B
:10294000308123232083FC01E35EFB4F21E02083C1
:10295000DF91CF910895EF92FF921F93CF93DF9372
:10296000C62FD0E09E01215B3B4F7901F901908198
:102970009923D9F0182F45EC6EEF0E943F1341E0E8
:102980006DEF812F0E943F1380EC8C9FB0018D9FD3
:10299000700D11246E587A4F812F0E9452138111AD
:1029A00004C0C35EDB4F81E08883F7011082DF91B2
:1029B000CF911F91FF90EF900895CF92DF92FF92F9
:1029C0000F931F93CF93DF93262F30E0A901435E2F
:1029D0005B4F6A01FA01908191110AC0F6011082E1
:1029E000DF91CF911F910F91FF90DF90CF900895CD
:1029F000C62FF82E45EC6EEF0E943F1340E06DEFBE
:102A00008F2D0E943F13F8E1CF9FE001112400E0D9
:102A100010E0F801EC0FFD1FE15EFB4F4081602FDD
:102A20008F2D0E943F130F5F1F4F0831110589F74B
:102A3000D5CF882311F0FA0101C0FB0109940F934F
:102A40001F93CF93FB01C281CC2309F450C08C01AA
:102A50000E942F228272F801E25CFC45E431F1050C
:102A600008F048C0E259FF4F0C94682F0E94911261
:102A700040C041EB52E16BE972E104C04BE952E125
:102A800061EB72E10E94191534C04EEC52E167EC23
:102A900072E1F8CF47EC52E16EEC72E1F3CF4FED0B
:102AA00052E165ED72E1EECF45ED52E16FED72E17D
:102AB000E9CF43EF52E169EE72E1E4CF49EE52E132
:102AC00063EF72E1DFCF47E053E16DEF72E1DACF00
:102AD0004DEF52E167E073E1D5CF81E005C084E0BE
:102AE00003C089E001C08EE00E94111302C0C1E062
:102AF00001C0C0E08C2FCF911F910F9108950F93CB
:102B00001F93CF93DF93C62FD42F122FFC01828106
:102B10008823C9F0609353040E94C4249093520404
:102B20008093510480E28C0F883008F057C0C77042
:102B300081E001C0880FCA95EAF7DF91CF911F911C
:102B40000F910C94591A80915304681330C08091EE
:102B50005104909152040E94DC24883C910538F580
:102B600000E20D0FCD17B9F080E28C0F883040F4F1
:102B7000C77081E001C0880FCA95EAF70E94601A09
:102B8000083028F581E09D2F977001C0880F9A9535
:102B9000EAF70E94591A812F0E94461A0830F0F471
:102BA000D77081E001C0880FDA95EAF70AC080E2A9
:102BB0008C0F883098F4C77081E001C0880FCA95E7
:102BC000EAF7DF91CF911F910F910C94601A812F3A
:102BD000DF91CF911F910F910C94461ADF91CF9105
:102BE0001F910F9108959C01CB01233F4CE53407C1
:102BF000F9F078F4283DFCE53F07B9F0293D4CE5B4
:102C0000340711F1273D3C4531F526E241EE61EEF6
:102C10001EC0253FFCE53F0799F070F0263F3C457C
:102C2000D1F427E245EE66EE12C027E245EE0EC073
:102C300026E241EE60EE0BC027E245EE64EE07C0EF
:102C400026E241EE62EE03C028E241E065EE0E941A
:102C50007F1580E00895FC018281882319F010928D
:102C60005304089581E00895CF93DF93EC01FB01B5
:102C70008281882309F41FC1C230FCE5DF0708F414
:102C80001BC1C6319CE5D90738F09E012A5F3C453F
:102C90002930310508F010C10E94EC2290930B07F7
:102CA00080930A07C031ECE5DE0709F4C3C008F0E1
:102CB00041C0C8308CE5D80709F49AC0F0F4C4309C
:102CC000ECE5DE0709F487C068F4C2308CE5D8076C
:102CD00009F477C0C330DC4509F0E3C080910A07EE
:102CE000826076C0C630ECE5DE0709F46EC008F0FD
:102CF0007BC080910A0788606BC0CC308CE5D80718
:102D000009F485C068F4CA30ECE5DE0709F474C044
:102D100008F079C00E94E01C80910A07806858C0C2
:102D2000CE308CE5D80709F476C008F07FC08091DA
:102D30000A078BC0CB3FECE5DE0709F44FC018F55E
:102D4000C3318CE5D80709F47DC078F4C131ECE5D6
:102D5000DE0709F473C0C231DC4509F0A2C00E944D
:102D6000E01C80910A078F7733C0C5318CE5D80706
:102D700009F472C008F486C0CA3FDC4509F091C06E
:102D800080910B073EC0CF3FFCE5DF0709F45FC031
:102D900058F4CD3F9CE5D90709F444C008F43FC07E
:102DA00080910B0782602DC0C130FDE5DF0709F47B
:102DB00075C008F45DC0C230DD4509F072C080E026
:102DC0006EC080910A07816003C080910A0780610C
:102DD00080930A0766C080910A0711C080910B0793
:102DE000826080930B075DC080910A078062F0CFFC
:102DF00080910A078064ECCF80910A078860846024
:102E0000E7CF8160EECF80910A078E7FE1CF80917E
:102E10000A078D7FDDCF80910A07877FD9CF809108
:102E20000B0718C080910B078D7FDBCF80910A07BD
:102E30008F7ECECF80910A078F7DCACF80910A07FF
:102E40008F7BC6CF80910A07877F8B7FC1CF809110
:102E50000B078D7F8E7FC5CF80910A0782FB2227CB
:102E600020F991E0922790FB82F990FB83F9B0CF93
:102E700080910B07982F909591708E7F892B90FBF6
:102E800081F9AFCF0E94E01C80910A0787FB2227BF
:102E900020F991E0922790FB87F99ACF81E00E9478
:102EA0007B2380910A0790910B070E94FD220E94CC
:102EB000E01C80E001C081E0DF91CF910895CF93C5
:102EC000DF9386319C4541F5EB010E942F22982F1C
:102ED0008A8120910D0230910E02882379F09A7A2E
:102EE00081E009F480E080935404911102C069E20A
:102EF00001C065E3C9010E9416240AC080915404F0
:102F0000811102C069E201C065E3C9010E94212468
:102F10000E94702280E001C081E0DF91CF9108958E
:102F20001092B9008CE08093B8000895EF92FF9260
:102F30000F931F93CF93DF93182FEB011092BC00D8
:102F400084EA8093BC000E94C4247C018091BC0070
:102F500087FD0EC0CF3F8FEFD807C1F30E94C42476
:102F60008E199F098C179D0788F38EEF9FEF2EC057
:102F70008091B900887F883041F08091B900887FC6
:102F8000803119F08FEF9FEF21C01093BB0084E8D0
:102F90008093BC000E94C4248C018091BC0087FDFA
:102FA0000CC0CF3F8FEFD807C1F30E94C424801B11
:102FB000910B8C179D0788F3D8CF8091B900887F3B
:102FC000883111F08034F1F680E090E0DF91CF910C
:102FD0001F910F91FF90EF9008950F931F93CF9340
:102FE000DF93EB018093BB0084E88093BC000E94D8
:102FF000C4248C018091BC0087FD0EC0CF3F8FEFB1
:10300000D807C1F30E94C424801B910B8C179D0725
:1030100088F38EEF9FEF0CC02091B900287F81E0EC
:1030200090E0283211F480E090E09195819591092B
:10303000DF91CF911F910F910895CF92DF92EF9280
:10304000FF920F931F93CF93DF936B018A01790156
:10305000B9010E949617E6010C0D1D1DC017D1077E
:1030600061F424E92093BC00DF91CF911F910F916F
:10307000FF90EF90DF90CF90089597FDF2CFB701CA
:1030800089910E94ED17EACF90935A0480935904D6
:103090000895E0915904F0915A04309721F001907D
:1030A000F081E02D099480E00895E0915904F091B9
:1030B0005A04309711F480E008950190F081E02DDA
:1030C00009950895E0915904F0915A04309799F0C8
:1030D00020912102222359F020910A0727FF07C0DF
:1030E000DC012C9111962C93119725E02C930280F2
:1030F000F381E02D09940895E0915904F0915A0468
:10310000309739F022E0DC012C930480F581E02D2A
:1031100009940895209157043091580428173907CD
:1031200071F09093580480935704E0915904F09102
:103130005A04309721F00680F781E02D0994089514
:1031400020915504309156042817390771F0909357
:10315000560480935504E0915904F0915A04309735
:1031600021F00084F185E02D0994089585B78068E9
:1031700085BF85B7806885BF089508950C94BD18F4
:103180000C94BE180C94BD180C94BD180E94B6186F
:103190000E94C2180C94C01881E008950C94CC18B9
:1031A0000E94BB240E9424060E9467250C94C41828
:1031B0007F928F929F92AF92BF92CF92DF92EF92C7
:1031C000FF920F931F93CF93DF93CDB7DEB72A976C
:1031D0000FB6F894DEBF0FBECDBF0E9476060E94E8
:1031E000CE18811111C08FEF89838A831B820E94C0
:1031F000C4248160782F9D838C8349815A816B819F
:103200008D810E9488194FC04CE5A42E44E0B42E55
:1032100000E010E0702E802F0E940D066C01F50179
:10322000819091905F01882699268114910431F450
:103230000F5F1F4F0530110569F7D5CF8091F90455
:1032400081FD0E94160680E0EE24E394F12C9401A7
:103250002E213F21232B09F18E837F82CE20DF2078
:1032600081E0CD2809F480E088870E94C424816031
:10327000782F9A8789874E815F8168858A850E9429
:103280008819000F111FF801E45AFB4F80819181CA
:10329000E826F926F182E08206C08F5FEE0CFF1C63
:1032A0008E30A9F6C5CF0E94F9260E944918909148
:1032B0005B048917C9F00E94491880935B042A9621
:1032C0000FB6F894DEBF0FBECDBFDF91CF911F9137
:1032D0000F91FF90EF90DF90CF90BF90AF909F90B5
:1032E0008F907F900C94BF032A960FB6F894DEBFA0
:1032F0000FBECDBFDF91CF911F910F91FF90EF9047
:10330000DF90CF90BF90AF909F908F907F90089567
:10331000CF93DF93CDB7DEB72B970FB6F894DEBF10
:103320000FBECDBF4F83588769877A878B87DE01B1
:10333000119686E0FD0111928A95E9F785E0FE017C
:10334000379601900D928A95E1F749815A816B81F8
:103350007C818D819E810E94991F2B960FB6F894D7
:10336000DEBF0FBECDBFDF91CF910895FC018081FC
:1033700091810E94F0210895CF93882309F450C0D1
:10338000C82F8CEF8C0F813AD0F46C2F80910D02F6
:1033900090910E020E949623882349F06C2F809111
:1033A0000D0290910E020E9421240E9470226C2F27
:1033B00080910D0290910E020E9416240CC080E2B2
:1033C0008C0F883058F4C77081E001C0880FCA950F
:1033D000EAF70E943222CF910C947022EBE5EC0FB9
:1033E000E33040F4F0E0ED55FC4F808190E0CF9168
:1033F0000C948A18E8E5EC0FE73150F4F0E0EE0F9A
:10340000FF1FEB58FC4F80819181CF910C94A01845
:10341000C03F30F08C2F0E940126CF910C94EE26F5
:10342000CF910895882389F19CEF980F913A40F449
:10343000682F80910D0290910E020E9421240DC0F0
:1034400090E2980F983058F4877091E001C0990F7E
:103450008A95EAF7892F0E9438220C9470229BE506
:10346000980F933020F480E090E00C948A1898E54F
:10347000980F973120F480E090E00C94A018803FE2
:1034800020F00E9469260C94EE260895CF93C82F51
:103490000E94BC19C93349F42FEF87EE93E0215005
:1034A00080409040E1F700C000008C2FCF910C9439
:1034B000121A882321F00E9432220C94702208955F
:1034C000882321F00E9438220C9470220895CF9214
:1034D000DF92EF92FF920F931F93CF93DF937C01C4
:1034E000D62FC72FFC01058102950F701281111193
:1034F0000E944F220E942822882399F0112389F0EC
:103500008C2F807F803421F080E28D0F883048F04E
:1035100082E00E94BA220E94282291E0D82ED92669
:1035200001C0D12CCC2EC2948FE0C8228C2D90E00B
:103530008C30910508F0B6C1FC01EE57FF4F0C949A
:10354000682F8C2F807FCF70882311F0C295C07FA9
:10355000112399F0CC2309F491C180E28D0F8830BA
:1035600010F0D11104C08C2F0E94322203C08C2F86
:103570000E9442220E94702281C18D2F0E94121A45
:10358000CC2309F48FC180E28D0F883010F0D11167
:1035900004C08C2F0E94382203C08C2F0E94482226
:1035A0000E9470227FC18C2F807FCF70803211F0FB
:1035B000C295C07FDD2319F0D130C9F022C011239C
:1035C00071F0002341F0013031F40E9455228C2B20
:1035D0000E945D2267C10E9455228C2B1DC00023D2
:1035E00019F0013009F45EC10E94662225C0112342
:1035F00021F0063008F056C10EC0053008F052C167
:103600001BC0112361F0002331F0F701858180FF99
:1036100035C18F7085838C2F0E94591A43C10023B6
:1036200059F0D93309F03BC1FFEF07EE13E0F15039
:1036300000401040E1F731C18C2F0E94601A32C166
:103640008C2F86958695837019F0813061F02AC1A0
:10365000112321F08D2F9C2F937002C080E090E009
:103660000E948A1827C1112321F08D2F9C2F93705F
:1036700002C080E090E00E94A0181CC18D2F112391
:1036800019F00E94012602C00E9469260E94EE26BF
:1036900011C18C2F837009F047C0111107C12D2F64
:1036A000229526952770220F220F6D2F6F70862F7F
:1036B00090E0A0E0B0E0022E04C0880F991FAA1F7E
:1036C000BB1F0A94D2F7D4FF10C04FE050E060E077
:1036D00070E004C0440F551F661F771F2A95D2F76C
:1036E000409550956095709503C040E050E0BA0158
:1036F000C695C695C3708A019B01082B192B2A2BEE
:103700003B2BC901B801C23049F058F4C13019F05F
:103710000E946D20CBC00E945B20C8C00E947F2009
:10372000C5C00E945920C2C0112319F08C2F81708E
:1037300001C08695882309F4B9C02D2F22952695BE
:103740002770220F220F6D2F6F70862F90E0A0E060
:10375000B0E0022E04C0880F991FAA1FBB1F0A9455
:10376000D2F7D4FF10C04FE050E060E070E004C03A
:10377000440F551F661F771F2A95D2F74095509525
:103780006095709503C040E050E0BA01C695C695BB
:10379000C3708A019B01082B192B2A2B3B2BC901D3
:1037A000B801C23049F058F4C13019F00E943221FA
:1037B0007DC00E9420217AC00E94442177C00E94CF
:1037C000932074C0CF70112339F08C2F0E94B92040
:1037D0008D2F0E94591A6AC08D2F0E94601A8C2F5B
:1037E0000E94DA2063C0D23F01F128F4D03F41F0BB
:1037F000D13FA1F03FC0D33FF9F0D43F39F13AC0F7
:10380000112341F0053008F04DC08C2F8F710E94BC
:10381000FF2048C0063008F045C0F7CF112339F02B
:103820008C2F8F710E94B9203DC01123C9F38C2FBA
:103830008F710E94DA2036C0112329F08C2F8F71EE
:103840000E94A4202FC00E949F202CC0112349F069
:10385000CF718C2F0E94B92063E08C2F0E94A5228B
:1038600021C081E00E94BA220230E0F082E00E9492
:10387000BA2218C0112331F0002391F28D2F0E943B
:10388000BC1910C0002399F2D93349F41FEF27EE79
:1038900033E0115020403040E1F700C000008D2F90
:1038A0000E94121A88EF8C0D843020F40E9449186F
:1038B0000E94BF03DD20C9F00E94242280FD15C0B4
:1038C000F70112820E941E220E94B920C7010E94A5
:1038D000961C0E941E22DF91CF911F910F91FF90A5
:1038E000EF90DF90CF900C94DA20DF91CF911F9171
:1038F0000F91FF90EF90DF90CF9008950F931F935B
:10390000CF93DF93EC01688179818A810E94FB214A
:103910008C010E9456210E944720B801CE010E94CE
:10392000671ADF91CF911F910F910895CF93DF9385
:10393000EC01988189812B813C81232B31F08F3FD1
:1039400031F481E09F3F19F403C081E001C080E0C1
:1039500080FD19C0CE010E94D80381110CC00E94C5
:103960002822882381F08A81882369F082E0DF9110
:10397000CF910C94BA22CE010E947E1CCE01DF9121
:10398000CF910C949D03DF91CF9108950E944F2217
:103990000E9452220E9470220E9418280E94EE2645
:1039A00080E090E00E948A1880E090E00C94A018DB
:1039B00080910D0290910E020E942C240C94C61C42
:1039C0000E943F220C94D81CE92FE295EF704E2FF5
:1039D00050E0FA013297EE30F105B0F4E257FF4FB4
:1039E0000C94682F803F91F018F4883E68F40EC064
:1039F000843F51F40BC0883E48F0813F29F406C053
:103A000093FB882780F9089580E0089581E0089568
:103A10000E94F0210E94E41C0895CF93DF9300D010
:103A200000D01F92CDB7DEB70F900F900F900F9080
:103A30000F90DF91CF910895CF93DF9300D000D006
:103A400000D0CDB7DEB726960FB6F894DEBF0FBE16
:103A5000CDBFDF91CF9108951F93CF93DF93C09196
:103A6000670416E080916804C81799F0D0E01C9FA5
:103A7000F0011D9FF00D1124E759FB4F408151814A
:103A800062817381848195810E941C1D2196C7707B
:103A9000E9CFDF91CF911F91089540919904509102
:103AA0009A0460919B0470919C0480919D04909174
:103AB0009E040C941C1D0F931F93CF93DF93809152
:103AC0009E0482958F7009F05DC080919B048823CD
:103AD00009F458C0809167041091680460919904BA
:103AE00070919A04C0919C04D0919D0491E06F3F25
:103AF00009F090E0292F06E0811709F443C02097D0
:103B000021F07F3F21F030E003C031E001C0322FCF
:103B100090E030FD34C0089FF001099FF00D1124A2
:103B2000DF01A759BB4F11963C911197371327C05E
:103B30003C91361324C012963C91129731111FC04C
:103B400013964D915C9114974C1B5D0B483C5105AD
:103B5000B0F480919E048F70806180939E04E2593E
:103B6000FB4F80818F708061808389E994E00E949F
:103B7000961CDF91CF911F910F910C942C1D0196F3
:103B80008770BACFDF91CF911F910F9108959F92C7
:103B9000AF92BF92CF92DF92EF92FF920F931F935B
:103BA000CF93DF93CDB7DEB761970FB6F894DEBF42
:103BB0000FBECDBF8C0185E0F801DE011D9601909E
:103BC0000D928A95E1F7F80140815181E280909150
:103BD000990460919A0420919C0430919D042115D0
:103BE000310531F06F3F31F481E09F3F19F403C09C
:103BF00081E001C080E0F82FF1709F2E80FD46C16A
:103C0000F801A380B48089E9C82E84E0D82EF09012
:103C10009B04F501E21BF30BFF2009F4DFC0809148
:103C20009E04E83CF10508F09BC0282F207F09F096
:103C300052C0561313C0491311C0FE2CE1100EC020
:103C40008F70806180939E040E944D1DC6010E946A
:103C5000961C80919E04F801858358C1AB2831F0F1
:103C60005F3F31F481E04F3F19F403C081E001C0B0
:103C700080E080FD03C081E08E2502C080E090E0FE
:103C8000F82FF170FF2E80FF1CC0809167042091F7
:103C9000680436E0821709F417C190E0389FF001FC
:103CA000399FF00D1124E759FB4F6181561306C06F
:103CB0006081461303C06281E61203C001968770DB
:103CC000E9CFFE2CEE2009F421C180919E04816091
:103CD00080939E045AC0561306C0491304C0E110D5
:103CE00002C0F8019FC04D875E878D859E850E942A
:103CF000081D882379F1EE2069F120919E04822F1E
:103D000082958F7090E0029774F080919904909161
:103D10009A0498878F831986BB86AA862C87CE0142
:103D200007960E94961C86E0F801A9E9B4E001908C
:103D30000D928A95E1F70E945B1D0E944D1D0DC0FA
:103D4000561729F14D875E878D859E850E94081D37
:103D500081112CC0C8010E94961CFF24F394D6C088
:103D6000282F207F69F77A2DB98AA88A6E2D898934
:103D70000E940D1D89E994E00E94961C86E0F601E0
:103D800011928A95E9F70E944D1DF12CBFC049138D
:103D9000D9CFE110D7CFF8018583C8010E94961CC6
:103DA00086E0F60111928A95E9F7B0C0EE2091F213
:103DB00020919E04822F82958F7090E002970CF4E0
:103DC000B2CF8091990490919A049A8389831B823F
:103DD000BD82AC822E83CE010196A3CFE83CF105D3
:103DE00008F047C0FE2CEE2009F4B4CF561330C0C3
:103DF00049132EC020919E0420FD21C0822F829560
:103E00008F70482F50E041155105C9F0F801258306
:103E10004F30510541F08F5F982F9295907F822F00
:103E20008F70892B8583C8010E94961C86E0F8015B
:103E3000A9E9B4E001900D928A95E1F742C086E0CD
:103E4000F801A9E9B4E001900D928A95E1F75EC00E
:103E50004D875E878D859E850E94081D811163CFE9
:103E600080919E04816080939E04C8010E94961CEC
:103E70004DC07A2DB98AA88A6E2D89890E940D1DA0
:103E800086E0F60111928A95E9F71BC0EE2009F44D
:103E900061CF4D875E878D859E850E94081DF82E17
:103EA000882309F457CF86E0F801A9E9B4E001902E
:103EB0000D928A95E1F789E994E00E94B6190E9473
:103EC0005B1D0E944D1D22C04D875E878D859E859E
:103ED0000E94F021292F22952F70223028F49F7004
:103EE00039F0811105C00BC0243028F49F7049F4CB
:103EF000805E883020F0C8010E94961C9F2CF92C0F
:103F000005C0F8019581907F99F7F9CF8F2D6196C3
:103F10000FB6F894DEBF0FBECDBFDF91CF911F91DA
:103F20000F91FF90EF90DF90CF90BF90AF909F9058
:103F300008951F93CF93DF93CDB7DEB72C970FB6BD
:103F4000F894DEBF0FBECDBF4F83588769877A874D
:103F50008B879C87CE0107960E94C71D8823D1F0CE
:103F60009F8188852A853B85232B31F08F3F31F453
:103F700081E09F3F19F403C081E001C080E080FD33
:103F800047C04F81588569857A858B859C850E94BD
:103F90001C1D3EC086E0FE013796DE0111960190A1
:103FA0000D928A95E1F7FF81E8856A857B85611529
:103FB000710531F0EF3F31F481E0FF3F19F403C0A8
:103FC00081E001C080E080FD23C02091680430E0E2
:103FD000C9010196877099274091670450E08417C2
:103FE0009507F1F1F983EA837D836C8396E0929FD4
:103FF000D001939FB00D1124A759BB4FFE013196FC
:1040000001900D929A95E1F7809368040E942C1D0F
:1040100016E08091670490916804891771F1189FE8
:10402000C001112487599B4F0E94C71D882329F185
:10403000E09167041E9FF0011124E759FB4F408176
:10404000518162817381848195810E941C1D8091C0
:10405000670490E001968770992780936704D9CF11
:104060000E94E01C1092680410926704E9E9F4E0F1
:1040700086E0DF011D928A95E9F72C960FB6F89439
:10408000DEBF0FBECDBFDF91CF911F910895089580
:1040900008950C9448200C9449200E944B20609372
:1040A000D0047093D1048093D2049093D3040C94E1
:1040B000C61C0C944D200F931F930091D0041091B7
:1040C000D1042091D2043091D304602B712B822B28
:1040D000932B1F910F910C944D200F931F930091E0
:1040E000D0041091D1042091D2043091D3046023E4
:1040F0007123822393231F910F910C944D200F93D2
:104100001F930091D0041091D1042091D2043091DA
:10411000D30460277127822793271F910F910C9456
:104120004D200C9448200E9491206093CC04709301
:10413000CD048093CE049093CF040C94C61C60E011
:1041400070E0CB010C9493200F931F9341E050E05B
:1041500060E070E08A019B0104C0000F111F221F64
:10416000331F8A95D2F7C901B8011F910F910C94A2
:1041700093200F931F9341E050E060E070E004C093
:10418000440F551F661F771F8A95D2F78091CC0484
:104190009091CD04A091CE04B091CF048A019B01EF
:1041A000082B192B2A2B3B2BC901B8011F910F910A
:1041B0000C9493200F931F9341E050E060E070E077
:1041C00004C0440F551F661F771F8A95D2F740958C
:1041D0005095609570958091CC049091CD04A091FC
:1041E000CE04B091CF048A019B01082319232A230E
:1041F0003B23C901B8011F910F910C9493200F9399
:104200001F9341E050E060E070E004C0440F551F90
:10421000661F771F8A95D2F78091CC049091CD04C8
:10422000A091CE04B091CF048A019B0108271927E1
:104230002A273B27C901B8011F910F910C949320A5
:104240000F931F930091CC041091CD042091CE04C4
:104250003091CF04602B712B822B932B1F910F91E8
:104260000C9493200F931F930091CC041091CD04D4
:104270002091CE043091CF046023712382239323B5
:104280001F910F910C9493200F931F930091CC04D6
:104290001091CD042091CE043091CF046027712776
:1042A000822793271F910F910C94932008952EE05D
:1042B000929F800D1124E82FE695E695E69587708C
:1042C00051E001C0550F8A95EAF785E0E89FF001BB
:1042D0001124E156FB4F20E030E070E04081CB013B
:1042E000022E02C0969587950A94E2F78170819517
:1042F00084278523842781932F5F3F4F2530310505
:1043000069F708952EE0929F800D1124682F66951D
:1043100066956695982F977085E0689FB001112487
:1043200040E050E080E0FB01E40FF51FE156FB4F59
:10433000208130E0092E02C0369527950A94E2F7D5
:1043400021703327042E01C0220F0A94EAF7822B32
:104350004F5F5F4F4530510531F70895BF92CF92BF
:10436000DF92EF92FF920F931F93CF93DF938C0115
:10437000C090CC04D090CD04E090CE04F090CF0457
:104380008091D0049091D104A091D204B091D30433
:10439000C82AD92AEA2AFB2ACFE1D0E0D701C601F0
:1043A0000C2E04C0B695A795979587950A94D2F7D9
:1043B00080FD04C0219790F7B12C07C0BC2EB80136
:1043C0008C2F0E9434040197A9F38B2DDF91CF919C
:1043D0001F910F91FF90EF90DF90CF90BF900895C5
:1043E000CF93DF93EC010E94AE21BE010E94340402
:1043F000DF91CF9108951F93CF93DF93EB019091BD
:104400006604992321F0CB010E94F02113C0882378
:1044100049F0CB010E94AE21182F682FCE010E94D7
:10442000572104C0CB010E948221182FBE01812F89
:104430000E943404DF91CF911F9108958091D4049C
:1044400085958595859508958091D4048770089504
:104450009091D404977081E009F480E008958091F0
:10446000F80408959091F804892B8093F804089536
:1044700080959091F80489238093F8040895109210
:10448000F80408959091F704892B8093F704089518
:1044900080959091F70489238093F70408951092F2
:1044A000F70408951092F60408958091D5040895B4
:1044B00008950C9458220C9459229091D504981781
:1044C00021F08093D5040C945B2208958091D5044B
:1044D000882329F01092D50480E00C945B22089583
:1044E000E0910D02F0910E028091F8048083E0913A
:1044F0000D02F0910E0290818091F704892B808348
:10450000E0910D02F0910E0290818091F604892BCA
:1045100080838091D504882381F0E0910D02F09191
:104520000E029081892B808380910D0290910E0262
:104530000E94802381110E94662280910D02909139
:104540000E020C9462180C94582298E0899F9001F6
:104550001124262B2093D4040E94B9208091D404E6
:104560008595859585950C94A3221092D40480E0BE
:104570000C94A3222091D404809582238093D404A8
:10458000982F977079F430E0482F082E000C550BC7
:104590002417350739F08595859585950E94DA2091
:1045A0000C94B52208956FEF7FEF80E090E00C94BB
:1045B000413080E090E00E940D3021E08C3E9E4F23
:1045C00009F020E0822F089582E090E00C940530FD
:1045D00083E090E00C940530CF9384E090E00E945B
:1045E0000530C82F81E290E00E9405302C2F30E08A
:1045F000A901582BCA01CF910895CF93C92F682FD5
:1046000084E090E00E9423306C2F81E290E0CF9113
:104610000C942330AB01BC018FE090E00C9435305A
:10462000AB01BC0183E190E00C94353060E070E0B8
:10463000CB010C94102360E070E0CB010E940A23B0
:104640000C9416236CEE7EEF80E090E00E944130E7
:1046500060E082E090E00E94233060E083E090E040
:104660000E9423301092D0041092D1041092D204F0
:104670001092D30460E084E090E00E94233060E078
:1046800081E290E00E94233060E085E090E00E94AB
:10469000233060E086E090E00E9423306FEF87E0F7
:1046A00090E00E94233040E050E0BA0188E090E0C2
:1046B0000E94353060E08DE090E00E94233040E0C1
:1046C00050E0BA0188E190E00E94353060E087E177
:1046D00090E00E94233040E050E0BA018CE190E08D
:1046E0000E94353060E080E290E00E9423300C941C
:1046F0001B230C942223682F8EE090E00C9423302F
:10470000FC01329680912102882331F080910A07C2
:1047100087FF02C09EE101C096E080E0915028F042
:1047200021912223D9F38F5FF9CF0895662351F1A8
:10473000209121022223E9F020910A0727FF19C0C6
:10474000462F4695469546954E31E0F4677021E038
:1047500030E002C0220F331F6A95E2F7FC01E40F3C
:10476000F11D828190E02823392381E0232B69F415
:1047700009C0FC01329608962191621729F0E817CA
:10478000F907D1F780E0089581E008959C01FC01CC
:1047900032969FEF80E04191461789F09F3F19F4D0
:1047A000411101C0982F8F5F8630A9F79F3F39F0E4
:1047B000F901E90FF11D97FDFA95628308950895B7
:1047C0009C012A5F3F4FFC014281461301C01282C7
:1047D000019682179307B9F70895262F26952695F7
:1047E00026952E3168F4FC01E20FF11D677021E07F
:1047F00030E001C0220F6A95EAF78281282B2283DC
:104800000895262F2695269526952E3170F4FC01C5
:10481000E20FF11D677021E030E001C0220F6A95C0
:10482000EAF720958281282322830895209121028E
:10483000222329F020910A0727FD0C94ED230C94E4
:10484000C62320912102222329F020910A0727FD67
:104850000C9401240C94E02320912102FC01329657
:10486000222331F080910A0787FF02C08EE101C048
:1048700086E0DF011D928A95E9F7089508950C946A
:104880003E240C943E24CF930E9441240E9476063D
:104890000E943F24C0E08C2F0E940D06892B29F432
:1048A000CF5FC530C1F780E001C081E0CF910895AE
:1048B0000C943E240E94420380911007843049F1F9
:1048C0001092FA0420E488E190E00FB6F894A895DD
:1048D000809360000FBE2093600080E00E94BF03C1
:1048E0000E94420383B7817F846083BF83B7816066
:1048F00083BF7894889583B78E7F83BF0FB6F89473
:10490000A89580916000886180936000109260009B
:104910000FBE08950E94E01C0E9449180E94BF0328
:104920000C9447031F920F920FB60F9211248F938E
:104930009F93AF93BF938091FA04811113C080912C
:10494000060790910707A0910807B09109074196C3
:10495000A11DB11D8093060790930707A093080738
:10496000B0930907BF91AF919F918F910F900FBEA8
:104970000F901F90189582E084BD93E095BD9AEF4B
:1049800097BD80936E0008952FB7F8948091060725
:1049900090910707A0910807B09109072FBF0895CC
:1049A0002FB7F89460910607709107078091080768
:1049B000909109072FBF08959C014FB7F8948091FB
:1049C000060790910707A0910807B09109074FBF0C
:1049D000821B930B0895CF92DF92EF92FF922FB735
:1049E000F894C0900607D0900707E0900807F09071
:1049F00009072FBFA7019601261B370B480B590B40
:104A0000CA01B901FF90EF90DF90CF90089578949C
:104A10001F920F920FB60F9211248F939F93AF9313
:104A2000BF938091060790910707A0910807B09166
:104A300009070196A11DB11D8093060790930707F2
:104A4000A0930807B0930907BF91AF919F918F91F1
:104A50000F900FBE0F901F90189581E08093E0009B
:104A600080E28093D8001092C9008FE19EE4019704
:104A7000F1F700C0000087E090EBDC01809319079C
:104A800090931A07A0931B07B0931C079CE088E142
:104A90000FB6F894A895809360000FBE90936000C5
:104AA000FFCF0C94D3220E9476068FEB9DE50197F1
:104AB000F1F700C000000E94760680E00E940D061B
:104AC00080FF04C00E9451250C942D2508950E945A
:104AD000D922811102C00E9479230E94E42280938E
:104AE000F9040E94EC2290930B0780930A070E941E
:104AF000E822682F70E080E090E00C9459208091CB
:104B0000020580FF0BC06091140285E0689FB00130
:104B1000112475956795759567952BC081FF09C020
:104B20006091140285E0689FB00111247595679526
:104B300020C082FF07C06091140285E0689FB00129
:104B4000112417C0909101059923D1F060911302AF
:104B5000961788F72091140285E0289F9001112470
:104B6000929FA001939F500D112470E0CA010E94F2
:104B7000352F6038710540F46115710519F406C0D0
:104B800065E070E0862F08958FE7089581E008952D
:104B90008091020580FF08C06091100270E0759559
:104BA00067957595679521C081FF06C060911002D9
:104BB00070E07595679519C082FF04C0609110027E
:104BC00070E010C090910105992399F060910F0257
:104BD0009617A0F780911002899FC001112470E000
:104BE0000E94352F6038710540F46115710519F484
:104BF00006C061E070E0862F08958FE7089581E098
:104C00000895803F21F40E947F25819504C0813F53
:104C100029F40E947F25809306050895823F21F4A0
:104C20000E947F25819504C0833F29F40E947F253F
:104C3000809305050895893F19F40E94C82505C091
:104C40008A3F31F40E94C825819580930705089515
:104C50008B3F21F40E94C825819504C08C3F29F424
:104C60000E94C825809308050895843F21F480910F
:104C70000405816017C0853F21F48091040582609E
:104C800011C0863F21F48091040584600BC0873FEA
:104C900021F480910405886005C0883F31F480913B
:104CA000040580618093040508958D3F21F480916F
:104CB000020581600BC08E3F21F480910205826065
:104CC00005C08F3F29F4809102058460809302051E
:104CD0000895803F39F48091060587FF6CC01092DB
:104CE000060569C0813F29F4809106051816BCF3BA
:104CF00062C090910505823F29F497FF5CC0109235
:104D0000050559C0833F19F41916CCF354C0893FE7
:104D100041F48091070518160CF04DC0109207055C
:104D20004AC08A3F29F48091070587FF44C0F6CF27
:104D30008B3F39F48091080587FF3DC0109208052C
:104D40003AC08C3F29F4809108051816BCF333C093
:104D5000843F21F4809104058E7F17C0853F21F4A4
:104D6000809104058D7F11C0863F21F48091040558
:104D70008B7F0BC0873F21F480910405877F05C09E
:104D8000883F31F4809104058F7E8093040513C021
:104D90008D3F21F4809102058E7F0BC08E3F21F460
:104DA000809102058D7F05C08F3F29F48091020517
:104DB0008B7F809302058091050581110EC0809143
:104DC000060581110AC080910705811106C08091F6
:104DD0000805811102C010920105089583E095E055
:104DE0000E947C180E94C424909300058093FF04C5
:104DF0000895CF93DF9300D000D000D0CDB7DEB7B9
:104E000086E0E3E0F5E0DE01119601900D928A95CF
:104E1000E1F780910505811105C080910605882381
:104E200009F47AC08091FD049091FE040E94DC2474
:104E3000AC0190910105992339F02091150230E0E1
:104E40002417350758F068C0209116028AE0289F81
:104E5000900111242417350718F05EC09F3F19F008
:104E60009F5F9093010510920705109208058091AD
:104E70000505181624F40E947F258093050580916E
:104E8000050587FF05C00E947F2581958093050554
:104E900080910605181624F40E947F25809306054C
:104EA0008091060587FF05C00E947F25819580932C
:104EB0000605309105053323E1F0209106052223F4
:104EC000C1F045EB3403C0011124992319F09093EC
:104ED000050503C081E08093050535EB2303C00180
:104EE0001124992319F09093060503C081E0809363
:104EF00006050E94EE268091FF0490910005909394
:104F0000FE048093FD0486E0FE013196A3E0B5E047
:104F100001900D928A95E1F780910705811105C0F6
:104F200080910805882309F47AC08091FB04909150
:104F3000FC040E94DC24AC0190910105992339F016
:104F40002091110230E02417350758F068C02091F5
:104F500012028AE0289F900111242417350718F0C7
:104F60005EC09F3F19F09F5F909301051092050569
:104F70001092060580910705181624F40E94C82592
:104F8000809307058091070587FF05C00E94C8250B
:104F900081958093070580910805181624F40E94D6
:104FA000C825809308058091080587FF05C00E94E9
:104FB000C825819580930805309107053323E1F0DA
:104FC000209108052223C1F045EB3403C0011124D0
:104FD000992319F09093070503C081E0809307059A
:104FE00035EB2303C0011124992319F09093080590
:104FF00003C081E0809308050E94EE268091FF04A3
:10500000909100059093FC048093FB0486E0FE01E0
:105010003196A3E0B5E001900D928A95E1F72696CE
:105020000FB6F894DEBF0FBECDBFDF91CF910895CC
:10503000E3E0F5E086E0DF011D928A95E9F7109242
:105040000105109202050895809129050895CF93D6
:10505000DF9300D01F92CDB7DEB790911007943048
:1050600019F589837B836A8382E08093E9008FEF5F
:105070009091E800815095FD06C095ED9A95F1F765
:1050800000008111F5CF8091E80085FF0DC040E060
:1050900050E063E070E0CE0101960E94832A809187
:1050A000E8008E778093E8000F900F900F90DF91CB
:1050B000CF910895CF93DF93EC010E94662A82304E
:1050C00011F0843031F4BE0184E0DF91CF910C9473
:1050D0002728DF91CF910895BC0183E00C94272805
:1050E000CF93DF93EC010E94662A823011F0843066
:1050F000F9F482E08093E9008FEF9091E80081500D
:1051000095FD06C095ED9A95F1F700008111F5CF58
:105110008091E80085FF0CC040E050E066E070E060
:10512000CE010E94832A8091E8008E778093E80068
:10513000DF91CF910895CF93DF93EC010E94662A0F
:10514000823011F08430D9F580912102882339F022
:1051500080910A0787FF03C060E282E002C068E036
:1051600081E08093E9008FEF9091E800815095FDF8
:1051700006C095ED9A95F1F700008111F5CF809169
:10518000E80085FF1CC080912102811105C040E02C
:1051900050E068E070E003C070E040E050E0CE0115
:1051A0000E94832A8091E8008E778093E80080E255
:1051B000FE01A9E0B5E001900D928A95E1F7DF913B
:1051C000CF91089580910F07811109C00E94142C7E
:1051D0000E94712C8091E20084608093E200089527
:1051E00010920F070895089508950C948A2442E0C0
:1051F00061EC81E00E948D2B42E261EC82E00C9434
:105200008D2B80911207833009F460C030F4813017
:1052100071F0823009F499C008958A3009F485C08C
:105220008B3009F46BC0893009F0A7C020C0809191
:105230001107813A09F0A1C08091E800877F80932F
:10524000E8008091150790911607892B21F460E200
:1052500089E095E003C060E080E090E070E00E94AB
:10526000CE2A8091E8008B778093E80008958091A2
:105270001107813209F081C08091150790911607BE
:10528000029708F07AC08091E800877F8093E80059
:105290008091E80082FD05C0809110078111F8CF50
:1052A0006CC02091F3008091F20090E0922B029765
:1052B00029F48091F1008B7F813021F48091F100FD
:1052C000809329058091E8008B7753C08091110766
:1052D000813A09F052C08091150790911607892BE9
:1052E00009F04BC08091E800877F8093E8008091AF
:1052F000E80080FFFCCF8091210236C08091110729
:105300008132D9F58091150790911607892BA9F55F
:105310008091E800877F8093E8000E94C22B8091F3
:105320001307809321020C94E01C809111078132B5
:1053300021F58091E800877F8093E8000E94C22BCE
:105340008091140780932A05089580911107813A6E
:10535000A1F48091E800877F8093E8008091E800C5
:1053600080FFFCCF80912A058093F1008091E800B6
:105370008E778093E8000C94C22B089584B7877FC2
:1053800084BF0FB6F894A8958091600088618093DF
:105390006000109260000FBE90E080E80FB6F894B5
:1053A00080936100909361000FBE0E94C6180E9416
:1053B000142C0E94712C8091E20084608093E200A2
:1053C00078940E94062F0E94D01887E192E00E94F4
:1053D000441880911007853069F40E945A24809106
:1053E0000E078823B1F30E944324882391F30E947F
:1053F0006D2AEFCF0E94D818ECCF0C94FF29292FEB
:10540000332723303105C9F060F42130310581F0B4
:105410002230310509F04AC08BE390E028EA34E0FD
:1054200049C02132310511F12232310579F13EC0F6
:1054300082E190E023EE34E03DC099278130910570
:1054400061F040F08230910559F0039779F5ECE76F
:10545000F4E008C0E4EAF4E005C0E4E9F4E002C0E6
:10546000E2E8F4E0849190E09F0124C061157105A9
:1054700041F061307105D1F489E090E023ED34E032
:1054800019C089E090E02AEB34E014C06115710581
:1054900041F06130710551F48CEB90E025EF34E080
:1054A00009C080E490E021EB35E004C080E090E0AA
:1054B00020E030E0FA0131832083089580911007C5
:1054C000843011F081E0089582E0089580912B05E9
:1054D000811102C00C945E2A089580E189BD82E1A9
:1054E00089BD09B400FEFDCF8091D8008F7D8093E7
:1054F000D8008091E00082608093E0008091E0001D
:1055000081FDFCCF0895CF92DF92EF92FF920F932F
:105510001F93CF93DF93EC018B017A010E94E12B63
:10552000811133C0E114F10439F0F70180819181D8
:10553000081B190BC80FD91FC12CD12C011511053F
:1055400019F18091E80085FD16C08091E8008E7702
:105550008093E800E114F10449F0F7018081918122
:10556000C80ED91ED182C08285E00FC00E94E12BF7
:10557000882321F30AC089918093F1000150110919
:10558000FFEFCF1ADF0ADACF80E0DF91CF911F91D2
:105590000F91FF90EF90DF90CF9008952091170723
:1055A000309118072617370748F06115710539F44F
:1055B0002091E8002E772093E80001C0B901FC019A
:1055C00020E06115710579F1809110078823F1F1D0
:1055D0008530F1F18091E80083FD3CC08091E800C6
:1055E00082FD2EC08091E80080FFEBCF2091F30078
:1055F0008091F20090E0922B6115710551F0883096
:10560000910538F421912093F100615071090196C0
:10561000F3CF21E0089709F020E08091E8008E7731
:105620008093E800CECF2111CFCF0AC08091100720
:10563000882361F0853061F08091E80083FD0AC025
:105640008091E80082FFF2CF80E0089582E0089523
:1056500083E0089581E0089520911707309118079D
:105660002617370748F06115710539F42091E800D5
:105670002E772093E80001C0B901FC0120E06115FC
:10568000710591F180911007882309F440C085309D
:1056900009F43FC08091E80083FD3DC08091E8009F
:1056A00082FD2FC08091E80080FFE9CF2091F300B8
:1056B0008091F20090E0922B6115710559F08830CD
:1056C000910540F424912093F100319661507109C5
:1056D0000196F2CF21E0089709F020E08091E800E0
:1056E0008E778093E800CBCF2111CCCF0AC0809178
:1056F0001007882361F0853061F08091E80083FD18
:105700000AC08091E80082FFF2CF80E0089582E035
:10571000089583E0089581E00895982F973068F503
:105720009093E900981739F07091EC002091ED000A
:105730005091F00003C0242F762F50E021FD02C0CD
:105740009F5FECCF3091EB003E7F3093EB003091C8
:10575000ED003D7F3093ED003091EB0031603093F0
:10576000EB007093EC002093ED005093F00020913B
:10577000EE0027FDE5CF80E008958F708093E9006B
:1057800081E008958091110787FF11C08091E800A2
:1057900082FD05C0809110078111F8CF11C0809162
:1057A000E8008B770BC080911007882349F0809127
:1057B000E80080FFF8CF8091E8008E778093E800C2
:1057C00008952091E4003091E50095E64091EC00C9
:1057D000842F817040FF23C08091E80080FD1DC0B0
:1057E00080911007882399F0853099F08091EB0023
:1057F00085FD11C04091E4005091E5002417350764
:1058000029F3915011F09A01E1CF84E0089582E0EC
:10581000089583E0089581E0089580E0089540911F
:10582000E80042FFDDCF08950E94822C0E948A2C5E
:10583000E0EEF0E0808181608083E8EDF0E080813F
:105840008F77808319BCA7EDB0E08C918E7F8C930D
:1058500080818F7E808310920F0708950F931F938E
:10586000CF93DF930E94822C0E948A2CC8EDD0E057
:1058700088818F77888388818068888388818F7DFD
:10588000888319BC1092100710920C0710920E0713
:1058900010920D0700EE10E0F80180818B7F80836D
:1058A00088818160888342E060E080E00E948D2BE7
:1058B000E1EEF0E080818E7F8083E2EEF0E0808197
:1058C00081608083808188608083F80180818E7F01
:1058D0008083888180618883DF91CF911F910F91B0
:1058E0000895E8EDF0E080818F7E8083E7EDF0E0C1
:1058F00080818160808384E082BF81E080930F0794
:105900000C942E2CE8EDF0E080818E7F8083109245
:10591000E20008951092DA001092E10008951F92BB
:105920000F920FB60F9211242F933F934F935F93D3
:105930006F937F938F939F93AF93BF93EF93FF9357
:105940008091E10082FF0BC08091E20082FF07C0DE
:105950008091E1008B7F8093E1000E94052F809170
:10596000DA0080FF1FC08091D80080FF1BC08091AB
:10597000DA008E7F8093DA008091D90080FF0DC01D
:1059800080E189BD82E189BD09B400FEFDCF81E0DF
:10599000809310070E94E22805C019BC10921007DE
:1059A0000E94F0288091E10080FF19C08091E20000
:1059B00080FF15C08091E2008E7F8093E20080918D
:1059C000E20080618093E2008091D8008062809341
:1059D000D80019BC85E0809310070E94F4288091BC
:1059E000E10084FF30C08091E20084FF2CC080E1A0
:1059F00089BD82E189BD09B400FEFDCF8091D80048
:105A00008F7D8093D8008091E1008F7E8093E100AC
:105A10008091E2008F7E8093E2008091E2008160BD
:105A20008093E20080910C07882311F084E007C086
:105A30008091E30087FD02C081E001C083E0809394
:105A400010070E94F5288091E10083FF29C0809112
:105A5000E20083FF25C08091E100877F8093E10011
:105A600082E08093100710920C078091E1008E7FF6
:105A70008093E1008091E2008E7F8093E20080912C
:105A8000E20080618093E20042E060E080E00E94FA
:105A90008D2B8091F00088608093F0000E94F328A5
:105AA000FF91EF91BF91AF919F918F917F916F91F6
:105AB0005F914F913F912F910F900FBE0F901F90CC
:105AC00018951F920F920FB60F9211242F933F93A8
:105AD0004F935F936F937F938F939F93AF93BF93F6
