:100000000C9421030C9459030C9459030C94590338
:100010000C9459030C9459030C9459030C945903F0
:100020000C9459030C9459030C94AF300C94833105
:100030000C94642B0C9459030C9459030C9459039D
:100040000C9459030C9459030C9459030C945903C0
:100050000C9459030C94072C0C9459030C945903D9
:100060000C9459030C9459030C9459030C945903A0
:100070000C9459030C9459030C9459030C94590390
:100080000C9459030C9459030C9459030C94590380
:100090000C9459030C9459030C9459030C94590370
:1000A0000C9459030C9459030C94590300AD9DBD55
:1000B00000AC9CBC00AB9BBB00AA9ABA00A999B942
:1000C00000A898B800A797B700A696B600A595B562
:1000D00000A494B400A393B300A292B200A191B182
:1000E00000A090B0007D6D8D007C6C8C007B6B8BD4
:1000F000007A6A8A0079698900786888007767875A
:100100000076668600756585007464840073638379
:10011000007262820071618100706080004D3D5DFF
:10012000004B3B5B004A3A5A00493959004838585D
:10013000004737570046365600453555004434547D
:10014000004333530042325200413151004030509D
:10015000001D0D2D001C0C2C001A0A2A001909295B
:100160000018082800170727001606260015052581
:1001700000140424001303230012022200110121A1
:1001800000100020001E0E2E004C3C5C001B0B2BB0
:10019000004E3E5E007E6E8E001F0F2F004F3F5FB1
:1001A000007F6F8F00AF9FBF165C1E001F002000F6
:1001B00021002200230024002500260027002D0016
:1001C0002E002A002B0014001A000800150017004A
:1001D0001C0018000C00120013002F00300031002A
:1001E000396104001600070009000A000B000D0029
:1001F0000E000F003300340000002800E1001D0055
:100200001B00060019000500110010003600370021
:100210003872520000004C42E000E3001459000024
:1002200000002C0000000000E600015150005100C9
:1002300000004F0013503A003B003C003D003E00E0
:100240003F004000410042004300440045004C0094
:10025000010001005200010001000100B200010094
:1002600049000100460047004800005C01005000C2
:1002700051004F00010001000100010001000100D8
:100280004A004B000000DF5C01000100010001009A
:1002900001000100145C010001004D004E00A900A6
:1002A0000000A800010001000100000000000100A2
:1002B0000000000001000100AC00AA000000AB003B
:1002C00001003A003B003C003D003E003F00400082
:1002D000410042004300440045004C000100C35C63
:1002E0000100C65CC75CC85CC95CCA5CCB5CC45C12
:1002F000010001000100005C01000100010001009B
:100300000100010001000100CC5CCD5C0100010096
:100310000000DF5C0100010001000100010001009C
:1003200001000100010001000100010000000100C6
:1003300001000100010000000000010000000000B9
:100340000100010001000100000001005300540001
:100350005500560057000100010001000100540043
:10036000550056005700010001005F006000610069
:1003700001000100010001005F0060006100010058
:100380000100105001005C005D005E0001000100F2
:10039000010001005C005D005E00010000005800EB
:1003A000010059005A005B0001000100010001003A
:1003B00059005A005B0001000000010001006200CA
:1003C00063000000000058000000000062006300AD
:1003D0000100010000000100000101010101010113
:1003E00001010202020202020202020303030303EA
:1003F00003030304040404040404050505050506B9
:100400000606060607070707070808080809090976
:10041000090A0A0A0B0B0B0C0C0C0D0D0D0E0E0E1F
:100420000F0F0F10101111111212131314141515B0
:1004300016161717181819191A1A1B1B1C1D1D1E22
:100440001E1F202021222223242425262627282976
:10045000292A2B2C2D2D2E2F3031323233343536A4
:100460003738393A3B3C3D3E3F40414243444546A4
:100470004748494A4C4D4E4F505153545556585980
:100480005A5B5D5E5F616264656668696B6C6D6F27
:100490007072737577787A7B7D7E8082838587889A
:1004A0008A8C8E8F91939596989A9C9EA0A2A3A5D4
:1004B000A7A9ABADAFB1B3B5B7BABCBEC0C2C4C6D5
:1004C000C9CBCDCFD1D4D6D8DBDDDFE2E4E7E9EB91
:1004D000EEF0F3F5F8FAFDFF100344005A00360081
:1004E000300052004700420000000E0344005A0052
:1004F00054004500430048000000040309040902B9
:100500003B00020100A0FA09040000010301010000
:1005100009211101000122400007058103080001A3
:10052000090401000103000000092111010001225A
:10053000B60007058203200001120100020000003E
:10054000085A44211102000102000105010902A11B
:100550000185020901A100050919012908150025D5
:1005600001950875018102050109300931158125C0
:100570007F95027508810609381581257F950175DB
:10058000088106050C0A38021581257F950175083A
:100590008106C0C005010980A101850319012AB7A0
:1005A00000150126B700950175108100C0050C09E2
:1005B00001A101850419012AA002150126A00295B6
:1005C0000175108100C005010906A1018506050716
:1005D00019E029E715002501950875018102050735
:1005E000190029EF1500250195F075018102050814
:1005F0001901290595057501910295017503910170
:10060000C005010906A101050719E029E715002524
:100610000195087501810295017508810105071989
:100620000029FF150026FF009506750881000508C2
:10063000190129059505750191029501750391012F
:10064000C00011241FBECFEFDAE0DEBFCDBF04B67D
:1006500003FE18C08091860690918706A0918806B7
:10066000B09189068730904BA740B04B59F4109257
:100670008606109287061092880610928906E0E09E
:10068000F8E3099512E0A0E0B1E0EAEEF9E602C075
:1006900005900D92AE3AB107D9F726E0AEEAB2E086
:1006A00001C01D92A638B207E1F70E94C0120C9457
:1006B000BF340C94000081E00E9471230E94452BFE
:1006C000089580E00E9471230E94442B08950E94A7
:1006D000012A81FF07C02FEF4FEF6FEF88E290E014
:1006E0000E945719089581E0089581E008950E94BD
:1006F0007503089508950E947A030895A5E0B0E077
:10070000E4E8F3E00C94A83349835A833091B102B2
:1007100089819A81311119C0662399F0222389F0C9
:100720000E949C09182F682F89819A810E9478095C
:1007300069817A81812F0E942B102596E3E00C9429
:10074000C4330E948A09182FF3CF0E949C09698143
:100750007A81F1CFFC01262F408151816281738122
:1007600084810E947E03089581E00895CF93DF93F2
:10077000EC0160E00E94AA03BE010E947B03DF91AE
:10078000CF9108950E94671108950E946B110895FA
:1007900008950E94C7070E94C8032FEF84E39CE0DE
:1007A000215080409040E1F700C0000008950E9471
:1007B000C9030E942B2C08950E94C9030E944F2C4C
:1007C00008950F931F93CF93DF938C0161E00E94F4
:1007D000AA03EC01B8010E947703811106C080E0F2
:1007E000DF91CF911F910F910895B801CE010E9422
:1007F000D4288823A1F3B801CE010E9409278823B9
:1008000071F3B801CE010E944628882341F3B80154
:10081000CE010E947126882311F3F801828188237A
:1008200061F0CB35FDE5DF0701F158F4C115ECE5CA
:10083000DE0791F0CF3DDC4591F0C8010E947303C3
:10084000CFCFCD358DE5D80769F090F0C83ADD45BA
:10085000A1F70E94DC03C3CF0E94D703C0CF0E9440
:10086000620EF7CF0E949C0DE8CF0E94A60DE5CF47
:100870000E94AA0DE2CF0E945B030E9455220E94B3
:10088000600481E00E94712308950E94640480E066
:100890000E9471230E946103089508950E944D04EF
:1008A000089581E008950E94510408950895CF931A
:1008B000C82F0E944E048C2F0E945304CF9108959C
:1008C00080E00E94570408950E94F4290E94570472
:1008D00008950E94F4299091B002981721F0809316
:1008E000B0020E9457040895ABE0B0E0EAE7F4E0FC
:1008F0000C94A9334F83588769877A878B87611156
:100900000E94E70C1E821D8285E0FE013796DE0103
:10091000119601900D928A95E1F78C819D81892B2A
:1009200061F449815A816B817C818D819E810E9415
:10093000100C2B96E2E00C94C53389819A818923AF
:100940008F3F79F3CE0101960E94B4038111E9CF64
:10095000F0CFFC01808191810E94D6090895CF9348
:10096000C82F8823B9F08CEF8C0F813AA8F46C2F34
:1009700080910702909108020E946C2A882329F036
:100980008C2F0E94A70C0E94080D8C2F0E949F0C98
:100990000E94080DCF91089580E28C0F883048F4B2
:1009A000C77081E001C0880FCA95EAF70E94CA0C9F
:1009B000EFCFEBE5EC0FE33040F4F0E0E95AFD4F08
:1009C000808190E00E942C2AE5CFE8E5EC0FE7312A
:1009D00050F4F0E0EE0FFF1FE75DFD4F8081918145
:1009E0000E94422AD7CFCD3EA8F28C2F0E944413FA
:1009F0000E941714CFCF882379F19CEF980F913A7A
:100A000028F40E94A70C0E94080D089590E2980F08
:100A1000983050F4877091E001C0990F8A95EAF7F9
:100A2000892F0E94D00CEFCF9BE5980F933028F4CC
:100A300090E080E00E942C2A089598E5980F973165
:100A400028F490E080E00E94422A08958D3E20F034
:100A50000E949E130E94171408951F93CF93DF9353
:100A6000182FEB010E94AF04209739F4812F0E94C8
:100A7000FB04DF91CF911F9108958FE99FE00197CB
:100A8000F1F700C000002197EFCF70E060E08933FC
:100A900011F460E570E00E942D050895882321F08F
:100AA0000E94CA0C0E94080D0895882321F00E941C
:100AB000D00C0E94080D0895B0E0A0E0E2E6F5E059
:100AC0000C94A2336C01D62FC72FFC011281F58044
:100AD000F2949FE0F9220E94C00CE82E8823B9F01E
:100AE000E12E1123A1F08C2F807F803421F080E251
:100AF0008D0F8830D0F08091590582FF16C082E0BA
:100B00000E946B0D0E94C00C91E0E82EE926BC2EDD
:100B1000B2948FE0B822FBE0FB1508F468C0EB2D1F
:100B2000F0E0EF53FB4C0C949333E12CF0CF0C2FFF
:100B30000F70C07F11F00295007F112399F0002300
:100B400059F080E28D0F883010F0D11107C0802F4E
:100B50000E94CA0C0E94080D8D2F41C0802F0E9458
:100B6000DA0CF8CF8D2F0E94FB04002309F43FC05C
:100B700080E28D0F883010F0D11104C0802F0E94C8
:100B8000D00C03C0802F0E94E00C0E94080D2FC0E3
:100B90000C2F0F70C07FC03211F00295007FDD2353
:100BA00081F0D13009F463C0112309F46DC0FF2036
:100BB00009F463C0F601858180FFCECF8F708583F5
:100BC0005CC08091590582FD33C0112359F0002388
:100BD00029F0802F0E94CA0C0E94080D80E00E941C
:100BE000AF0405C080E00E94FB040111C7CFEB2DCC
:100BF000E850FF0B349720F40E94F4290E94570418
:100C0000EE2089F00E94BC0C80FD0DC0F60112821E
:100C10000E94B60C0E948008C6010E9487070E94AD
:100C2000B60C0E94A208CDB7DEB7E9E00C94BE3343
:100C3000112389F0F11006C00E94EA0C802B0E945B
:100C40004E05D5CF21E0F212F7CF0E94EA0C802B9F
:100C50000E94F10CCCCFF11006C00E94FE0C802F38
:100C60000E945505C4CF31E0F31609F2F6CF1123E7
:100C700031F085E08F1508F4BACF802FE0CF94E0F3
:100C80009F1508F4B4CFEBCFFF2049F3D93349F4D3
:100C9000FFEF27EE33E0F15020403040E1F700C095
:100CA00000008D2F0E94FB04A2CF8C2F8695869585
:100CB000837069F0813009F09ACF8D2F9C2F93704B
:100CC000111102C090E080E00E94422A90CF8D2F47
:100CD0009C2F9370111102C090E080E00E942C2A9A
:100CE00086CF8D2F112329F00E9444130E941714E0
:100CF0007ECF0E949E13FACF8C2F837009F041C0E3
:100D0000111175CF4D2F429546954770440F440FF2
:100D10000D2F0F7010E030E020E0042E04C0000F13
:100D2000111F221F331F0A94D2F760E070E0CB013D
:100D3000D4FF0FC06FE070E080E090E004C0660F69
:100D4000771F881F991F4A95D2F7609570958095F7
:100D50009095C695C695C370602B712B822B932BF3
:100D6000C23049F058F4C13019F00E942B083FCF2F
:100D70000E9418083CCF0E943E0839CF0E941508F7
:100D800036CF8695112311F08C2F8170882309F4BA
:100D90002ECF4D2F429546954770440F440F0D2F8F
:100DA0000F7010E030E020E0042E04C0000F111F8F
:100DB000221F331F0A94D2F760E070E0CB01D4FF0A
:100DC0000FC06FE070E080E090E004C0660F771F16
:100DD000881F991F4A95D2F76095709580959095D8
:100DE000C695C695C370602B712B822B932BC23096
:100DF00049F058F4C13019F00E94FB08F8CE0E9467
:100E0000E808F5CE0E940E09F2CE0E945708EFCEF8
:100E1000CF70112329F08C2F0E9480088D2F0FCFC7
:100E20008D2F0E9455058C2F0E94A208E0CED23F44
:100E300051F160F4D03FB9F0D13F81F0112309F4B2
:100E400049C0F11089CE8C2F8F7121C0D33F11F191
:100E5000D43FA1F78091590582FD26C08C2F8F7158
:100E6000112311F314C0112349F084E08F1508F405
:100E7000BECE8C2F8F710E94C608B9CE95E09F150B
:100E800008F4B5CEF6CF8C2F8F711111CDCF0E9403
:100E90008008ADCE112329F08C2F8F710E946A0833
:100EA000A6CE0E946408A3CE112349F0CF718C2FE7
:100EB0000E94800863E08C2F0E944D0D98CE81E047
:100EC0000E946B0DE1E0EF1508F091CE82E00E94E8
:100ED0006B0D8DCEF110DACE8C2F8F71A5CF0F93C5
:100EE0001F93CF93DF93EC01688179818A810E94FF
:100EF000E1098C010E9421090E941408B801CE0169
:100F00000E945C05DF91CF911F910F910895CF93BF
:100F1000DF93EC018B819C81892B29F08881998159
:100F200089238F3F51F4DF91CF910895CE010E9424
:100F30006F07CE010E94B603F6CFCE010E94E103F7
:100F40008111F4CF0E94C00C882369F38A81882321
:100F500051F38091590582FFE6CF82E00E946B0D2C
:100F6000E2CF90E080E00E942C2A90E080E00E9496
:100F7000422A0E94E70C0E94080D0E9433140E942E
:100F8000171408950E94AF0C0E94B10708950E94A3
:100F9000D70C0E94C207089592959F70963091F0E9
:100FA00058F4925F9F70923058F4803F19F030F4FB
:100FB000883E30F481E008959A5FF4CF843FD1F306
:100FC00080E00895883EB0F3813FD1F7F3CFFC0174
:100FD000808191810E94D6090E94CC070895A5E0E6
:100FE000B0E0E5EFF7E00C94A9332596E2E00C942D
:100FF000C533A6E0B0E0EFEFF7E00C94A9332696F6
:10100000E2E00C94C53308950E94030808950E94FD
:1010100004086093E3027093E4028093E5029093E6
:10102000E6020E94B107089508950E9407080895F6
:101030000F931F930091E3021091E4022091E502C7
:101040003091E602602B712B822B932B0E940708B4
:101050001F910F9108950F931F930091E302109138
:10106000E4022091E5023091E6026023712382239D
:1010700093230E9407081F910F9108950F931F93C8
:101080000091E3021091E4022091E5023091E60222
:1010900060277127822793270E9407081F910F91CD
:1010A00008950E94030808950E94510808950E941F
:1010B00054086093DF027093E0028093E102909302
:1010C000E2020E94B107089560E070E0CB010E9447
:1010D000570808950F931F9341E050E060E070E0DF
:1010E0008A019B0104C0000F111F221F331F8A9524
:1010F000D2F7C901B8010E9457081F910F910895B6
:101100000F931F9341E050E060E070E004C0440F93
:10111000551F661F771F8A95D2F78091DF02909145
:10112000E002A091E102B091E2028A019B01082B4A
:10113000192B2A2B3B2BC901B8010E9457081F917C
:101140000F9108950F931F9341E050E060E070E02D
:1011500004C0440F551F661F771F8A95D2F7CB0135
:10116000BA0160957095809590950091DF0210917D
:10117000E0022091E1023091E20260237123822398
:1011800093230E9457081F910F9108950F931F9367
:1011900041E050E060E070E004C0440F551F661F5E
:1011A000771F8A95D2F78091DF029091E002A0919B
:1011B000E102B091E2028A019B01082719272A2740
:1011C0003B27C901B8010E9457081F910F9108954C
:1011D0000F931F930091DF021091E0022091E10232
:1011E0003091E202602B712B822B932B0E945708C7
:1011F0001F910F9108950F931F930091DF0210919B
:10120000E0022091E1023091E20260237123822307
:1012100093230E9457081F910F9108950F931F93D6
:101220000091DF021091E0022091E1023091E20290
:1012300060277127822793270E9457081F910F91DB
:1012400008950895262F277091E001C0990F2A95DF
:10125000EAF723E0769567952A95E1F725E0269F42
:10126000F001279FF00D1124E40FF51F50E040E03E
:10127000682F70E08191DF0111979B01042E02C05D
:10128000369527950A94E2F721702195282729237E
:1012900028272C934F5F5F4F4530510559F708952C
:1012A000A82FA77023E0969587952A95E1F725E06A
:1012B000289FF001299FF00D1124E60FF71F50E041
:1012C00040E080E0219130E00A2E02C0369527955B
:1012D0000A94E2F721703327042E01C0220F0A94EA
:1012E000EAF7822B4F5F5F4F4530510559F708955C
:1012F000262F953070F48E3060F4682F70E08EE009
:10130000989F600D711D112442EB52E0822F0E94C4
:1013100022090895292F953068F48E3058F490E012
:1013200062EB72E03EE0239F800D911D11240E942C
:101330005009089580E00895B0E0A0E0E2EAF9E005
:101340000C94A2338C01C090DF02D090E002E090B8
:10135000E102F090E2028091E3029091E402A09118
:10136000E502B091E602C82AD92AEA2AFB2ACFE18F
:10137000D0E0BC2ED701C6010C2E04C0B695A795AF
:10138000979587950A94D2F780FD09C0219788F731
:10139000B12C8B2DCDB7DEB7E9E00C94BE33B8018C
:1013A0008C2F0E944610019789F3F3CFCF93DF93E0
:1013B000EC010E949C09BE010E944610DF91CF9172
:1013C00008951F93CF93DF93EB019091B10299237E
:1013D00039F0CB010E94D609DF91CF911F9108957A
:1013E000882369F0CB010E949C09182F682FCE0139
:1013F0000E947809BE01812F0E944610EDCFCB01DB
:101400000E948A09182FF6CF1F93CF93DF93C091C4
:10141000E70216E08091E8028C1304C0DF91CF91BF
:101420001F910895D0E01C9FF0011D9FF00D112425
:10143000E751FD4F408151816281738184819581A3
:101440000E94F9072196C770E5CF4091190350918A
:101450001A0360911B0370911C0380911D039091EE
:101460001E030E94F90708951F93CF93DF93809185
:101470001E03807F09F049C080911B03882309F473
:1014800044C08091E702C091E80260911903709115
:101490001A03A0911C03B0911D03D62FD72316E089
:1014A000C81799F190E0109711F0DF3F19F40196F9
:1014B0008770F6CF189F9001199F300D1124F90104
:1014C000E751FD4F41814713F2CF40814613EFCFE3
:1014D00042814111ECCF438154814A1B5B0B483C54
:1014E000510528F780911E038F70806180931E0341
:1014F000F901E251FD4F80818F708061808389E125
:1015000093E00E9487070E94040ADF91CF911F9108
:101510000895A1E1B0E0EFE8FAE00C94A1338C016A
:1015200085E0F801DE011D9601900D928A95E1F7A4
:10153000F801E28089E1C82E83E0D82E60911C0377
:1015400070911D036115710509F44EC19091190345
:1015500020911A03892F82238F3F09F445C14081CE
:101560005181A380B480F0901B03F501E61BF70BBB
:10157000FF2009F4EAC080911E03382F307FE83C39
:10158000F10508F0A3C031116DC0FE2C251316C063
:10159000941314C0E11012C08F70806180931E03F9
:1015A0000E94250AC6010E94870780911E03F80148
:1015B00085838F2D6196EAE00C94BD33A114B104AC
:1015C00029F0842F85238F3F09F027C180E0F82F71
:1015D000F170DF2E80FF3CC08091E7022091E8028D
:1015E00036E0821315C04D875E878D859E850E94EB
:1015F000D609292F22952F702230F0F0243018F5CB
:101600009F70F1F0F8019581907FD1F4D12C1EC02C
:1016100090E0389FF001399FF00D1124E751FD4F04
:101620006181651306C06081641303C06281E612A4
:101630000FC001968770D5CF9F7011F0882331F3CA
:10164000805E883018F3C8010E948707FD2CB1CF57
:10165000EE2009F4AECF80911E03816080931E03BB
:10166000F12CA7CF251306C0941304C0F801EE2077
:1016700009F487C0C8010E94E707882319F1EE200A
:1016800009F180911E03803270F02091190330918E
:101690001A0338872F831986BB86AA868C87CE01CA
:1016A00007960E94870786E0F801A9E1B3E0019060
:1016B0000D928A95E1F70E94340A0E94250AFF24C0
:1016C000F39477CFC8010E948707F9CF311113C077
:1016D0007A2DB98AA88A6E2D89890E94EF0789E13F
:1016E00093E00E94870786E0F60111928A95E9F758
:1016F0000E94250AB5CF25130FC094130DC0E11029
:101700000BC0F8018583C8010E94870786E0F601B7
:1017100011928A95E9F74DCFC8010E94E707882307
:1017200089F2EE2079F280911E03803208F4BBCF5B
:101730002091190330911A033A8329831B82BD82B9
:10174000AC828E83CE010196ACCFE83CF10508F067
:101750003EC0FE2CEE2009F4B5CF25132AC0941309
:1017600028C080911E0380FD1BC0982F907FC1F080
:10177000F8018583903F31F0982F907F905F8F70B4
:10178000892B8583C8010E94870786E0F801A9E1BB
:10179000B3E001900D928A95E1F70E94250A09CFE6
:1017A00086E0F801A9E1B3E001900D928A95E1F796
:1017B00000CFC8010E94E707811175CF80911E03F9
:1017C000816080931E03C8010E948707F2CE7A2DA4
:1017D000B98AA88A6E2D89890E94EF0786E0F601F2
:1017E00011928A95E9F7D9CFEE2009F46BCFC801A1
:1017F0000E94E707F82E882309F464CF86E0F801F9
:10180000A9E1B3E001900D928A95E1F789E193E0B7
:101810000E94A9040E94340AC0CF81E08E25D7CE51
:10182000ACE0B0E0E6E1FCE00C94A8334F835887CD
:1018300069877A878B879C87CE0107960E94890AE1
:10184000882369F08A859B85892B39F04F815885DB
:10185000842F85238F3F09F06BC016E05FC086E0C0
:10186000FE013796DE01119601900D928A95E1F7FF
:101870008A859B85892B89F388859F8189238F3F62
:1018800061F32091E80230E0C90101968770992741
:101890004091E7024817190671F40E94C707109299
:1018A000E8021092E70286E0E9E1F3E0DF011D9231
:1018B0008A95E9F7D2CF96E0929FD001939FB00D21
:1018C0001124A751BD4FFE01319601900D929A95BA
:1018D000E1F78093E8020E94040ABFCF819FC00114
:1018E000112487519D4F0E94890A8823E9F0E091D5
:1018F000E7021E9FF0011124E751FD4F4081518105
:1019000062817381848195810E94F9078091E70249
:1019100090E00196877099278093E7028091E70213
:101920009091E8028913DACF2C96E3E00C94C4334B
:1019300069857A858B859C850E94F9078ECF682FF3
:1019400080910702909108020E94EC2A0895682F66
:1019500080910702909108020E94FA2A08958091CE
:101960000702909108020E94082B089580913F037E
:10197000859585958595089580913F038770089595
:1019800090913F03977081E009F480E00895809181
:101990006203089590916203892B809362030895F6
:1019A000809590916203982390936203089510921A
:1019B0006203089590916103892B809361030895D8
:1019C00080959091610398239093610308951092FC
:1019D0006103089580914003089508950E94ED0CDD
:1019E00008959091590592FF08C09091400398176F
:1019F00021F0809340030E94EE0C089580914003F3
:101A0000882329F01092400380E00E94EE0C089594
:101A1000CF93DF93E0910702F09108028091620377
:101A20008083E0910702F091080280819091610328
:101A3000892B808390914003992381F0E0910702E4
:101A4000F09108028081892B808380910702909118
:101A500008020E94582A81110E94FE0CC0910702C0
:101A6000D091080240E250E06FE173E0CE010E94A5
:101A70003534892B59F080E2FE01AFE1B3E00190EB
:101A80000D928A95E1F7CE010E94042ADF91CF9151
:101A9000089508950E94490D08959091590592FF67
:101AA00011C098E0899F90011124622B60933F033D
:101AB0000E94800880913F038595859585950E94B9
:101AC0004A0D08950E948008089510923F0380E017
:101AD0000E944A0D089590913F0380958923809339
:101AE0003F03282F277091F4282F082E000C330B6A
:101AF0009217130659F09091590592FF07C08595EA
:101B0000859585950E94A2080E94650D0895909183
:101B1000590592FB222720F9281769F080FB92F9DA
:101B20009093590580915805909159050E94D80DC0
:101B300082E00E946B0D08958091590582FB8827F1
:101B400080F991E089270E94870D089581E00E9425
:101B5000870D089580E00E94870D08956FEF7FEF55
:101B600090E080E00E949734089590E080E00E9429
:101B7000633421E0883E9E4F09F020E0822F0895D3
:101B800082E090E00E945B34089583E090E00E9440
:101B90005B340895CF9384E090E00E945B34C82FBB
:101BA00082E290E00E945B34982F8C2FCF910895B1
:101BB000CF93C92F682F84E090E00E9479346C2F76
:101BC00082E290E00E947934CF910895AB01BC018C
:101BD0008FE090E00E948B340895AB01BC0183E15B
:101BE00090E00E948B34089560E070E0CB010E9489
:101BF000ED0D089560E070E0CB010E94E60D0E94BB
:101C0000F40D089568EE7EEF90E080E00E94973436
:101C100060E082E090E00E94793460E083E090E050
:101C20000E9479341092E3021092E4021092E502CD
:101C30001092E60260E084E090E00E94793464E073
:101C400082E290E00E94793460E085E090E00E94BA
:101C5000793460E086E090E00E9479346FEF87E0AD
:101C600090E00E94793440E050E0BA0188E090E0D2
:101C70000E948B3460E08DE090E00E94793440E077
:101C800050E0BA0188E190E00E948B3460E087E187
:101C900090E00E94793440E050E0BA018CE190E09D
:101CA0000E948B3470E060E080E290E00E94973404
:101CB00040E050E0BA0188E190E00E948B340E943D
:101CC000FA0D08950E94020E0895682F8EE090E0AC
:101CD0000E94793408950E94D02B60937103709311
:101CE0007203809373039093740360936D037093F6
:101CF0006E0380936F039093700308950895089581
:101D00000E947F0E089508950E94830E089585E233
:101D100091E10E94EA290E947E0E0E94800E0895A1
:101D200081E008950E94900E0895089508950E94FC
:101D3000950E0E94960E08950E9441110E9456042D
:101D40000E940D2308950E94BB2B0E9427120E941F
:101D50009C0E0E94840E0895AAE0B0E0E2EBFEE043
:101D60000C949C330E943D12E82E81110E946B0E50
:101D700033E6832E33E0932E10E000E0502E802FC8
:101D80000E946E115C01F401619071904F01681620
:101D90007906B1F40F5F1F4F0530110579F78FEF0A
:101DA00089838A831B820E94C42B8160782F9D8344
:101DB0008C8349815A816B818D810E9474043BC060
:101DC0008091750381FD0E947711F12CCC24C3947E
:101DD000D12C6A247B24C3018C219D21892B99F16C
:101DE0000E94920E95012C213D21BB24B394232BFC
:101DF00009F4B12C882379F0FE825F82B8860E94B4
:101E0000C42B8160782F9A8789874E815F8168858E
:101E10008A850E947404000F111FF801ED59FC4FD0
:101E200080819181C826D926D182C0824B2D6F2D09
:101E3000852D0E94D01E81E0E11001C080E02A962D
:101E4000EFE00C94B833F394CC0CDD1CFEE0FF12F1
:101E5000C2CFA0CF0E94AC0E0E9455220E94551402
:101E60000E9469040895CF93DF930E944B10EC0108
:101E7000811521E5920708F042C0811530E59307EE
:101E800008F09DC0883E910530F5803E910508F030
:101E900092C0883A910588F4853A910508F084C08B
:101EA0008130910509F487C0009709F484C0049734
:101EB00008F081C0D0E0C0E07EC08F3B9105D0F734
:101EC000C85AD0E0CC0FDD1FC65ADD4F0990D8812B
:101ED000C02DD46470C08115904250F4C11581E0CA
:101EE000D80708F068C0CD3ED10520F3D06563C0A7
:101EF000C11590E4D907F0F2DF70D06A5CC081159B
:101F000025E5920700F5811534E5930708F08BC0AD
:101F1000811543E5940708F073C0C11582E5D80721
:101F200008F469C0CE018370992721E030E002C037
:101F3000220F331F8A95E2F7C695C69580E2C89FA7
:101F4000E001112454C0C11599E5D907A8F4C115C1
:101F500028E5D20708F06CC0C11536E5D30708F0B4
:101F6000A9CF8C2F0E94E210C82FD0E0DC2FCC2705
:101F7000CC27DF71D0621FC0C1154AE5D40708F431
:101F80005CC0CE0190568115904208F093CF8D2F02
:101F90008F710E94E21090E0982F882788279F7108
:101FA0009C012C2BE901E6CFC55AD0E0C857DD4F84
:101FB000C881D0E0D064CE01DF91CF910895E4E0F4
:101FC00096958795EA95E1F783702C2F26952695AF
:101FD000237040E2249F90011124382B8C2F8370B2
:101FE000C1E0D0E002C0CC0FDD1F8A95E2F7C22B22
:101FF000D32BDC68E0CFDC2FCC27C16FD06ADBCFDE
:102000008370992721E030E002C0220F331F8A95A8
:10201000E2F7C695C69590E2C99FE0011124C22B54
:10202000D32BDA68C8CFD82FCC27C46FD06AC3CFE0
:10203000DC2FCC27C06FD06ABECF8C2F8F700E9450
:10204000E21034E0D695C7953A95E1F7CF709C2F12
:10205000EC01D069B0CF972F7530A8F46E3098F4AA
:1020600070E02EE0929F600D711D1124FB0196E43B
:10207000899FE00DF11D1124EE0FFF1FE855FE4F63
:1020800085919491089580E090E008950E942B102E
:102090000E94330F089582389105B1F1B0F4813375
:1020A000910509F475C048F48932910509F469C0B5
:1020B0008A32910509F473C008958533910509F4B6
:1020C00059C08933910501F10895833E9105A9F125
:1020D00038F4803E9105F9F0823E910549F108956A
:1020E000863E9105A9F1873E9105C9F1843E91058F
:1020F00019F52091590521FF1FC08091580584FDD5
:1021000014C087EE90E00895209158052370A1F047
:1021100080EE90E008952091580520FD47C0309151
:10212000590530FF09C024FF44C090E080E004C09E
:102130002091580522FDF7CF08952091580522FDE2
:102140003BC03091590530FDE3CF24FFF5CFEDCFF3
:102150002091580523FFF0CF24FDE7CFD2CF209167
:10216000580523FD2CC03091590531FFEECF84EE88
:1021700090E008952091580525FFDECF89E290E098
:1021800008952091580525FFD7CF85E390E0089565
:102190002091580526FFD0CF8AE290E00895209143
:1021A000580526FFC9CF81E390E0089589E390E0C8
:1021B000089583EE90E0089582EE90E0089586EE13
:1021C00090E008959091580592FF06C0282F28713D
:1021D0002830F9F4877F846093FF06C0282F287188
:1021E0002831F1F4877E84612091590520FF06C0D3
:1021F000382F38713830D9F4877F816021FF06C0CD
:10220000282F28712831D1F4877E816194FD877E43
:102210000895282F24712430F9F68B7F8860DCCF55
:10222000282F2471243101F78B7E8861DDCF382F70
:102230003171313019F78E7F8860E0CF282F2171FE
:10224000213121F78E7E8861E1CF80E008950E94E0
:10225000AE0D08950E943D128FEB9DE50197F1F7B9
:1022600000C000000E943D1280E00E946E1180FFBD
:1022700004C00E9427110E942B2C08950E942A114D
:1022800008950E94B50D811102C00E94620E0E9445
:10229000C00D809375030E94CA0D909359058093D9
:1022A00058050E943E110E94C50D682F70E090E015
:1022B00080E00E9415086091DF027091E002809139
:1022C000E1029091E2020E945408089508950E944C
:1022D0006611089508950E946A110895E82FF0E0AC
:1022E000EE0FFF1FEC59FA4F8081918108950895F8
:1022F00080EA8A95F1F7089500C008950E94781148
:102300000895F894E82FE295EF70F0E031A1282FBE
:102310002F7081E090E001C0880F2A95EAF7982F8E
:102320009095932391A392A1892B82A378940895E9
:102330000F931F93CF93DF93C9E9D2E089918F3F29
:1023400011F00E94811182E0CE39D807B9F7CBE8AD
:10235000D2E009E912E089918F3F11F00E948111CA
:102360000C171D07C1F7DF91CF911F910F910895B1
:10237000AF92BF92DF92EF92FF920F931F93CF9392
:10238000DF938C01D62EC62FD0E0CE0187569D4F0D
:102390007C01FC0120812F3F09F44CC0F894E22F0E
:1023A000E295EF70F0E031A12F7081E090E001C084
:1023B000880F2A95EAF7932F982B91A392A18095E5
:1023C000892382A378940E947C11EBE8F2E041E03B
:1023D00050E0B12CA12C21912F3FB1F1A22FA29559
:1023E000AF70B0E090968C9190E02F7002C0959500
:1023F00087952A95E2F780FD27C0CA01A82AB92A45
:10240000440F551F82E0E939F80729F7F701808169
:102410008F3F11F00E94811161E0A114B10409F411
:1024200060E08D2D0E947E11CC0FDD1FC00FD11FEB
:10243000B982A882DF91CF911F910F91FF90EF9009
:10244000DF90BF90AF90089590E080E0D7CF0E94DA
:1024500098118AE0E4E6F5E0DF01982F1D929A9545
:10246000E9F7EAE5F5E0DF011D928A95E9F785E0F5
:102470000E9479120E94C2030895AAE0B0E0E3E44A
:10248000F2E10C94A6338E010F5F1F4F8AE0F80132
:1024900011928A95E9F7F12C6F2DC8010E94B811AD
:1024A000F394F5E0FF12F8CF4AE050E0B8018AE576
:1024B00095E00E943534FF24F394009709F4F12C41
:1024C000892B41F08AE0F801AAE5B5E001900D9270
:1024D0008A95E1F72F2D45E064E675E08AE595E001
:1024E0000E947A120E94C5038F2D2A96E5E00C9473
:1024F000C2330895FF920F931F93CF93DF93F82E6B
:10250000092F162FD72FC42F222349F081E0809363
:1025100078030E94C42B9093770380937603809175
:1025200078038823A1F080917603909177030E942D
:10253000DC2B039760F0EF2DF02FA12FBD2F90E043
:1025400080E0D0E08C179D073CF010927803CDB767
:10255000DEB7E5E00C94C233219131912D933D9388
:102560000196F0CF0E94052E0E94A30E0E94122E0B
:1025700008950E94172E0E942A0F0E94312E08955E
:102580000E945D2B0E94EB2D0E94870E0E94B212CA
:102590000E94B9120E94970EFBCF80917F0380FFAB
:1025A0000DC060910E0270E0660F771F60387105F4
:1025B00070F56115710569F1862F089581FF07C0D7
:1025C00060910E0284E0689FB0011124EFCF60910A
:1025D0000E0282FD0AC080917E038823A9F020911B
:1025E0000D0260910E02821710F088E0ECCF869FFA
:1025F000C001112433E0880F991F3A95E1F7622F4B
:1026000070E00E943E33D2CF68E070E0D5CF8FE714
:10261000089581E0089580917F0380FF0CC0609150
:102620000A0270E075956795759567956115710556
:1026300049F1862F089581FF06C060910A0270E07B
:1026400075956795F3CF60910A0282FD0BC090915A
:102650007D039923A1F06091090280910A029617E7
:1026600038F0682F70E06038710500F38FE7089547
:10267000899FC001112470E00E943E33F4CF61E0D5
:1026800070E0D7CF81E008958D3E31F40E94CD12E5
:1026900081958093830308958E3E19F40E94CD1294
:1026A000F8CF8F3E31F40E94CD1281958093820342
:1026B0000895803F19F40E94CD12F8CF893F29F484
:1026C0000E940B138093840308958A3F21F40E9493
:1026D0000B138195F7CF8B3F31F40E940B1381953B
:1026E0008093850308958C3F19F40E940B13F8CF53
:1026F0009FE0980F983070F4815F990B21E030E0F3
:1027000001C0220F8A95EAF780918103822B809382
:10271000810308958D3F31F480917F038160809320
:102720007F0308958E3F21F480917F038260F7CF6D
:102730008F3FB9F780917F038460F1CF409182038E
:102740008D3E59F48091830387FF0DC0109283035F
:1027500041110BC010927E0308C08E3E81F480911F
:10276000830318169CF3442381F080918403909195
:102770008503892B09F05AC010927D0308958F3E7E
:1027800049F447FFF0CF10928203809183038111B7
:10279000ECCFE0CF803F19F41416ACF3E4CF909166
:1027A0008403893F29F41916F4F610928403DBCFD1
:1027B0008A3F19F497FFD7CFF8CF909185038B3FCD
:1027C00029F497FFD0CF10928503CDCF8C3F19F419
:1027D0001916CCF3C8CF9FE0980F983090F4815F22
:1027E000990B21E030E0B90102C0660F771F8A958E
:1027F000E2F7CB0180959091810389238093810337
:10280000B2CF8D3F31F480917F038E7F80937F0321
:10281000AACF8E3F21F480917F038D7FF7CF8F3F2A
:1028200009F0A1CF80917F038B7FF0CF08950E94A4
:10283000C42B9C019091820380918303982B21F0FB
:1028400030937C0320937B039091840380918503D4
:10285000982B21F030937A032093790380E893E05A
:102860000E941E2A089586E0E0E8F3E0DF011D9251
:102870008A95E9F710927E0310927D0310927F03F0
:102880000895FC01828181110EC0838181110BC0EA
:102890008481811108C091E08581811101C090E09F
:1028A000892F8170089581E0FCCFA6E0B0E0EBE5D0
:1028B000F4E10C94A83386E0E0E8F3E0DE01119641
:1028C00001900D928A95E1F7109282031092830392
:1028D00010928403109285038B819C81892B89F04F
:1028E00080917B0390917C030E94DC2BAC01909142
:1028F0007E039923C9F180910F028417150608F40D
:1029000040C08D819E81892B91F0809179039091B7
:102910007A030E94DC2BAC0190917D03992309F48A
:1029200071C080910B028417150608F479C0BE01AE
:102930006F5F7F4F80E893E00E941A2B811105C0E2
:1029400080E893E00E94411481110E94171486E0F0
:10295000FE013196A0E8B3E001900D928A95E1F76F
:102960002696E3E00C94C433209110028AE0289F5D
:10297000900111242417350720F69F5F90937E0362
:1029800002C09F3FD1F71B81112359F00E94CD1245
:102990009FEF11160CF491E0899F802D11248093F4
:1029A00082031C81112359F00E94CD129FEF111652
:1029B0000CF491E0899F802D112480938303309142
:1029C0008203332309F49DCF20918303222309F44A
:1029D00098CF45EB3403C0011124992359F090930B
:1029E000820345EB240390011124332339F0309303
:1029F000830387CF81E080938203F3CF81E08093CC
:102A000083037FCF20910C028AE0289F900111243C
:102A10002417350708F08BCF9F5F90937D0302C08A
:102A20009F3FD1F71D81112359F00E940B139FEF97
:102A300011160CF491E0899F802D1124809384035A
:102A40001E81112359F00E940B139FEF11160CF4F5
:102A500091E0899F802D1124809385033091840318
:102A6000332309F464CF20918503222309F45FCF37
:102A700045EB3403C0011124992359F0909384034A
:102A800045EB240390011124332339F0309385035F
:102A90004ECF81E080938403F3CF81E08093850360
:102AA00046CFEF92FF920F931F93CF93DF93EB01EB
:102AB000E82FD1110EC0442321F0F0E0E852FC4F82
:102AC000E4916E2F7E2F8E2FCDB7DEB7E6E00C940B
:102AD000C1330D2F10E0282F30E0442329F0285275
:102AE0003C4FF901249130E0F6E0CF9FC001112462
:102AF000EFEFF0E0BF010E942A33AB018C2F90E092
:102B0000880F991FA5E5A49FB001A59F700D112402
:102B1000861B970B982F990F980FBF01601B710BA5
:102B2000629FD001639FB00D729FB00D11248B2F57
:102B30009D9FB0011124672F7727EF01C61BD70B8C
:102B4000BE01629FE001639FD00D729FD00D1124E2
:102B50007F01E91AF108E09EB001E19E700DF09E40
:102B6000700D1124672F7727E61BF70BE29F80017A
:102B7000E39F100DF29F100D1124E12F722F4230B0
:102B8000510599F048F44115510569F0413051055E
:102B900081F0EB2F8D2F07C04430510569F080F094
:102BA00046305105B1F76E2F8FCFE22F7B2F812F4B
:102BB000FACFE22F7D2FF7CFEB2F822F712FF3CF9C
:102BC0007B2F822FED2FEFCF41E00E94511508950A
:102BD00030E020E0869F212D969F200D311D11248D
:102BE000C9010895AC018230910508F408959FEF62
:102BF000413E8EE1580740F49A0195E036952795BD
:102C00009A95E1F798E0920F61E0E62FE90FFF2730
:102C1000FF1F9F0135952795822F229FF001239F4B
:102C2000F00DF00D11244E175F0738F49FEF920F4F
:102C3000961758F78FEF860F08952F3FE9F361E05D
:102C4000620FF6CF409117025091180225E038E04C
:102C5000429FC001439F900D529F900D1124875EAB
:102C6000994C9093180280931702890F0895E82FCA
:102C700086FDE0952E2F2F7086FD2F5FE695E69559
:102C8000E695E670F0E0E256FD4F9181929F902D1F
:102C9000212D112492959F702295207F922B2081C7
:102CA000920F87FD919580E8890F0895E42FF0E059
:102CB000EE0FFF1FE65BFE4F408134EE439F412D38
:102CC0001124E82FF0E050E0445E5F4FDA01A21BD0
:102CD000B1099D01B7FF03C031952195310993E0FA
:102CE000220F331F9A95E1F7AF01421B530B9A0154
:102CF00057FD20E0582F259F212D1124822F089564
:102D0000622F0895E42FF0E0EE0FFF1FE65BFE4F09
:102D10006081621B0895E42FF0E0EE0FFF1FE55B7A
:102D2000FE4F6081621B0895322F50E0FA01EE0FD2
:102D3000FF1FE55BFE4F9081905297FD9195440FE8
:102D4000551FFA01E65BFE4F2081231B330B290F31
:102D5000311D97FD3A95620F0895EF920F93972FCB
:102D600023E0029FB0011124759567956E0D792FB0
:102D70000F91EF9008950F93CF93DF93D72FC82F24
:102D800047FD419588E390E0841B910947FD9395A9
:102D9000889FB001899F700D700D1124229FC00182
:102DA000239F900D900D1124860F971F0E94F215FE
:102DB000982F990F890F682F600F7D2F8C2FDF912F
:102DC000CF910F9108950F931F93522F10E0F801A8
:102DD000EE0FFF1FE55BFE4FA081A052BB0B9D01D4
:102DE0005203F001539FF00D1124000F111FD80161
:102DF000A65BBE4F0C910057110B40039001419F01
:102E0000300D11242E0F3F1F37FF02C021583F4FB6
:102E1000220F232F221F330B620F1F910F91089552
:102E20000F931F93522F10E0F801EE0FFF1FE55B89
:102E3000FE4FA081A052BB0B9D015203F001539F96
:102E4000F00D1124000F111FD801A65BBE4F0C918D
:102E50000057110B40039001419F300D11242E0F9C
:102E60003F1F37FF02C0215C3F4F96E03595279505
:102E70009A95E1F7620F1F910F9108950F931F9399
:102E800010E0F801EE0FFF1FE65BFE4F90819057B8
:102E900097FD9195000F111FF801E55BFE4F008132
:102EA0000052110B2003F001219FF00D112408E3C3
:102EB00010E0091B110997FD139540039001419FF4
:102EC000300D1124E20FF31F9F01220F331F2E0F2D
:102ED0003F1F37FF02C021583F4F220F232F221FD1
:102EE000330B620F1F910F9108950F931F93CF9390
:102EF000DF938B01D82FC42F822F0E943716EC2F1F
:102F0000F0E0EE0FFF1FE65BFE4F90819058890FB7
:102F100087FD8195880F682F2CE0629F612D112419
:102F2000600F712F8D2FDF91CF911F910F91089519
:102F3000E42FF0E0EE0FFF1FE65BFE4F9081921B47
:102F400097FD9195292F38E1239F212D1124620FA0
:102F500008952091720530E1230F08F42FEF60E10E
:102F6000822F90E00E94E815BC0188EB9BE00E9454
:102F70002A3390E080E008954095282F429F412D0C
:102F80001124842F089522E8241B08F420E0620F06
:102F90000895FC019B01009729F480E077FF2BC086
:102FA00080E80895AC0197FF04C044275527481BCB
:102FB000590BB901640F751F37FD10C0241B350B69
:102FC000C901A5E0880F991FAA95E1F70E943E3339
:102FD00080E2861BF7FF0FC081950895CB0165E065
:102FE000880F991F6A95E1F7BA01621B730B0E9463
:102FF0003E3380E6EECF08950F931F93CF93DF9378
:10300000D62FC72F182FC901212F201B022FBA013D
:103010000E94C917982F990F990F891B800F282F8D
:10302000219F212D1124822F6D2F7C2FDF91CF9195
:103030001F910F910895EF920F931F93CF93DF93FA
:10304000D62FC72F182FC9010E19010FBA010E94E0
:10305000C917081B202F219F212D1124822F6D2F8E
:103060007C2FDF91CF911F910F91EF9008950F93D7
:10307000CF93DF93D72FC82FC901BA010E94C91778
:10308000682F600F7D2F8C2FDF91CF910F910895C6
:10309000EF920F93CF93DF93D72FC82FC9010E194B
:1030A000BA010E94C917602F681B7D2F8C2FDF91FA
:1030B000CF910F91EF90089546E050E06CE170E001
:1030C0008EE695E00E9469341092950408950E945E
:1030D000E4150895EF92FF920F931F93CF93DF9320
:1030E0009FEF980F41E0480FAFEFA60FE1E0E60F2A
:1030F000082F10E0A61780F42EE0209FE001219F0A
:10310000D00D1124CC53DB4FCA0FD11D288130E1E3
:10311000230F08F42FEF2883262F30E05EE0509F26
:10312000E001519FD00D11248E010C531B4F7801EB
:10313000020F131FE801588170E2570F08F45FEF88
:103140005883EE3048F4E701CE0FD11D588170E16D
:10315000570F08F45FEF5883453018F1C92FD0E0BE
:10316000A61708F457C04EE04C9FC0014D9F900D2C
:1031700011248C539B4FDC01A20FB31F2C9130E123
:10318000230F08F42FEF2C93EE3008F03EC0E80F29
:10319000F92FF11D20813DE0230F08F42FEF20834C
:1031A00034C050E0A61780F47EE0749FE001759F64
:1031B000D00D1124CC53DB4FCA0FD11D78811DE0F7
:1031C000710F08F47FEF78837EE0749FE001759FB4
:1031D000D00D11248E010C531B4F7801020F131FC9
:1031E000E801488150E1450F08F44FEF4883EE3085
:1031F00048F4E701CE0FD11D48815DE0450F08F48A
:103200004FEF4883981708F4A9CFCDB7DEB7E6E0B3
:103210000C94C1334EE04C9FC0014D9F900D112482
:103220008C539B4FA80FB92FB11D4C915DE0450FFA
:1032300008F44FEF4C9397CFEEE6F5E085E28083FC
:103240008091260290912702A09128028183928387
:10325000A3838FE784838FEF85830E945C18089592
:1032600080E008950F931F93CF93DF93C82FD62F3D
:103270008A010E9430199EE0C99FB00111246C5F41
:103280007E4F6D0F711DFB0190819F3F29F0F8016A
:10329000E80FF11D90838F5FDF91CF911F910F9108
:1032A0000895E091AC02F091AD0209950895E09186
:1032B000A802F091A90209950895B0E0A0E0E3E624
:1032C000F9E10C949C335C014B01FC01C0818DE061
:1032D000C89FC02D11241DE01C0FF12E103410F0DA
:1032E0003FE3F32E6091720566958091740590918D
:1032F00075050E94E815582ED0E0CF1548F081E002
:103300001F3308F080E0CDB7DEB7EFE00C94B833A0
:10331000FE01E853FE4F8081F50191818923C9F1B7
:10332000CE01880F991F8C5F9E4FFC01EA5BFF4F17
:103330002081422F4057550B6A01895B9F4FFC014A
:103340008081282F2052330B3901449F9001459FE3
:10335000300D300D1124669CC001679C900D900DBE
:103360001124820F931F0E94F215082F60916F05A0
:103370007091700580917105E52C9301A601F4010F
:1033800009950E946718462F282F672FCE010E94AB
:1033900057192196B2CF6BE178E10E945D1908952B
:1033A0006DEA76E10E945D19089568E478E10E9473
:1033B0005D190895B0E0A0E0E0EEF9E10C94A133CE
:1033C0006C017B01FC01C0818DE0C89FC02D1124E0
:1033D0001DE01C0FB12E103410F03FE3B32E6091AE
:1033E0007205669580917405909175050E94E815A7
:1033F000A82ED0E0CB1548F081E01F3308F080E024
:10340000CDB7DEB7EAE00C94BD33FE01E853FE4FC2
:103410008081F6019181892311F1CE01880F991FD6
:103420008C5F9E4FFC01E95BFF4F20812052330BE4
:103430008A5B9F4FFC0140814057550B60916F059F
:1034400070917005809171050A2DF70109950E9410
:103450006718462F282F672FCE010E9457192196F3
:10346000C9CF6CEF77E10E94DA1908956BEB76E132
:103470000E94DA19089567E378E10E94DA19089545
:10348000B0E0A0E0E6E4FAE10C94A2337C018B0109
:10349000FC01C0818DE0C89FC02D11249DE0D92E74
:1034A000DC0ECD2CFFE3FD1510F48FE3C82E6091E8
:1034B00072056695669521E0620F08F46FEF8091C2
:1034C0007405909175050E94E815B82ED0E0CC15D2
:1034D00050F081E09EE39D1508F480E0CDB7DEB7A3
:1034E000E9E00C94BE33FE01E853FE4F8081F70102
:1034F0009181892391F060916F05709170058091A1
:1035000071052B2D4C2FF80109950E946718462F45
:10351000282F672FCE010E9457192196D8CF66E534
:1035200076E10E94401A089560E876E10E94401A10
:10353000089562E876E10E94401A08956BE876E10A
:103540000E94401A089564E976E10E94401A0895A5
:1035500065E777E10E94401A089568E977E10E94E3
:10356000401A0895B0E0A0E0E8EBFAE10C949E3335
:103570005C016B01FC01C0818DE0C89FC02D11244E
:103580001DE01C0F912E103410F03FE3932E60913C
:1035900072056695669580917405909175050E94F7
:1035A000E815F82E80E48F0D0E94371690E8892EDA
:1035B000880E8F2D0E94371620E8722E780ED0E0EC
:1035C000C91548F081E01F3308F080E0CDB7DEB7C1
:1035D000EDE00C94BA33FE01E853FE4F8081F50113
:1035E00091818923A1F060916F05709170058091A0
:1035F0007105EF2C0C2F272D482DF60109950E94FF
:103600006718462F282F672FCE010E945719219641
:10361000D7CF63EE76E10E94B21A089560E177E1B8
:103620000E94B21A08956EE377E10E94B21A0895DB
:10363000B0E0A0E0EEE1FBE10C94A1338C017B0152
:10364000FC01C0818DE0C89FC02D11242DE0B22E59
:10365000BC0EAB2CFFE3FB1510F49FE3A92E2091C9
:10366000720531E0230F08F42FEF30E050E040E026
:103670006FEF7FEF80E090E00E9474336901D0E04B
:103680002C2FCA1550F081E0FEE3FB1508F480E012
:10369000CDB7DEB7EAE00C94BD33FE01E853FE4F30
:1036A0008081F8019181892311F140917805415081
:1036B000042E000C550B47FF1CC0C601609172051B
:1036C00021E0620F08F46FEF0E94E815AC016091F1
:1036D0006F057091700580917105F70109950E9441
:1036E0006718462F282F672FCE010E945719219661
:1036F000C7CFFA01E858FA4F818982130AC0FA014C
:10370000EE0FFF1FE858FA4F818D928D8C159D05A5
:10371000A8F241505109CFCF6CEB77E10E94181B02
:10372000089563EC77E10E94181B0895B0E0A0E0D3
:10373000ECE9FBE10C94A2337C01FC01C0818DE03B
:10374000C89FC02D11241DE01C0F012F103408F05C
:103750000FE360916F0570917005809171050E9473
:103760006718D62EC72EB82ED0E0C01748F081E0DB
:103770001F3308F080E0CDB7DEB7E9E00C94BE332C
:10378000FE01E853FE4F8081F7019181892331F0DA
:103790002B2D4D2D6C2DCE010E9457192196E5CF72
:1037A000B0E0A0E0E6EDFBE10C949F337C01FC016E
:1037B000C0818DE0C89FC02D11241DE01C0F012F7A
:1037C000103408F00FE3C0907005D0907105D091CF
:1037D0006F056D2F7C2D8D2D0E946718B62EA72E9C
:1037E000982E609172056D0F7C2D8D2D0E946718AB
:1037F000D62EC72E882ED0E0C01748F081E01F33A8
:1038000008F080E0CDB7DEB7ECE00C94BB33FE01EE
:10381000E853FE4F9081F7018181892359F0282DCB
:103820004D2D6C2D90FD03C0292D4B2D6A2DCE0101
:103830000E9457192196E0CFB0E0A0E0E2E2FCE15F
:103840000C94A2338C01FC01C0818DE0C89FC02D77
:1038500011245DE0F52EFC0EDF2CFFE3FF1510F4C4
:103860004FE3D42EC0907005B09071052091720581
:1038700030E4E32E3E2D329F312D1124E32ED0E093
:10388000CD1550F081E03EE33F1508F480E0CDB760
:10389000DEB7E9E00C94BE33FE01E853FE4F8081B1
:1038A000F80191818923D9F0FE01EE0FFF1FE65B3D
:1038B000FE4F6081E69EB001112495E075956795F5
:1038C0009A95E1F780916F05680F7C2D8B2D0E94F2
:1038D0006718462F282F672FCE010E94571921966F
:1038E000CFCFB0E0A0E0E7E7FCE10C94A2338C017D
:1038F000FC01C0818DE0C89FC02D11249DE0F92EF0
:10390000FC0EEF2CFFE3FF1510F48FE3E82ED090B0
:103910006F05D0917005C090710560917205669534
:103920006695669580917405909175050E94E815DD
:103930000E943716805887FD8195880F282F3C2DCF
:10394000239F212D1124822F6D2D7D2F0E9467181A
:10395000D62EC72EB82ED0E0CE1550F081E02EE343
:103960002F1508F480E0CDB7DEB7E9E00C94BE3344
:10397000FE01E853FE4F8081F8019181892331F0E7
:103980002B2D4D2D6C2DCE010E9457192196E4CF81
:10399000B0E0A0E0EEECFCE10C94A4338C01FC015F
:1039A000E853FE4F8081682349F1D0907005D09193
:1039B0007105C0916F05EC2EF12C0E941C34282F4C
:1039C000C7018C549F4F68E671E00E943E338E1908
:1039D0009F0997FD039695958795959587952370F3
:1039E0006C2F289F600D11247D2D8D2F0E9467184C
:1039F000462F282F672FC8010E945719CDB7DEB771
:103A0000E7E00C94C033B0E0A0E0E9E0FDE10C9405
:103A1000A4338C01FC01C281C11122C060917205E6
:103A200020E1620F08F46FEF8091740590917505A5
:103A30000E94E8156AE070E00E942A33892B51F455
:103A40000E941C346FE370E00E943E33F8016181F4
:103A50000E94C81C8C2FCDB7DEB7E7E00C94C033B2
:103A6000C0818DE0C89FC02D11248DE0D82EDC0EC2
:103A70008D2DFFE3FD1508F48FE3D0E0E82EF12C47
:103A8000CE15DF0534F0C1E0FEE3FD1518F7C0E008
:103A9000E1CFF8016181CE010E94C81C2196F0CFD0
:103AA0001F93CF93DF93EC01FC01E853FE4F80811D
:103AB0006823B1F00E941C34182F0E941C348F77A9
:103AC000782F20E8720F08F47FEF612F8091710545
:103AD0000E946718462F282F672FCE010E94571982
:103AE000DF91CF911F910895B0E0A0E0EAE7FDE1FA
:103AF0000C94A4338C01FC01C281C11122C06091DD
:103B0000720520E1620F08F46FEF809174059091C7
:103B100075050E94E81565E070E00E942A33892B44
:103B200051F40E941C346FE370E00E943E33F801B0
:103B300061810E94501D8C2FCDB7DEB7E7E00C9459
:103B4000C033C0818DE0C89FC02D11248DE0D82ED8
:103B5000DC0E8D2DFFE3FD1508F48FE3D0E0E82E99
:103B6000F12CCE15DF0534F0C1E0FEE3FD1518F7AA
:103B7000C0E0E1CFF8016181CE010E94501D219685
:103B8000F0CFB0E0A0E0E7ECFDE10C94A2337C01C3
:103B9000FC01C0818DE0C89FC02D11241DE01C0FC9
:103BA000012F103408F00FE3C0907005D09071051C
:103BB000D0916F05609172056695669566958091C6
:103BC0007405909175050E94E8150E94371680587B
:103BD00087FD8195880F682F2CE0629F612D11244D
:103BE0006D0F7C2D8D2D0E94E415D62EC72EB82E7C
:103BF000D0E0C01748F081E01F3308F080E0CDB777
:103C0000DEB7E9E00C94BE33FE01E853FE4F80813D
:103C1000F7019181892331F02B2D4D2D6C2DCE0193
:103C20000E9457192196E5CFE091AA02F091AB02CC
:103C300009950895A9E0B0E0E0E2FEE10C94993323
:103C40006C01DC010C918DE0089F002D1124BDE07A
:103C5000B00FB9874B2EB73410F086E4482EF6012A
:103C60008281882361F040E060E080E00E94141EC1
:103C7000E4ECF4E086E4DF011D928A95E9F7F601B1
:103C80008081811115C080910B0590910C050E94D7
:103C9000DC2B21E08931910508F420E020930A050E
:103CA000499730F00E94C42B90930C0580930B052C
:103CB00010E0512C9E012F5F3F4F3901041515056F
:103CC0004CF081E0F985F63408F080E02996E2E1D5
:103CD0000C94B533C80165E070E00E943E335B018F
:103CE0004C013EE0389FF001399FF00D1124EC5358
:103CF000FB4FE60FF71F3080A3010E943219282ED8
:103D000073018E2D86198215C8F080910A058823CB
:103D100091F0232D31E0231B08F420E0322EAEE099
:103D2000A89DC001A99D900D11248C539B4FA80EF6
:103D3000B91EF50120830F5F1F4FC0CFD701EC9153
:103D4000F0E0E853FE4F8081F6019181892321F153
:103D5000232D35E5231B08F420E06AEA621B7091ED
:103D600070052AEA332D230F08F42FEF30917105E7
:103D7000822F880F820F8E5F282F239F212D1124E1
:103D8000822F0E946718462FD7019C91282F672FFA
:103D9000892F90E00E945719BFEFEB1AFB0AB1CFB1
:103DA000AF92BF92DF92EF92FF920F931F93CF9348
:103DB000DF93CDB7DEB728970FB6F894DEBF0FBEFE
:103DC000CDBFE82ED62E142F0E94900E882309F422
:103DD00055C0F12C112341F0AE014F5F5F4F6D2DA7
:103DE0008E2D0E943219F82E0F2D10E0809196042E
:103DF000800F912F911D09976CF188E090E05C0194
:103E0000A01AB10AB80169567B4FA50187E994E071
:103E10000E944234B80161567B4FA5018FE994E0BE
:103E20000E944234A501440F551FB801660F771F49
:103E300061557B4F8FEA94E00E944234B801695586
:103E40007B4FA50187EA94E00E94423488E08F19F5
:103E50008093960410919604DE01119640E0842F21
:103E6000810FF4121BC08093960480916E058C7FA5
:103E70008C3621F46D2D8E2D0E946A1828960FB66F
:103E8000F894DEBF0FBECDBFDF91CF911F910F9190
:103E9000FF90EF90DF90BF90AF9008955D91252F38
:103EA00030E090E0BC016A567B4FF901EE0FFF1F36
:103EB000E65BFE4F0081FB010183220F331FF901F6
:103EC000E55BFE4F2081FB012187518B880F991FF5
:103ED000FC01EA56FB4F128E118E4F5FC0CFB0E04F
:103EE000A0E0E5E7FFE10C949C33F82E80911502E9
:103EF0008F1124C090916E0593702091160230E0CE
:103F000081E09217130609F480E081708093140217
:103F10008091730590911302981739F080931302E2
:103F200040E060E080E00E94141E2DE12F1588F033
:103F3000EF2DF0E0E353FB4C0C94933381E0E5CF9D
:103F400080911402882359F040E060E080E00E94F4
:103F5000141E80E004C082E192E00E94961B9091C2
:103F600012029F5F9093120281110CC082E0809335
:103F7000110280911402811105C0F11003C083E089
:103F800080931102CDB7DEB7EFE00C94B83382E135
:103F900092E00E94D01BE3CF82E192E00E941C1CC1
:103FA000DECF82E192E00E94711CD9CF82E192E0E3
:103FB0000E948F1AD4CF82E192E00E94311ACFCFB3
:103FC00082E192E00E94CB19CACF82E192E00E9486
:103FD000941AC5CF82E192E00E94991AC0CF82E183
:103FE00092E00E949E1ABBCF82E192E00E94A31A47
:103FF000B6CF82E192E00E94D019B1CF82E192E087
:104000000E94361AACCF82E192E00E943B1AA7CF01
:1040100082E192E00E94D519A2CF82E192E00E9453
:10402000091B9DCF82E192E00E940E1B98CF82E196
:1040300092E00E94131B93CF82E192E00E94031D45
:104040008ECF82E192E00E94741D89CF82E192E0DE
:104050000E94C11D84CF82E192E00E94A81A7FCF06
:1040600082E192E00E94AD1A7ACF40919104509182
:1040700092046091930470919404809174059091DE
:104080007505A0917605B091770584179507A60769
:10409000B70708F45ECF0E942216182F0E9422163E
:1040A0009FE3891BF0F7890FC82FD0E0FE01E8538A
:1040B000FE4F809113029081892309F478C020E09B
:1040C00040E060E011FD13C00E942216182F0E94EC
:1040D00022168695782F2FE7720F08F47FEF612F55
:1040E000809171050E946718462F282F672FCE01F7
:1040F0000E9457192091720530E1230F08F42FEF29
:1041000060E1822F90E00E94E815BC0184EF91E00D
:104110000E942A338091740590917505A0917605CF
:10412000B0917705860F971FA11DB11D8093910453
:1041300090939204A0939304B09394040ACF409177
:104140008D0450918E0460918F0470919004809141
:10415000740590917505A0917605B0917705841747
:104160009507A607B70708F4F4CE809114028111D1
:1041700020C0C09112028DE0C89FC02D11241DE007
:104180001C0F012F103408F00FE3CC2ED12C33E09C
:10419000C39FE0011124C053DC4FC01608F441C096
:1041A000E0EDF3E08AE894E01F3308F053C081E0CB
:1041B000D6CE40E060E080E00E94141E00ED13E0E7
:1041C000D0E0C0E04FE7E42E0E94221681FF0BC032
:1041D000F80110821182128221960D5F1F4FCF339A
:1041E000D10591F7C6CF0E942216B82E0E94221642
:1041F0008695782F2E2D720F08F47FEFCE01880F51
:10420000991F8C0F9D1FFC01E053FC4F6F016B2D1C
:10421000809171050E94E415F601608371838283A9
:10422000DBCFF601E853FE4F808190911302892382
:1042300031F02A8148816981C6010E94571923966D
:10424000FFEFCF1ADF0AA9CF238134814581219363
:10425000319341938E179F07B9F70E94221681FF71
:104260001FC010928A0410928B0410928C040E943A
:10427000A91700917405109175052091760530916C
:104280007705DC01CB01800F911FA21FB31F809324
:104290008D0490938E04A0938F04B093900459CE14
:1042A0000E942216C82F0E9422168695782F2FE78B
:1042B000720F08F47FEF6C2F809171050E94E41556
:1042C00060938A0470938B0480938C04D0CF4091C8
:1042D000CC035091CD036091CE037091CF038091B8
:1042E000740590917505A0917605B09177058417B6
:1042F0009507A607B70708F42CCE809114028823EF
:1043000029F040E060E080E00E94141E60916F059B
:1043100070917005809171050E946718E62E772EC6
:10432000682EC6E8D3E004E011E02DE0A22EB12C07
:1043300048016E0186E0582EF60121916F01F401CB
:1043400081914F0190E0222309F470C0262D4E2D5B
:10435000672D0E945719F6018081319780835A9406
:104360005110EACF650196E0592E96012A573C4F2D
:104370004901F601EC5FFE4F808190E0F901208158
:10438000222309F457C0262D4E2D672D0E94571960
:10439000F40131978081F40180835A94F1E0CF1ABF
:1043A000D1085110E2CFF801878190E02F812223BC
:1043B00009F444C0262D4E2D672D0E945719F8018F
:1043C000868190E02E812223E9F1262D4E2D672D46
:1043D0000E9457190E942216837091E009F090E024
:1043E0009E839F832E96025F1F4FFEE0AF0EB11C8F
:1043F00023E5A216B10409F09BCF0E94A9170091F2
:104400007405109175052091760530917705DC01D2
:10441000CB01800F911FA21FB31F8093CC039093F9
:10442000CD03A093CE03B093CF0393CD20E040E023
:1044300060E08FCF20E040E060E0A8CF20E040E0E7
:1044400060E0BBCF20E040E060E0C2CF82E192E0DC
:104450000E941A1E84CD82E192E00E948C1B7FCDC7
:1044600082E192E00E94911B7ACD08950E9435224C
:104470000E946703089508950895CF93DF93FC0188
:10448000C0818DE0C89FC02D1124D3EFDC0FC03454
:1044900008F0CFE36C2F8D2F0E943B226C2F8D2FC5
:1044A0000E943C22DF91CF9108954F925F926F92CC
:1044B0007F928F929F92AF92BF92CF92DF92EF92B4
:1044C000FF92CF936091BF047091C0048091C104AA
:1044D0009091C2040E94EB2B6B017C010E94D02BB7
:1044E0004B015C018092BF049092C004A092C10471
:1044F000B092C204A0919604E6E9F4E08A2F90E01D
:104500004FEF5FEF60E070E04C195D096E097F09C5
:10451000A9132AC0809396048091C304C0E081113E
:1045200008C080916E05C82FC37019F0C82FC695BA
:10453000C69580911102813009F440C0882339F179
:10454000823009F447C0833009F44FC0CF91FF9007
:10455000EF90DF90CF90BF90AF909F908F907F9023
:104560006F905F904F900895218D328D2901712CAD
:10457000612C441555056605770520F481509F5F31
:104580003296C6CF2C0D3D1D328F218FF8CF109261
:1045900012028092740590927505A0927605B092F1
:1045A000770589E2E6E9F4E0A8E7B5E001900D922D
:1045B0008A95E1F781E080931102C8CF8C2F0E9489
:1045C0006F1FCC2319F20E94362282E192E00E94F2
:1045D0003D22BCCFC093150280916E0583708093FD
:1045E00016020E94511983E0E6CF80919504811153
:1045F0000E945C1860917405709175058091760534
:10460000909177050E94EB2B603171058105910532
:1046100008F49CCF1092110299CFE091A602F0917C
:10462000A7020995109278058FEF9FEF909392055E
:1046300080939105909394058093930590939605AC
:1046400080939505909398058093970590939A058C
:104650008093990590939C0580939B0590939E056C
:1046600080939D059093A00580939F0510929604DA
:104670009093B0048093AF049093B2048093B104FC
:104680009093B4048093B3049093B6048093B504DC
:104690009093B8048093B7049093BA048093B904BC
:1046A0009093BC048093BB049093BE048093BD049C
:1046B0000E94B50D811104C00E94620E0E941C1957
:1046C00046E050E06CE170E08EE695E00E944B34ED
:1046D0001092950480916E058C7F11F40E941C1934
:1046E0000895CF93C82F882391F08091C30481113E
:1046F0000EC00E946F1F1092150280916E0583708C
:10470000809316020E94511983E080931102C09396
:10471000C304CF910895EEE6F5E0908121E0922761
:1047200090831092110290919504892B80939504A7
:10473000089581E00E948B23089590916E059370F7
:1047400061F081110BC0946090936E05109211027C
:1047500080919504862B8093950408958E3110F0F6
:104760009467F2CF880F880F982BEECF61E00E94FC
:104770009D230895682F90916E059695969581E0FA
:10478000890F8E3108F081E00E949D23089581E019
:104790000E94BA230895682F90916E05969596957C
:1047A0008FEF890F09F48DE10E949D23089581E028
:1047B0000E94CB23089590916E05937059F08093D9
:1047C0006F05609370054093710580919504822B6D
:1047D000809395040895AEE6B5E01196EC9111979B
:1047E000F0E0282F13964C91139712966C91CF01FD
:1047F00008960E94DB23089581E00E94EB23089530
:10480000EEE6F5E09181282F43816281E92FE8509F
:10481000FF0BCF010E94DB23089581E00E9400245A
:104820000895EEE6F5E0628120E1620F08F46FEF93
:104830009181282F4381892F90E00E94DB230895E6
:1048400081E00E9411240895EEE6F5E0628120E106
:10485000621B08F460E09181282F4381892F90E04A
:104860000E94DB23089581E00E9424240895EEE64F
:10487000F5E0438120E1420F08F44FEF9181282FAA
:104880006281892F90E00E94DB23089581E00E94DD
:1048900037240895EEE6F5E0438120E1421B08F459
:1048A00040E09181282F6281892F90E00E94DB23D4
:1048B000089581E00E944A240895809372058091B2
:1048C0009504862B8093950408952091720530E11C
:1048D000230F08F42FEF682F822F0E945D24089584
:1048E00081E00E94652408952091720530E1231B28
:1048F00008F420E0682F822F0E945D24089581E053
:104900000E947424089560E080E50E9407260895BF
:10491000CF930E94262960E080E50E94E124C0E058
:1049200021E041E061E08C2F0E948A25CF5FCF33E8
:10493000B9F760E080E50E943A26CF910895609330
:1049400061064093620624E630E042E050E061E612
:1049500076E0880F0E94C92921E0892B09F020E028
:10496000822F0895EF92FF921F93CF93DF937B01E5
:10497000182F110FD0E0C0E0C0936106D701AC0F33
:10498000BD1FE2E6F6E08D91819386E0E237F807FD
:10499000D1F724E630E041E150E061E676E0812F96
:1049A0000E94C929892B59F46096C03CD10521F792
:1049B00081E0DF91CF911F91FF90EF90089580E00B
:1049C000F8CF1F93CF93DF93C82FD62F45EC6EEF10
:1049D0000E949F2440E06DEF8C2F0E949F2410E0E6
:1049E00040E0612F8C2F0E949F241F5F1831C1F778
:1049F00045EC6EEF8C2F0E949F2441E06DEF8C2FD1
:104A00000E949F2410E040E0612F8C2F0E949F2481
:104A10001F5F103CC1F745EC6EEF8C2F0E949F2466
:104A200043E06DEF8C2F0E949F2440E06FE08C2FBD
:104A30000E949F2440E060E18C2F0E949F244FEF52
:104A400061E08C2F0E949F2480E4D89FA001112454
:104A5000416060E08C2F0E949F248FE39CE90197C6
:104A6000F1F700C00000DF91CF911F910895A4E0FD
:104A7000B0E0EDE3F5E20C94A633F62E042F122FEE
:104A80008F33910550F5880F991F880F991FBC012E
:104A900064557F4F44E050E0CE0101960E942C34D3
:104AA00089818370AA81E82FF0E020EC829FC00109
:104AB00011248F559A4FA80FB92FB11DFC92AB81CD
:104AC000A80FB92FB11D0C932C81820F911DDC0111
:104AD0001C93EA5DFA4F81E080832496E5E00C9414
:104AE000C233FF920F931F93CF93DF93182F062F9C
:104AF000F42ED0E0C0E02F2D402F612FCE010E9478
:104B000037252196CF33D105B1F7CDB7DEB7E5E034
:104B10000C94C233A4E0B0E0E0E9F5E20C94A633D3
:104B2000F62E042F122F24E0829FB0011124645529
:104B30007F4F44E050E0CE0101960E942C349A81D0
:104B4000AB81BA2FB695B695B6956C81762F7695D2
:104B500076957695A7706770E92FE695E695E695C8
:104B6000F0E0977021E030E001C0220F9A95EAF75B
:104B70008981982F937048E1949FE00DF11D1124D5
:104B8000E25FFA4FFF20C1F19081922B90838370F6
:104B9000482F50E0E8E18E9FC0011124825F9A4FB8
:104BA000FC01EB0FF11D908121E030E001C0220FEC
:104BB000AA95EAF7002329F1292B208388E1849F15
:104BC000F001859FF00D1124E25FFA4FE70FF11D10
:104BD000208181E090E001C0880F6A95EAF71123F7
:104BE00099F0822B8083435F5A4F81E0FA018083E2
:104BF0002496E5E00C94C233922F90952081922365
:104C0000C5CF20952923D9CF80958223EBCFEF9272
:104C1000FF920F931F93CF93DF93D82FC62F062FAA
:104C200010E0C8018A5D9A4F7C01FC0180818823D5
:104C3000D1F045EC6EEF8D2F0E949F2441E06DEF87
:104C40008D2F0E949F24F0ECCF9FB00111246F554F
:104C50007A4F8D2F0E94B224811105C0F801E35FC5
:104C6000FA4F81E08083F7011082CDB7DEB7E6E02E
:104C70000C94C133EF92FF920F931F93CF93DF9366
:104C8000E82EC62F062F10E0035F1A4FF80180812F
:104C90008823D1F045EC6EEF8E2D0E949F2440E0DA
:104CA0006DEF8E2D0E949F24F8E1CF9FE00111242B
:104CB000C25FDA4FF12C49916F2D8E2D0E949F24F7
:104CC000F39488E1F812F7CFF8011082CDB7DEB780
:104CD000E6E00C94C133FA01811101C0FB01099592
:104CE00008951F93CF93DF93EC01FB011281111103
:104CF00051C00E94C70C8272CB3CFCE5DF0709F46F
:104D000073C048F5C63CECE5DE0709F459C068F409
:104D1000C43C9CE5D90709F449C008F04CC0C33C29
:104D2000DC4509F440C011E035C0C83C9CE5D9071A
:104D300009F450C008F449C0C93CFCE5DF0709F498
:104D40004EC049E554E266E474E2CA3CDC4559F7DA
:104D50000E946B261FC0C03DECE5DE0709F457C07A
:104D600088F4CD3C9CE5D90709F448C008F441C05B
:104D7000CE3CFCE5DF0709F446C0CF3CDC4599F6A4
:104D800084E042C0C73D9CE5D90748F48EE0C23DAF
:104D9000DC45D0F1812FDF91CF911F910895CE3561
:104DA000DD45C1F3C0CF0E949923F4CF47ED53E214
:104DB00067EC73E2CDCF47EC53E267ED73E2C8CF07
:104DC0004DE054E26CEF73E2C3CF4CEF53E26DE081
:104DD00074E2BECF43E354E260E274E2B9CF40E252
:104DE00054E263E374E2B4CF46E454E269E574E26A
:104DF000AFCF4FE754E260E774E2AACF40E754E256
:104E00006FE774E2A5CF81E00E94B623C3CF89E0AB
:104E1000FBCFCF93DF93EC01FB018281882309F460
:104E200033C1C430FDE5DF07C0F5CB3F9CE5D907B2
:104E300030F49E0122503C4524313105B0F50E94EA
:104E4000CA0D9093590580935805C1318CE5D80758
:104E500009F4EEC008F069C0C930ECE5DE0709F4DA
:104E6000D5C0C8F5C5308CE5D80709F4C7C000F532
:104E7000C330ECE5DE0709F4B9C008F0BBC0C230AE
:104E8000DC4509F4ADC080915805909159050E9408
:104E9000D80D0E94C70780E008C0C236EDE5DE07E6
:104EA00071F2C63AFDE5DF0751F2DF91CF91089527
:104EB000809158058062C7309CE5D90709F493C0FA
:104EC000809158058061C830DC4508F48CC0809121
:104ED0005805806488C0809158058B7FCD30FCE5F3
:104EE000DF0709F480C098F4809158058E7FCB309D
:104EF0009CE5D90709F477C0809158058C60CC30C7
:104F0000DC4508F470C0809158058D7F6CC080919D
:104F100058058F7ECF30FCE5DF0709F464C008F444
:104F20007BC0809158058F7D5EC0CE3F9CE5D90740
:104F300009F47AC050F5C531FCE5DF0709F486C0F5
:104F400098F480915805837FC3319CE5D90709F413
:104F50004AC008F471C00E94C70790915805892F74
:104F600097FB87F980583FC0CC3FFCE5DF0709F489
:104F700049C008F055C0809159058160CB3FDC45A0
:104F800009F081CF809359057ECFC230EDE5DE0771
:104F900009F468C0A8F4C1158DE5D80709F452C01A
:104FA000809159058360C130DD4560F380915905DA
:104FB000982F909591708E7F892B90FB81F9E2CF8D
:104FC000C236EDE5DE0709F451C0C63AFDE5DF075C
:104FD00009F453C0C330DD4509F055CF80E043C02C
:104FE000809158058160809358054DCF8091580578
:104FF0008260F9CF809158058460F5CF8091580583
:105000008860F1CF809159058260BCCF0E94C707AC
:10501000809158058068E7CF80915805877FE3CF5E
:10502000809159058E7FAECF809159058D7FAACF93
:10503000809158058F7BD7CF0E94C7078091580574
:105040008F77D1CF809159058C7F9CCF8091580567
:1050500082FB992790F921E0922790FB82F990FB3F
:1050600083F9C1CF81E00E94650E0DCF9091580564
:10507000892F8F7E94FF8061B6CF90915805892F3C
:105080008E7F90FF8160AFCF81E00FCFCF93DF9312
:10509000EB0186319C4511F50E94C70C9A8199233A
:1050A00099F08A7A91E009F490E0909327058111B4
:1050B00009C089E20E949F0C0E94080D80E0DF91E8
:1050C000CF91089585E3F6CF80912705811104C023
:1050D00089E20E94A70CF0CF85E3FBCF81E0EFCF00
:1050E0000F931F93CF93DF93C42FD22FFC018281A4
:1050F0008823C9F040932A050E94C42B9093290568
:105100008093280580E28C0F883040F4C77081E0DE
:1051100001C0880FCA95EAF70E944E05DF91CF9132
:105120001F910F91089510912A05141332C0809198
:105130002805909129050E94DC2B883C910548F5B3
:10514000C0E2CD0F1D17B9F080E2810F883040F426
:10515000177081E001C0880F1A95EAF70E94550583
:10516000C83048F481E09D2F977001C0880F9A9550
:10517000EAF70E944E05802F0E944505C83070F660
:10518000D77081E001C0880FDA95EAF70E945505D3
:10519000C5CF80E28C0F883008F6C77081E001C06F
:1051A000880FCA95EAF7F2CF0F939C01CB01243FF9
:1051B0004CE5340759F1A8F4293DFCE53F0701F11E
:1051C0002A3D4CE53407D1F1283D3C4591F406E2F7
:1051D00021EE41EE68ED7CE50E94702880E00F91A1
:1051E0000895263FFCE53F07E9F0B0F0273F3C4536
:1051F000F9F0FC018281882339F110922A05EFCF62
:1052000007E225EE45EE69ED7CE5E6CF06E221EE0C
:1052100040EE64EF7CE5E0CF07E225EE44EE65EF7B
:105220007CE5DACF06E221EE42EE66EF7CE5D4CFF4
:1052300007E225EE46EE67EF7CE5CECF08E221E0FF
:1052400045EE6AED7CE5C8CF81E0C9CF1092B90088
:105250008CE08093B8000895B0E0A0E0E2E3F9E2CA
:105260000C94A033B82EEB010E94C42B6C01EE24E9
:10527000E394F12CC431D10560F025E0E22EF12C4D
:10528000CF3FDC0731F0CE0164E170E00E942A33A9
:105290007B0184EAA82E94E8992E1092BC00A0927B
:1052A000BC000E94C42B8C018091BC0087FF0DC004
:1052B0008091B900887F883001F18091B900887FA2
:1052C0008031D9F00FEF1FEF09C00E94C42B801B63
:1052D000910B8E159F0540F30EEF1FEFCF3FDC07BC
:1052E000E1F2C6010E94DC2B8C179D07B0F2C801C9
:1052F000CDB7DEB7EBE00C94BC33B092BB0090921C
:10530000BC000E94C42B8C018091BC0087FF0AC0A6
:105310008091B900887F883111F0803499F610E0CF
:1053200000E0E5CF0E94C42B801B910B8E159F05DA
:1053300058F3D2CF0F931F93CF93DF93EB0180935A
:10534000BB0084E88093BC000E94C42B8C01809138
:10535000BC0087FF11C02091B900287F81E090E058
:10536000283211F490E080E0919581959109DF91C8
:10537000CF911F910F910895CF3FDC0741F30E9419
:10538000C42B801B910B8C179D0708F38EEF9FEFAA
:10539000EECFB0E0A0E0EFECF9E20C94A3336B01A8
:1053A0008A017901B9010E942C29E6010C0D1D1D0D
:1053B000C017D10711F097FF08C024E92093BC0063
:1053C000CDB7DEB7E8E00C94BF33B70189910E94F6
:1053D0009A29EECF9093AF028093AE0208959093F6
:1053E000300580932F050895E0912F05F091300549
:1053F000309729F00190F081E02D0995089580E023
:1054000008950E94F4290895E0912F05F091300548
:10541000309799F020912502222359F020915805C8
:1054200027FF07C0DC012C9111962C93119726E0E1
:105430002C930280F381E02D09950895E0912F05CA
:10544000F0913005309739F022E0DC012C93048094
:10545000F581E02D0995089520912D0530912E05B7
:105460002817390771F090932E0580932D05E09150
:105470002F05F0913005309721F00680F781E02D5F
:105480000995089520912B0530912C05281739078F
:1054900071F090932C0580932B05E0912F05F091EE
:1054A0003005309721F00084F185E02D09950895AD
:1054B000FC01329680912502882321F080915805C5
:1054C0009EE187FF96E080E0915008F408952191D5
:1054D0002223D1F38F5FF8CF662301F120912502BB
:1054E0002223F1F02091580527FF1AC0462F469538
:1054F000469546954E3190F4677021E030E002C049
:10550000220F331F6A95E2F7840F911DFC018281FF
:1055100090E02823392381E0232B69F480E008956B
:10552000FC01329608962191261721F0E817F90719
:10553000D1F7F4CF81E008959C01FC0132969FEFF2
:1055400080E04191461751F09F3F19F4411101C08D
:10555000982F8F5F8630A9F79F3F09F40895290F90
:10556000311D97FD3A95F90162830895FC01329649
:1055700008962191261303C0DF0111971C92E817AA
:10558000F907B9F70895E62FE695E695E695EE3129
:1055900068F4E80FF92FF11D677021E030E001C0D9
:1055A000220F6A95EAF78281822B82830895E62F83
:1055B000E695E695E695EE3170F4E80FF92FF11DCA
:1055C000677021E030E001C0220F6A95EAF720956C
:1055D000828128232283089520912502222339F0F5
:1055E0002091580527FF03C00E94C32A08950E94F6
:1055F0009C2A089520912502222339F020915805F4
:1056000027FF03C00E94D72A08950E94B62A089552
:10561000FC01329680912502882351F08091580533
:1056200087FF06C08EE1DF011D928A95E9F7089594
:1056300086E0F9CF46E050E00E94353421E0892B26
:1056400009F420E0822F089508950E94242B0895E4
:10565000811106C081E0809331050E94252B0895B9
:1056600082E0F9CF83E0809331050E94252B0895D5
:105670000E94282B089581E0809331050E94252BFC
:1056800008950E943B2B0895089508950895089564
:10569000CF930E94462B0E943D120E94472BC0E0F0
:1056A0008C2F0E946E11892B31F4CF5FC530C1F76A
:1056B00080E0CF91089581E0FCCF85B7806885BFF9
:1056C00085B7806885BF08951F921FB61F92112469
:1056D0008F939F93AF93BF9380913205811113C035
:1056E0008091750690917606A0917706B091780624
:1056F0004196A11DB11D8093750690937606A093E7
:105700007706B0937806BF91AF919F918F911F90CC
:105710001FBE1F90189580917D06843031F10E9444
:105720003B041092320588E190E020E40FB6F89433
:10573000A895809360000FBE2093600083B7817F9F
:10574000846083BF83B7816083BF7894889583B773
:105750008E7F83BF0FB6F894A89580916000886112
:1057600080936000109260000FBE08950E94C707EA
:105770000E944504089582E084BD93E095BD9AEFB0
:1057800097BD80936E0008952FB7F89480917506A9
:1057900090917606A0917706B09178062FBF089574
:1057A0002FB7F89460917506709176068091770610
:1057B000909178062FBF08959C014FB7F89480917F
:1057C000750690917606A0917706B09178064FBF46
:1057D000821B930B0895CF92DF92EF92FF922FB727
:1057E000F894C0907506D0907606E0907706F09019
:1057F00078062FBFA7019601261B370B480B590BC4
:10580000CA01B901FF90EF90DF90CF90089578948E
:105810001F921FB61F9211248F939F93AF93BF9334
:105820008091750690917606A0917706B0917806E2
:105830000196A11DB11D8093750690937606A093E5
:105840007706B0937806BF91AF919F918F911F908B
:105850001FBE1F90189581E08093E00080E2809346
:10586000D8001092C9008FE19EE40197F1F700C0C3
:10587000000087E090EBDC0180938606909387061A
:10588000A0938806B093890688E19CE00FB6F8944F
:10589000A895809360000FBE90936000FFCF88E1D1
:1058A0009CE00FB6F894A895809360000FBE90938B
:1058B0006000FFCF80915605089508959C0182E015
:1058C0008093E9009FEF8091E800915085FD06C02C
:1058D00085ED8A95F1F700009111F5CF8091E800F0
:1058E00085FF0CC050E040E066E070E0C9010E9416
:1058F000A32E8091E8008E778093E8000895CF93DF
:10590000DF93EC01809125028823B1F18091580545
:1059100087FF32C060E282E08093E9008FEF9091D0
:10592000E800815095FD06C095ED9A95F1F70000CD
:105930008111F5CF8091E80085FF1BC08091250281
:1059400070E050E040E0811104C050E040E068E0C9
:1059500070E0CE010E94A32E8091E8008E778093A4
:10596000E80080E2FE01A6E3B5E001900D928A9581
:10597000E1F7DF91CF91089568E081E0CDCF80938A
:105980003305709335056093340580917D0684302E
:1059900001F582E08093E9008FEF9091E80081505B
:1059A00095FD06C095ED9A95F1F700008111F5CFB0
:1059B0008091E80085FF0DC050E040E063E070E0BA
:1059C00083E395E00E94A32E8091E8008E77809378
:1059D000E8000895BC0184E00E94BF2C0895BC013A
:1059E00083E00E94BF2C089580917C06811109C03C
:1059F0000E9433300E9490308091E2008460809356
:105A0000E200089510927C0608950E943B2B0895B1
:105A10006091790681E0611101C080E00E94322B23
:105A2000089590917D0681E0943009F080E06091C6
:105A300079060E94382B089542E061EC81E00E94D3
:105A4000AF2F42E261EC82E00E94AF2F90917D0681
:105A500081E0943009F080E0609179060E94282B63
:105A6000089580917F06833009F461C030F481305D
:105A7000D1F1823009F49EC008958A3009F48AC0B9
:105A80008B3009F46FC0893009F050C080917E06D8
:105A9000813209F04BC08091820690918306029773
:105AA00008F044C08091E800877F8093E8008091EF
:105AB000E80082FF37C09091F3008091F2000297D6
:105AC00031F48091F100813011F0863021F4809121
:105AD000F100809356058091E8008B778093E80071
