:100000000C9446030C94CD170C9463030C94630377
:100010000C9463030C9463030C9463030C946303C8
:100020000C9463030C9463030C94DD1E0C94B11FB9
:100030000C94D8190C9463030C9463030C9463031D
:100040000C9463030C9463030C9463030C94630398
:100050000C9463030C947B1A0C9463030C94630359
:100060000C9463030C9463030C9463030C94630378
:100070000C9463030C9463030C9463030C94630368
:100080000C9463030C9463030C9463030C94630358
:100090000C9463030C9463030C9463030C94630348
:1000A0000C9463030C9463030C94630335001E00EB
:1000B0001F002000210022004A002B0014001A001B
:1000C0000800150017003900290004001600070079
:1000D00009000A004600E1001D681B640661190062
:1000E00005000000E000E300E200055106512C008D
:1000F00000002A00270026002500240023004D00D0
:100100004C00130012000C0018001C004B003400BF
:1001100033000F000E000D000B004E00E5003868A4
:10012000376436611000110000004F00520051008A
:10013000500007512800000035001E001F0020005D
:10014000210022004A002B0014001A0009001300AD
:1001500005003900290004001500160017000A00E8
:100160004600E1001D681B640661070019000000DD
:10017000E000E300E200055106512C0000002A00D7
:10018000270026002500240023004D004C003300EA
:100190001C0018000F000D004B00340012000C0072
:1001A0000800110010004E00E50038683764366121
:1001B0000B000E0000004F0052005100500007518C
:1001C0002800000035001E001F0020002100220032
:1001D0004A002B001400070015001A000500390022
:1001E0002900040016000B0017000A004600E10079
:1001F0001D681B641061060019000000E000E300A8
:10020000E200055106512C0000002A0027002600BC
:100210002500240023004D004C003300130018007B
:1002200009000D004B0034000C0012000800110002
:100230001C004E00E5003868376436610F000E0080
:1002400000004F00520051005000075128000000EC
:1002500035001E001F002000210022004A002B0054
:100260001C0006000F0010000E00390029000C00D1
:100270001600150017000A004600E1001468196412
:100280001A6107000D000000E000E300E2000551E4
:1002900006512C0000002A0027002600250024001B
:1002A00023004D004C0033001B00180009001D0006
:1002B0004B003400120004000800110013004E002F
:1002C000E5003868376436610B00050000004F0018
:1002D00052005100500007512800000035001E0058
:1002E0001F002000210022004A002B0014001A00E9
:1002F0000800150017003900290004001600070047
:1003000009000A004600E1001D001B00060019005C
:1003100005000000E000E300E20005512C462C003F
:1003200000002A00270026002500240023004D009D
:100330004C00130012000C0018001C004B0034008D
:1003400033000F000E000D000B004E00E5003800DA
:10035000370036001000110000004F00520051001D
:1003600050000751280000000100F300F400F500E0
:100370000000000000000100F200ED00F100F900B3
:10038000000000005300EF00EE00F000FA00000053
:10039000000001000000000000000000000000005C
:1003A0000100010001000100000001000000010047
:1003B00000000000000000000000000001005500E7
:1003C000610060005F0054000000010057005E0003
:1003D0005D005C0056000000010067005B005A00F1
:1003E000590000000000000000006300620062008D
:1003F0005800000000003A003B003C003D003E0079
:10040000000000003F0040004100420043000000A7
:10041000000044004500680069006A000000010017
:100420006B006C006D006E006F00000001000100A9
:100430000100000001002C000000A90000000000E5
:100440000000000000000000AA004600470049002C
:10045000480000000000A80000004F0052005100BA
:1004600050000000010000004D004B004E004A000B
:100470000000AB00AE00AD00AC0008510100000070
:1004800035021E021F02200221022202000000008B
:1004900036022F022F0026022E02000039003702FA
:1004A0003002300027022D000000E100310031024F
:1004B00000002D022E000000E000E300E20000003A
:1004C00000002C0000000000270226022502240262
:1004D00023020000000000000000250224020000AA
:1004E00000000000000023022202210200000000A0
:1004F000E500380020021F021E0200000000E40098
:100500006500E700E600010028000000005C0052E2
:1005100001520252035204520000DF5C000000004E
:1005200000000000000000000000000000000000CB
:1005300000000000000000000000000000000000BB
:1005400000000000000000000000000000000000AB
:10055000000000000000000000000000000000009B
:10056000015C00000000000000000000000000002E
:10057000000000000000000000000000000000007B
:10058000000000000000000000000000000000006B
:100590000000010000000000200345007200670019
:1005A0006F00440061007300680020007200650065
:1005B000760031002E00320000000C034F006D0069
:1005C0006B006200640000000403090409023B00A0
:1005D000020100A0FA090400000103010100092141
:1005E00011010001224000070581030800010904F0
:1005F0000100010300000009211101000122320065
:10060000070582032000011201000200000008ED2E
:10061000FE606000010102000105010980A1018561
:100620000319012AB700150126B70095017510813D
:1006300000C0050C0901A101850419012AA00215B9
:100640000126A002950175108100C005010906A1CF
:1006500001050719E029E7150025019508750181B5
:10066000029501750881010507190029FF1500266B
:10067000FF009506750881000508190129059505F3
:1006800075019102950175039101C00011241FBEEF
:10069000CFEFDAE0DEBFCDBF11E0A0E0B1E0EEE2E7
:1006A000F4E402C005900D92A839B107D9F722E011
:1006B000A8E9B1E001C01D92A339B207E1F70E9499
:1006C000BC140C94FF210C9400000E94101108959A
:1006D000089581E0089581E008950E946B030895D4
:1006E00008950E9470030895A5E0B0E0EAE7F3E002
:1006F0000C947F2149835A8330919F0189819A818B
:10070000311119C0662399F0222389F00E9447090C
:10071000182F682F89819A810E94230969817A8123
:10072000812F0E94AA0F2596E3E00C949B210E9442
:100730003509182FF3CF0E94470969817A81F1CFDB
:10074000FC01262F408151816281738184810E9446
:100750007403089581E00895CF93DF93EC0160E086
:100760000E94A003BE010E947103DF91CF91089502
:100770000E94650308950E94121108950E94EE07D9
:100780000E9468032FEF84E39CE02150804090405A
:10079000E1F700C0000008950E94BE030E949F1A66
:1007A00008950E94BE030E94B01A08950F931F93EC
:1007B000CF93DF938C0161E00E94A003EC01B801AC
:1007C0000E946D03811106C080E0DF91CF911F91DF
:1007D0000F910895B801CE010E94DD168823A1F380
:1007E000B801CE010E94E114882371F3B801CE0153
:1007F0000E944F16882341F3F8018281882361F01B
:10080000CB35FDE5DF0701F158F4C115ECE5DE0756
:1008100091F0CF3DDC4591F0C8010E946903D5CF2E
:10082000CD358DE5D80769F090F0C83ADD45A1F7E0
:100830000E94D103C9CF0E94CC03C6CF0E94FA0DFB
:10084000F7CF0E943F0DE8CF0E94490DE5CF0E94EF
:100850004D0DE2CF0E94B5190E94470408950E94F1
:100860004B040E94BA19089508950E943404089513
:1008700081E008950E94380408950895CF93C82F09
:100880000E9435048C2F0E943A04CF91089580E095
:100890000E943E0408950E94F3180E943E040895A9
:1008A000CF930E94F318C82F80919A018C1779F08A
:1008B000C0939A010E94441A60939B0170939C011B
:1008C00080939D0190939E018C2F0E943E04CF91B6
:1008D0000895ABE0B0E0EFE6F4E00C9480214F83A4
:1008E000588769877A878B8761110E948A0C1E82DC
:1008F0001D8285E0FE013796DE01119601900D9272
:100900008A95E1F78C819D81892B61F449815A8117
:100910006B817C818D819E810E94B30B2B96E2E0DE
:100920000C949C2189819A8189238F3F79F3CE0190
:1009300001960E94AA038111E9CFF0CFFC018081CA
:1009400091810E9479090895CF93C82F8823C9F017
:100950008238C9F40E94F31881FD13C089E30E9414
:10096000420C0E94AB0C2FEF87EE93E021508040A9
:100970009040E1F700C0000089E30E944A0C0E9409
:10098000AB0CCF9108958338A1F40E94F31880FD39
:10099000F8CF83E50E94420C0E94AB0C2FEF81EE52
:1009A00094E0215080409040E1F700C0000083E5D2
:1009B000E4CF8438A1F40E94F31882FDE2CF87E4EB
:1009C0000E94420C0E94AB0C2FEF81EE94E021506C
:1009D00080409040E1F700C0000087E4CECF8CEF6C
:1009E0008C0F813A90F46C2F80910001909101015D
:1009F0000E945019882329F08C2F0E944A0C0E94D3
:100A0000AB0C8C2F0E94420CBACF80E28C0F883046
:100A100048F4C77081E001C0880FCA95EAF70E94C8
:100A20006D0CADCFEBE5EC0FE33040F4F0E0EA5AAB
:100A3000FE4F808190E00E941219A3CFC85AC7319F
:100A400008F09FCFEC2FF0E0EE0FFF1FE85DFE4FA8
:100A5000808191810E94281994CF882309F44DC088
:100A6000823879F40E94F31881FF47C089E30E941D
:100A7000420C0E94AB0C89E30E944A0C0E94AB0C12
:100A80000895833859F40E94F31880FF36C083E537
:100A90000E94420C0E94AB0C83E5EECF843859F4DF
:100AA0000E94F31882FF29C087E40E94420C0E9432
:100AB000AB0C87E4E1CF9CEF980F913AE8F290E21B
:100AC000980F983050F4877091E001C0990F8A9583
:100AD000EAF7892F0E94730CD1CF9BE5980F9330D2
:100AE00028F490E080E00E9412190895885A873116
:100AF00020F490E080E00E94281908951F93CF937E
:100B0000DF93182FEB010E94A404209739F4812F62
:100B10000E942D05DF91CF911F9108958FE99FE0ED
:100B20000197F1F700C000002197EFCF70E060E07F
:100B3000893311F460E570E00E947E0508958823F2
:100B400021F00E946D0C0E94AB0C0895882321F0C7
:100B50000E94730C0E94AB0C0895B0E0A0E0E3EBA0
:100B6000F5E00C9479216C01D62FC72FFC0112817E
:100B7000F580F2949FE0F9220E94630CE82E88230E
:100B8000B9F0E12E1123A1F08C2F807F803421F069
:100B900080E28D0F8830D0F080916B0282FF16C00A
:100BA00082E00E940E0D0E94630C91E0E82EE9267F
:100BB000BC2EB2948FE0B822FBE0FB1508F468C0AD
:100BC000EB2DF0E0EF5FFD4D0C946A21E12CF0CFAE
:100BD0000C2F0F70C07F11F00295007F112399F048
:100BE000002359F080E28D0F883010F0D11107C03A
:100BF000802F0E946D0C0E94AB0C8D2F41C0802F66
:100C00000E947D0CF8CF8D2F0E942D05002309F442
:100C10003FC080E28D0F883010F0D11104C0802FCA
:100C20000E94730C03C0802F0E94830C0E94AB0CA7
:100C30002FC00C2F0F70C07FC03211F00295007FC3
:100C4000DD2381F0D13009F463C0112309F46DC0B4
:100C5000FF2009F463C0F601858180FFCECF8F703D
:100C600085835CC080916B0282FD33C0112359F0F3
:100C7000002329F0802F0E946D0C0E94AB0C80E0B5
:100C80000E94A40405C080E00E942D050111C7CF79
:100C9000EB2DE850FF0B349720F40E94F3180E94CC
:100CA0003E04EE2089F00E945F0C80FD0DC0F6012D
:100CB00012820E94590C0E948108C6010E94B2074C
:100CC0000E94590C0E949108CDB7DEB7E9E00C9460
:100CD0009521112389F0F11006C00E948D0C802B04
:100CE0000E949F05D5CF21E0F212F7CF0E948D0C14
:100CF000802B0E94940CCCCFF11006C00E94A10C56
:100D0000802F0E94A605C4CF31E0F31609F2F6CF7A
:100D1000112331F085E08F1508F4BACF802FE0CF92
:100D200094E09F1508F4B4CFEBCFFF2049F3D933FB
:100D300049F4FFEF27EE33E0F15020403040E1F777
:100D400000C000008D2F0E942D05A2CF8C2F86950C
:100D50008695837069F0813009F09ACF8D2F9C2F92
:100D60009370111102C090E080E00E94281990CF8A
:100D70008D2F9C2F9370111102C090E080E00E9493
:100D8000121986CF8C2F8370A1F5111181CF4D2FB1
:100D9000429546954770440F440F2D2F2F7030E039
:100DA000042E02C0220F331F0A94E2F790E080E085
:100DB000D4FF09C08FE090E002C0880F991F4A95C8
:100DC000E2F780959095C695C695C370822B932BBC
:100DD000C23049F058F4C13019F00E944F0858CF82
:100DE0000E94460855CF0E94580852CF0E944308DF
:100DF0004FCF8695112311F08C2F8170882309F431
:100E000047CF4D2F429546954770440F440F2D2FE5
:100E10002F7030E0042E02C0220F331F0A94E2F735
:100E200090E080E0D4FF09C08FE090E002C0880F1E
:100E3000991F4A95E2F780959095C695C695C3701F
:100E4000822B932BC23049F058F4C13019F00E9424
:100E5000BC081ECF0E94B3081BCF0E94C50818CF44
:100E60000E94670815CFCF70112329F08C2F0E94A4
:100E700081088D2F35CF8D2F0E94A6058C2F0E94C3
:100E8000910806CFD23F51F160F4D03FB9F0D13F85
:100E900081F0112309F449C0F110AFCE8C2F8F716E
:100EA00021C0D33F11F1D43FA1F780916B0282FDA5
:100EB00026C08C2F8F71112311F314C0112349F018
:100EC00084E08F1508F4E4CE8C2F8F710E94A30864
:100ED000DFCE95E09F1508F4DBCEF6CF8C2F8F7117
:100EE0001111CDCF0E948108D3CE112329F08C2F70
:100EF0008F710E947508CCCE0E947008C9CE112354
:100F000049F0CF718C2F0E94810863E08C2F0E94E2
:100F1000F00CBECE81E00E940E0DE1E0EF1508F06E
:100F2000B7CE82E00E940E0DB3CEF11000CF8C2F11
:100F30008F71A5CF0F931F93CF93DF93EC0168813F
:100F400079818A810E9484098C010E94CE080E94C6
:100F50004208B801CE010E94AD05DF91CF911F91EB
:100F60000F910895CF93DF93EC018B819C81892BA6
:100F700029F08881998189238F3F51F4DF91CF91A6
:100F80000895CE010E949A07CE010E94AC03F6CFCD
:100F9000CE010E94D6038111F4CF0E94630C8823F6
:100FA00069F38A81882351F380916B0282FFE6CF37
:100FB00082E00E940E0DE2CF90E080E00E941219C4
:100FC00090E080E00E9428190E948A0C0E94AB0CDD
:100FD00008950E94520C0E94DC0708950E947A0C2A
:100FE0000E94E907089592959F70963091F058F409
:100FF000925F9F70923058F4803F19F030F4883E31
:1010000030F481E008959A5FF4CF843FD1F380E01B
:101010000895883EB0F3813FD1F7F3CFFC0183817F
:101020009481892B29F08081918189238F3F11F44C
:1010300080E00895808191810E9479090E94F307E0
:101040000895A5E0B0E0E7E2F8E00C948021259651
:10105000E2E00C949C21A6E0B0E0E1E3F8E00C941F
:1010600080212696E2E00C949C2108950E94350888
:1010700008950E9436089093C7018093C6010E948C
:10108000DC07089508950E94390808952091C6014B
:101090003091C701822B932B0E943908089520912B
:1010A000C6013091C701822393230E943908089515
:1010B0002091C6013091C701822793270E943908E9
:1010C00008950E94350808950E94610808950E94BD
:1010D00064089093C5018093C4010E94DC070895C1
:1010E00090E080E00E946708089521E030E0A901C7
:1010F00002C0440F551F8A95E2F7CA010E94670893
:10110000089521E030E002C0220F331F8A95E2F7F4
:101110008091C4019091C501822B932B0E94670896
:10112000089521E030E002C0220F331F8A95E2F7D4
:10113000209530958091C4019091C501822393231D
:101140000E946708089521E030E002C0220F331F9B
:101150008A95E2F78091C4019091C5018227932777
:101160000E94670808952091C4013091C501822B27
:10117000932B0E94670808952091C4013091C50106
:10118000822393230E94670808952091C40130911F
:10119000C501822793270E94670808950895262F86
:1011A000277091E001C0990F2A95EAF723E0769520
:1011B00067952A95E1F7660F771F660F771FFA018B
:1011C000E60FF71F50E040E0682F70E08191DF01EB
:1011D00011979B01042E02C0369527950A94E2F7D9
:1011E000217021952827292328272C934F5F5F4FB3
:1011F0004430510559F70895A82FA77023E096951C
:1012000087952A95E1F7880F991F880F991FFB0191
:10121000E80FF91F50E040E080E0219130E00A2E15
:1012200002C0369527950A94E2F721703327042EE1
:1012300001C0220F0A94EAF7822B4F5F5F4F4430C0
:10124000510559F70895262F9A3070F4873060F4CD
:10125000682F70E087E0989F600D711D112440EAAF
:1012600051E0822F0E94CF080895292F9A3068F408
:10127000873058F490E060EA71E037E0239F800DFA
:10128000911D11240E94FC08089580E00895B0E0AB
:10129000A0E0EDE4F9E00C9479217C010091C40117
:1012A0001091C5018091C6019091C701082B192B9F
:1012B000CFE0D0E0CC24C394D12CBC2EC6010C2EA0
:1012C00002C0880F991F0A94E2F780239123892B8B
:1012D00049F4219790F7B12C8B2DCDB7DEB7E9E01B
:1012E0000C949521B7018C2F0E94C50F019789F3AB
:1012F000F3CFCF93DF93EC010E944709BE010E9418
:10130000C50FDF91CF9108951F93CF93DF93EB012A
:1013100090919F01992339F0CB010E947909DF91C7
:10132000CF911F910895882369F0CB010E9447094E
:10133000182F682FCE010E942309BE01812F0E9421
:10134000C50FEDCFCB010E943509182FF6CF1F93A3
:10135000CF93DF93C091C80116E08091C9018C132F
:1013600004C0DF91CF911F910895D0E01C9FF00140
:101370001D9FF00D1124E653FE4F40815181628183
:101380007381848195810E942B082196C770E5CFD7
:101390004091FA015091FB016091FC017091FD01B7
:1013A0008091FE019091FF010E942B0808951F93E8
:1013B000CF93DF938091FF01807F09F049C0809136
:1013C000FC01882309F444C08091C801C091C9017F
:1013D0006091FA017091FB01A091FD01B091FE01B5
:1013E000D62FD72316E0C81799F190E0109711F087
:1013F000DF3F19F401968770F6CF189F9001199F6F
:10140000300D1124F901E653FE4F41814713F2CF0D
:1014100040814613EFCF42814111ECCF438154818B
:101420004A1B5B0B4837510528F78091FF018F70ED
:1014300080618093FF01F901E153FE4F80818F703D
:10144000806180838AEF91E00E94B2070E94A70921
:10145000DF91CF911F910895A1E1B0E0E2E3FAE0BE
:101460000C9478218C0185E0F801DE011D96019035
:101470000D928A95E1F7F801E2808AEFC82E81E0AB
:10148000D82E6091FD017091FE016115710509F47E
:101490004EC19091FA012091FB01892F82238F3F49
:1014A00009F445C140815181A380B480F090FC01D2
:1014B000F501E61BF70BFF2009F4EAC08091FF015C
:1014C000382F307FE837F10508F0A3C031116DC027
:1014D000FE2C251316C0941314C0E11012C08F7097
:1014E00080618093FF010E94C809C6010E94B20773
:1014F0008091FF01F80185838F2D6196EAE00C94BD
:101500009421A114B10429F0842F85238F3F09F081
:1015100027C180E0F82FF170DF2E80FF3CC0809162
:10152000C8012091C90136E0821315C04D875E873E
:101530008D859E850E947909292F22952F70223052
:10154000F0F0243018F59F70F1F0F8019581907F4C
:10155000D1F4D12C1EC090E0389FF001399FF00DDE
:101560001124E653FE4F6181651306C06081641348
:1015700003C06281E6120FC001968770D5CF9F70BD
:1015800011F0882331F3805E883018F3C8010E947F
:10159000B207FD2CB1CFEE2009F4AECF8091FF0150
:1015A00081608093FF01F12CA7CF251306C094130F
:1015B00004C0F801EE2009F487C0C8010E940E089B
:1015C000882319F1EE2009F18091FF01803270F03B
:1015D0002091FA013091FB0138872F831986BB8651
:1015E000AA868C87CE0107960E94B20786E0F80192
:1015F000AAEFB1E001900D928A95E1F70E94D70918
:101600000E94C809FF24F39477CFC8010E94B20753
:10161000F9CF311113C07A2DB98AA88A6E2D898924
:101620000E9421088AEF91E00E94B20786E0F6014D
:1016300011928A95E9F70E94C809B5CF25130FC00A
:1016400094130DC0E1100BC0F8018583C8010E94FE
:10165000B20786E0F60111928A95E9F74DCFC801ED
:101660000E940E08882389F2EE2079F28091FF0112
:10167000803208F4BBCF2091FA013091FB013A830C
:1016800029831B82BD82AC828E83CE010196ACCFB2
:10169000E837F10508F03EC0FE2CEE2009F4B5CF86
:1016A00025132AC0941328C08091FF0180FD1BC020
:1016B000982F907FC1F0F8018583903F31F0982FEB
:1016C000907F905F8F70892B8583C8010E94B2073D
:1016D00086E0F801AAEFB1E001900D928A95E1F75A
:1016E0000E94C80909CF86E0F801AAEFB1E0019095
:1016F0000D928A95E1F700CFC8010E940E08811172
:1017000075CF8091FF0181608093FF01C8010E9425
:10171000B207F2CE7A2DB98AA88A6E2D89890E94E5
:10172000210886E0F60111928A95E9F7D9CFEE20DB
:1017300009F46BCFC8010E940E08F82E882309F423
:1017400064CF86E0F801AAEFB1E001900D928A958E
:10175000E1F78AEF91E00E949E040E94D709C0CF72
:1017600081E08E25D7CEACE0B0E0E9EBFBE00C9455
:101770007F214F83588769877A878B879C87CE0123
:1017800007960E942C0A882369F08A859B85892BFD
:1017900039F04F815885842F85238F3F09F06BC026
:1017A00016E05FC086E0FE013796DE0111960190DB
:1017B0000D928A95E1F78A859B85892B89F3888527
:1017C0009F8189238F3F61F32091C90130E0C901D6
:1017D0000196877099274091C8014817190671F43E
:1017E0000E94EE071092C9011092C80186E0EAEF4C
:1017F000F1E0DF011D928A95E9F7D2CF96E0929F42
:10180000D001939FB00D1124A653BE4FFE01319617
:1018100001900D929A95E1F78093C9010E94A70962
:10182000BFCF819FC001112486539E4F0E942C0A76
:101830008823E9F0E091C8011E9FF0011124E653CE
:10184000FE4F4081518162817381848195810E9424
:101850002B088091C80190E00196877099278093AA
:10186000C8018091C8019091C9018913DACF2C96E3
:10187000E3E00C949B2169857A858B859C850E9489
:101880002B088ECF682F80910001909101010E945A
:1018900086190895682F80910001909101010E949E
:1018A0008919089580910001909101010E948C197D
:1018B0000895809108028595859585950895809174
:1018C00008028770089590910802977081E009F4EA
:1018D00080E0089580911302089590911302892B5E
:1018E000809313020895809590911302982390930A
:1018F0001302089510921302089590911202892BF9
:1019000080931202089580959091120298239093EB
:10191000120208951092120208958091090208950A
:1019200008950E94900C089590916B0292FF08C058
:1019300090910902981721F0809309020E94910C5E
:10194000089580910902882329F01092090280E00D
:101950000E94910C0895CF93DF93E0910001F091E4
:101960000101809113028083E0910001F091010157
:10197000808190911202892B808390910902992392
:1019800081F0E0910001F09101018081892B808339
:1019900080910001909101010E943E1981110E94E5
:1019A000A10CC0910001D091010148E050E060E03D
:1019B00072E0CE010E94A721892B59F088E0FE0138
:1019C000A0E0B2E001900D928A95E1F7CE010E946D
:1019D0000719DF91CF91089508950E94EC0C0895A6
:1019E00090916B0292FF11C098E0899F90011124A1
:1019F000622B609308020E948108809108028595FD
:101A0000859585950E94ED0C08950E9481080895A2
:101A10001092080280E00E94ED0C08959091080257
:101A20008095892380930802282F277091F4282F0E
:101A3000082E000C330B9217130659F090916B028D
:101A400092FF07C08595859585950E9491080E9413
:101A5000080D089590916B0292FB222720F9281718
:101A600069F080FB92F990936B0280916A029091E9
:101A70006B020E94740D82E00E940E0D0895809109
:101A80006B0282FB882780F991E089270E942A0D4A
:101A9000089581E00E942A0D089580E00E942A0D99
:101AA000089590E080E00E94C52121E0883E9E4F8D
:101AB00009F020E0822F089582E090E00E94BD218D
:101AC000089583E090E00E94BD210895CF9384E0C3
:101AD00090E00E94BD21C82F82E290E00E94BD21CB
:101AE000982F8C2FCF910895CF93C92F682F84E022
:101AF00090E00E94CB216C2F82E290E00E94CB21EB
:101B0000CF910895AB01BC018FE090E00E94DD21F0
:101B10000895AB01BC0183E190E00E94DD210895AE
:101B200060E070E0CB010E94890D089560E070E0F4
:101B3000CB010E94820D0E94900D089568EE7EEF09
:101B400090E080E00E94E92160E082E090E00E9465
:101B5000CB2160E083E090E00E94CB211092C7018E
:101B60001092C60160E084E090E00E94CB2164E026
:101B700082E290E00E94CB2160E085E090E00E944C
:101B8000CB2160E086E090E00E94CB216FEF87E000
:101B900090E00E94CB2140E050E0BA0188E090E064
:101BA0000E94DD2160E08DE090E00E94CB2140E0CA
:101BB00050E0BA0188E190E00E94DD2160E087E119
:101BC00090E00E94CB2140E050E0BA018CE190E02F
:101BD0000E94DD2170E060E080E290E00E94E92157
:101BE00040E050E0BA0188E190E00E94DD210E94CF
:101BF000960D08950E949E0D0895682F8EE090E046
:101C00000E94CB2108950E94441A6093240270938D
:101C100025028093260290932702609320027093FE
:101C2000210280932202909323020895089508953B
:101C30000E94170E089508950E941B0E08958FEEBE
:101C400090E10E94E9180E94160E0E94180E089555
:101C50000E94B8120895089508950E942B0E0E94C4
:101C60002C0E08950E94F2100E943D0408950E94D7
:101C70002F1A0E94AF100E94D3120E9419120E94C4
:101C8000320E0E94C9140E94DD120E941C0E08959B
:101C9000AAE0B0E0EEE4FEE00C9478210E943C1251
:101CA00086E1A82E82E0B82E750110E0F7010191BF
:101CB0007F01812F0E9415111F5F1A3009F440C067
:101CC0000817A1F38091280281FD0E941B110E9438
:101CD000280EC82E10E0812F0E941511082FF50143
:101CE00081915F01081731F1F12CEE24E394D02E9D
:101CF000D8268D2D8E21B1F0CC20A1F0FE821F833D
:101D000091E0802F8E2109F490E098870E94381A84
:101D10008160782F9A8789874E815F8168858A855F
:101D20000E946904F394EE0CF7E0FF12E2CFF50194
:101D3000319700831F5F1A3071F60E94030E20C096
:101D40000813C0CF0E94381A8C0180911402909120
:101D5000150208171907A1F08FEF89838A831B8268
:101D60000E94381A8160782F9D838C8349815A8123
:101D70006B818D810E9469041093150200931402F7
:101D80000E94B8120E9450042A96EAE00C94942112
:101D9000CF93DF930E94CA0FEC01811522E59207D1
:101DA000E8F5811531E5930708F0A3C0883E910559
:101DB00010F5803E910570F5883A910570F4853AEA
:101DC000910508F078C08130910521F1009711F15B
:101DD000049700F5D0E0C0E01DC08F3B9105D0F71F
:101DE000C85AD0E0CC0FDD1FC75ADE4F0990D8810A
:101DF000C02DD4640FC0811540E5940708F066C07B
:101E0000C11580E4D80708F05EC0CE019A9581150F
:101E10009F4100F7CE01DF91CF910895811536E5FE
:101E2000930718F5811545E5940708F07BC0C115A7
:101E300084E5D80708F071C09E01237033279C2FDA
:101E400096959695C115D34508F458C0C1E0D0E0E9
:101E500002C0CC0FDD1F2A95E2F730E2939FC0014C
:101E60001124C82BD92BDA68D5CFC1158AE5D8073C
:101E700078F4C11529E5D20708F05EC0C11538E530
:101E8000D30708F4A7CFDC2FCC27C06FD06AC2CF0E
:101E9000CE0190568115904208F09CCF8D2F8F7106
:101EA0000E946C1090E0982F882788279F719C01D2
:101EB0002C2BE9013FC0C55AD0E0C957DE4FC8817D
:101EC000D0E0D064A7CFDF70D06AA4CF8370992709
:101ED00021E030E002C0220F331F8A95E2F7C69559
:101EE000C69580E2C89FE0011124C22BD32BDD6888
:101EF00091CFD82FCC27C16FD06A8CCFC1E0D0E072
:101F000002C0CC0FDD1F2A95E2F720E2929FC001AC
:101F10001124C82BD92BDC687DCFDC2FCC27C46FD4
:101F2000D06A78CF0E946C10C82FD0E0DC2FCC276D
:101F3000CC27DF71D0626ECF8C2F8F700E946C1017
:101F400034E0D695C7953A95E1F7CF709C2FEC0118
:101F5000D06960CF972F7A30A8F4673098F470E09A
:101F600027E0929F600D711D1124FB0196E4899F6B
:101F7000E00DF11D1124EE0FFF1FE455FF4F859179
:101F80009491089580E090E008950E94AA0F0E9425
:101F9000C80E089582389105B9F1B0F481339105E6
:101FA00009F47DC048F48932910509F46DC08A3284
:101FB000910509F47BC008958533910509F45FC04C
:101FC0008933910509F10895833E9105D9F138F4DB
:101FD000803E910529F1823E910579F10895863E72
:101FE0009105D9F1873E910509F43EC0843E9105E3
:101FF00041F520916B0221FF24C080916A0284FD8B
:1020000019C087EE90E0089520916A02237009F0CC
:102010005AC020916B0223FF14C089E290E008951A
:1020200020916A0220FD38C030916B0230FF09C058
:1020300024FF43C090E080E0089520916A0222FDD1
:10204000F7CF089520916A0222FD3AC030916B02C9
:1020500030FD39C024FFF5CFEDCF20916A0223FF78
:10206000F0CF24FDE7CFCDCF20916A0223FD2EC013
:1020700030916B0231FFEECF84EE90E00895209115
:102080006A0225FFDECFC9CF20916A0225FD21C05B
:1020900020916B0223FFD5CF89E390E0D2CF20912E
:1020A0006A0226FFCECF8AE290E0089520916A026C
:1020B00026FFC7CF81E390E0089583EE90E0089576
:1020C00082EE90E0089580EE90E0089586EE90E034
:1020D000089585E390E0089590916A0292FF06C00A
:1020E000282F28712830F9F4877F846093FF06C079
:1020F000282F28712831F1F4877E846120916B02AA
:1021000020FF06C0382F38713830D9F4877F8160BE
:1021100021FF06C0282F28712831D1F4877E8161E4
:1021200094FD877E0895282F24712430F9F68B7F43
:102130008860DCCF282F2471243101F78B7E8861E1
:10214000DDCF382F3171313019F78E7F8860E0CFC5
:10215000282F2171213121F78E7E8861E1CF1092E5
:102160006602109267021092680210926902089546
:10217000CF92DF92EF92FF926B017C010E94B81226
:1021800081110EC00E94441AC61AD70AE80AF90A39
:10219000C0926602D0926702E0926802F0926902F1
:1021A000FF90EF90DF90CF9008950F931F930E94C0
:1021B000B812882329F00E94441A1F910F910895A4
:1021C0000E94441A009166021091670220916802F1
:1021D00030916902600F711F821F931FEECF80E064
:1021E000089508950E94510D811102C00E94FA0DB8
:1021F0000E945C0D809328020E94660D90936B02F2
:1022000080936A020E94F1100E94610D90E00E948A
:1022100043088091C4019091C5010E94640808950B
:10222000089508950E9411110895E82FF0E0E958EB
:10223000FD4F80810895089580EA8A95F1F7089509
:1022400000C008950E941C11089508950E94251150
:102250000895A5E0B0E0EFE2F1E10C947C210E944A
:10226000B812F82E60918102882309F440C085E0FD
:10227000E82E8E010F5F1F4FF8018E2D11928A9567
:10228000E9F7862F90E0B80189589D4F0E94EB1224
:102290008823B9F080916C0290E045E050E0B801ED
:1022A00089589D4F0E94A72121E020932902892B64
:1022B00091F4F12C0E94BB038F2D2596E6E00C943F
:1022C0009821809129028823A1F3F8011192EA94C0
:1022D000E9F710922902A0916C02B0E0A958BD4F15
:1022E00085E0F80101900D928A95E1F7E3CF70E067
:1022F00069587D4F80916C0290E089589D4F0E94F3
:1023000072130E942611D8CFF894E82FE295EF704F
:10231000F0E031A1282F2F7081E090E001C0880FFC
:102320002A95EAF7982F9095932391A392A1892B50
:1023300082A3789408950F931F93CF93DF93C1E9FD
:10234000D1E089918F3F11F00E94841181E0C6395C
:10235000D807B9F7CAE8D1E001E911E089918F3FC8
:1023600011F00E9484110C171D07C1F7DF91CF9166
:102370001F910F910895B0E0A0E0E1ECF1E10C9421
:102380007A21EC01D62E062F10E0C8018F569E4F01
:102390007C01FC0180818F3F09F444C0F894E82F50
:1023A000E295EF70F0E091A18F7021E030E001C084
:1023B000220F8A95EAF7892F822B81A382A120958B
:1023C000282322A378940E942011EAE8F1E031E06A
:1023D000C12C21912F3F59F1A22FA295AF70B0E0EF
:1023E00090968C9190E02F7002C0959587952A95D4
:1023F000E2F780FD1CC0832FC82A330F81E0E1394A
:10240000F80739F7F70180818F3F11F00E9484119E
:1024100061E0C11001C060E08D2D0E942211C00F4B
:10242000D11FC882CDB7DEB7E8E00C94962180E0DA
:10243000E3CF809102018091020195E0811190E04B
:102440009093810285E0891B80936C020E949B110E
:102450008AE0E7E7F2E0DF01982F1D929A95E9F70D
:10246000EDE6F2E0DF011D928A95E9F785E00E9432
:102470007A120E94B8030895AAE0B0E0E2E4F2E123
:102480000C947D218E010F5F1F4F8AE0F80111929D
:102490008A95E9F7F12C6F2DC8010E94BB11F394C6
:1024A000F5E0FF12F8CF4AE050E0B8018DE692E087
:1024B0000E94A72121E0009709F420E0892B41F038
:1024C0008AE0F801ADE6B2E001900D928A95E1F75D
:1024D0006091810270E069587D4F45E08DE692E0A1
:1024E0000E947B12182F0E942911812B2A96E5E069
:1024F0000C9499210895CF92DF92EF92FF920F935F
:102500001F93CF936C017B01042F222349F081E0BC
:1025100080932C020E94381A90932B0280932A02F7
:10252000C0912C02C1110AC0C0E08C2FCF911F9125
:102530000F91FF90EF90DF90CF90089580912A0245
:1025400090912B020E94501A059770F310E0A80199
:10255000B601C7010E94A721892B41F0A801B6014D
:10256000C7010E94B42110922C02DFCFC0E0FBCF44
:1025700080912F02811107C00E945D21882351F0B4
:1025800081E080932F0281E090912F02913009F039
:1025900080E0089582E080932F020E945821F3CFBB
:1025A0000E94B81208950E94D012809302010E94E6
:1025B000B81281110E94211308950E94B81281114E
:1025C00002C00E942413089581E0909130029A3055
:1025D00008F080E008950F931F93CF93DF93EC01F1
:1025E0008B01809130028A30B8F4B801CE010E948C
:1025F0006F13C82F811122C0809130028F3FB9F430
:102600000E94381A90932E0280932D028C2FDF9116
:10261000CF911F910F91089580912D0290912E02DC
:102620000E94501A843F914000F7C0E0EFCF8F5FC7
:10263000809330028A3020F7C1E0E8CF1092300258
:10264000E5CF0E94871708950E948A170895B0E089
:10265000A0E0EDE2F3E10C947B217901C82F880F13
:10266000DD0B41155105A9F0FE0193E0EE0FFF1FB0
:102670009A95E1F7ED5FFE4F818192818F5C9D4FCE
:10268000208130E04217530708F49A01A9010E9403
:10269000B421CE010E947318D82E8823D1F00115E1
:1026A0001105B9F083E0CC0FDD1F8A95E1F7FE013B
:1026B000ED5FFE4F438150E00417150708F4A801B1
:1026C000CD5FDE4F6C817D816F5C7D4FC7010E94C5
:1026D000B4218D2DCDB7DEB7E7E00C9497210E9491
:1026E000611408950E9478140895A4E0B0E0EBE727
:1026F000F3E10C947E21609148027091490280912F
:102700004A0290914B020E945F1A11E064367105F3
:102710008105910518F10E94D5106E5F7F4F8F4F94
:102720009F4F69837A838B839C8310E000E030E0C5
:1027300020E044E050E0BE016F5F7F4F82E00E94E6
:102740002713182F882351F00E94441A60934802DF
:102750007093490280934A0290934B02812F2496F2
:10276000E4E00C949A21B0E0A0E0E9EBF3E10C94F2
:1027700078217C015B016A010E94E41201E010E013
:10278000882311F00AE010E0C1E0D0E0B501C701F4
:10279000F6010995811104C021960C171D072CF430
:1027A000CDB7DEB7EAE00C949421CC9F9001CD9F89
:1027B000300D300D112490E080E045E34A95F1F7AB
:1027C0000000019682179307C1F7E0CFA6E0B0E0C2
:1027D000ECEEF3E10C9478217B01C0909601D0904F
:1027E000970101E010E09E012A5F3F4F50E040E07A
:1027F00070E060E080E00E942713182F882309F41E
:1028000048C056018FEFA81AB80A6091440270912F
:10281000450280914602909147020E945F1A6436F9
:1028200071058105910568F105E010E09E012F5FBB
:102830003F4F50E040E070E060E081E00E942713ED
:10284000D82E65E070E0C5010E94CA1411E09E8197
:10285000981310E01D2141F10E94441A6093440234
:1028600070934502809346029093470285E0FE01F3
:102870003196AFE3B2E001900D928A95E1F711E055
:1028800013C065E070E0C5010E94CA149E818913DF
:10289000CBCF85E0F6013196DE01119601900D92C5
:1028A0008A95E1F71111E2CF85E0EFE3F2E0D7017D
:1028B00001900D928A95E1F7812F2696EAE00C941B
:1028C00094210F931F93CF93DF93EC018B0146EE7E
:1028D00053E10E94B313882331F045E753E1B80177
:1028E000CE010E94B313DF91CF911F910F910895F4
:1028F0000F931F93CF93DF93C0919601D0919701CF
:10290000CE01019625E0FB01DC0101900D922A9594
:10291000E1F765E070E00E94CA1488836E817F81D0
:102920008885998500913B0210913C0220913D02DF
:1029300030913E02601771078207930751F0609350
:102940003B0270933C0280933D0290933E020E94B2
:10295000B810DF91CF911F910F9108950E94331C01
:102960000E94370E0E94401C08950E94451C0E9440
:10297000480E0E945F1C08950E94D1190E94191CE4
:102980000E941F0E0E94AE140E94B5140E942D0ECC
:10299000FBCF0895FC01680F791F8FEF91E3E617D5
:1029A000F70709F408952191822728E030E087FF96
:1029B00006C0880F892721503109C9F7F0CF880F49
:1029C000FACFCF93DF93EC01FB018281882309F4D6
:1029D00064C1C430FDE5DF07E0F5CB3F9CE5D907D6
:1029E00030F49E0122503C4524313105D8F50E9437
:1029F000660D90936B0280936A02C231ECE5DE07AC
:102A000009F41FC108F06EC0C9308CE5D80709F47D
:102A1000F2C008F03FC0C530ECE5DE0709F4DBC0CA
:102A200058F5C3308CE5D80709F4CDC008F0CFC005
:102A300080916A028160C230DC4509F4AEC08091A9
:102A40006A0290916B020E94740D0E94EE0780E072
:102A500009C0C63AEDE5DE0751F238F4C2369DE50D
:102A6000D90729F2DF91CF9108959E012E5A3D4555
:102A700023303105B8F7BBCF80916A028062C7303E
:102A8000FCE5DF0709F489C008F4B1C080916A024F
:102A9000806483C0CD309CE5D90709F4BAC070F4D6
:102AA00080916A028E7FCB30FCE5DF0709F475C0A8
:102AB00008F4A7C080916A028D7F6FC0CF309CE57B
:102AC000D90709F4B6C008F4A8C0C031FCE5DF0797
:102AD00009F4B3C0C131DC4509F0B1CF80916A027D
:102AE0008F7B5BC0C1159DE5D90709F4B4C098F58B
:102AF000CB3FFCE5DF0709F472C0B8F4C4319CE5B4
:102B0000D90709F4B6C008F4A2C0C531DC4509F004
:102B100096CF80916A0282FB992790F921E0922753
:102B200090FB82F990FB83F938C0CD3F8CE5D80744
:102B300009F477C008F457C0CE3FECE5DE0709F48E
:102B400074C080916B028360CF3FDC4509F077CF82
:102B500080936B0274CFC2368DE5D80709F496C016
:102B600068F4C230EDE5DE0709F48CC008F477C0E4
:102B7000C330DD4509F063CF80E085C0CE3A9DE5E6
:102B8000D907E9F068F490916A02892F8E7F90FF4F
:102B90008160C63ADD4509F052CF80936A024FCF7B
:102BA000CF3A8DE5D80789F1C03BDD4509F047CF25
:102BB00090916B02892F877F93FF8860C9CF8091A6
:102BC0006B028860C5CF80916A028260E6CF8091F7
:102BD0006A028460E2CF80916A028860DECF8091D1
:102BE0006B028160B5CF80916B028260B1CF809122
:102BF0006A028061D2CF0E94EE0780916A028068EB
:102C0000CCCF80916A028C60C8CF80916B02877FA5
:102C10009FCF80916A028B7FC0CF80916A02877FAD
:102C2000BCCF80916B028E7F93CF80916B028D7FA2
:102C30008FCF80916A028F7EB0CF80916A028F7DA4
:102C4000ACCF0E94EE0780916A028F77A6CF809169
:102C50006A02837FA2CF80916B028C7F79CF8091B3
:102C60006B02982F909591708E7F892B90FB81F944
:102C70006FCF0E94EE0790916A02892F97FB87F928
:102C800080588BCF81E00E94FD0DD9CE90916A02D1
:102C9000892F8F7E94FF806180CF81E0E3CECF9338
:102CA000DF93EB0186319C4511F50E946A0C9A81F5
:102CB000992399F08A7A91E009F490E090934C027C
:102CC000811109C089E20E94420C0E94AB0C80E095
:102CD000DF91CF91089585E3F6CF80914C02811169
:102CE00004C089E20E944A0CF0CF85E3FBCF81E06B
:102CF000EFCF0F931F93CF93DF93C42FD22FFC01FD
:102D000082818823C9F040934F020E94381A909321
:102D10004E0280934D0280E28C0F883040F4C770E1
:102D200081E001C0880FCA95EAF70E949F05DF91F4
:102D3000CF911F910F91089510914F02141332C03B
:102D400080914D0290914E020E94501A8837910551
:102D500048F5C0E2CD0F1D17B9F080E2810F883031
:102D600040F4177081E001C0880F1A95EAF70E94BD
:102D7000A605C83048F481E09D2F977001C0880FE8
:102D80009A95EAF70E949F05802F0E949605C83009
:102D900070F6D77081E001C0880FDA95EAF70E94DB
:102DA000A605C5CF80E28C0F883008F6C77081E099
:102DB00001C0880FCA95EAF7F2CF0F939C01CB01AF
:102DC000243F4CE5340759F1A8F4293DFCE53F07C1
:102DD00001F12A3D4CE53407D1F1283D3C4591F401
:102DE00006E221EE41EE68ED7CE50E94791680E076
:102DF0000F910895263FFCE53F07E9F0B0F0273F2B
:102E00003C45F9F0FC018281882339F110924F0290
:102E1000EFCF07E225EE45EE69ED7CE5E6CF06E271
:102E200021EE40EE64EF7CE5E0CF07E225EE44EED4
:102E300065EF7CE5DACF06E221EE42EE66EF7CE557
:102E4000D4CF07E225EE46EE67EF7CE5CECF08E271
:102E500021E045EE6AED7CE5C8CF81E0C9CF8EE187
:102E6000489B02C08150E1F7489BFECF08955898D7
:102E700080E28A95F1F7589A0895FC013BE03A9573
:102E8000F1F798E020E080E031E040E14A95F1F789
:102E9000880F489B02C08160232742E04A95F1F7E2
:102EA000000040E14A95F1F7915079F790E19A9549
:102EB000F1F799B132E03A95F1F7000040E14A9517
:102EC000F1F7917092272081920F90830895A1E0ED
:102ED000B0E0EDE6F7E10C947C2119828C017C01D5
:102EE000E60EF11C0E151F0541F481E09981911148
:102EF00080E02196E6E00C9498210E942F17CE01E5
:102F000001960E943D17F80181938F01EBCF509AF3
:102F1000589A08955098589AE89AE9E6F0E0808126
:102F20008C7F808308956150770B91E001C0990FE9
:102F30006A95EAF720E031E0911108C0222391F070
:102F4000589A80E28A95F1F758980895492F4823B6
:102F500039F0589A232740E24A95F1F79695ECCF3D
:102F60005898F9CF5898EDCFFF920F931F93CF93B6
:102F7000DF93EC018C01060F111DC017D10729F456
:102F8000CDB7DEB7E5E00C949921F9900E94371790
:102F900068E08F2D0E949317F0CF1F920F920FB60B
:102FA0000F9211240F931F932F933F934F935F938F
:102FB0006F937F938F939F93AF93BF93EF93FF9301
:102FC000CF93DF930F92CDB7DEB719820E942F17F0
:102FD000CE0101960E943D17082F0695069506958D
:102FE000282F22952570902F9570290F922F93707E
:102FF00026952695920F982797708981982B09F02E
:103000005CC0043008F059C080E18A95F1F7589A05
:10301000509A82E08A95F1F700C0589888E0089F9E
:1030200080011124D801AD5FBE4F1696ED91FC9141
:1030300017973097A9F060919601709197011496B7
:103040002D913C911597260F371F11968D919C91CC
:103050001297680F791F13964C9113978C910995CD
:10306000F801ED5FFE4F6381662351F020919601D8
:103070003091970184819581820F931F0E94B4172C
:103080000E94371780E18A95F1F758985098589A1E
:1030900080E18A95F1F7F801ED5FFE4F60816623CC
:1030A00051F0209196013091970181819281820F98
:1030B000931F0E9467170E942F170F90DF91CF91E7
:1030C000FF91EF91BF91AF919F918F917F916F9100
:1030D0005F914F913F912F911F910F910F900FBED4
:1030E0000F901F9018950F931F93CF93DF93EC01D0
:1030F00004970CF04CC0F894509A589885E08A9543
:10310000F1F700009C2F969595708C2F8570980F85
:10311000892F83709695969523E0CC0FDD1F2A9515
:10312000E1F7980F8E01092B0E94371700C068E065
:10313000802F0E94931780E18A95F1F75098589A52
:10314000489B1EC087E090E048991CC0FE01ED5FDF
:10315000FE4F63816623F9F020919601309197012B
:1031600084819581820F931F0E946717811113C07C
:10317000509A589A7894DF91CF911F910F910895AA
:1031800000C0DECF019729F4509A589A789480E0D5
:10319000F2CF00C0D9CF0E942F1780E28A95F1F7B5
:1031A0005898509A80E18A95F1F7CD5FDE4F68819B
:1031B000662351F0209196013091970189819A817F
:1031C000820F931F0E94B4170E943717789481E0F2
:1031D000D2CF9093990180939801089590935602CD
:1031E0008093550208950E94B812811103C0809106
:1031F00050020895E0915502F0915602309729F05F
:103200000190F081E02D0995089580E00895E09106
:103210005502F0915602309721F00280F381E02DA3
:1032200009950895209153023091540228173907C7
:1032300071F09093540280935302E0915502F09103
:103240005602309721F00680F781E02D0995089508
:1032500020915102309152022817390771F0909352
:10326000520280935102E0915502F091560230973C
:1032700021F00084F185E02D099508959C012E5FD1
:103280003F4FAC01485F5F4F80E02417350709F4DA
:103290000895F90191919F019923B9F38F5FF5CFBB
:1032A000662349F0FC01329608962191261729F0F1
:1032B000E817F907D1F780E0089581E008959C01AF
:1032C000FC0132969FEF80E04191461751F09F3FFD
:1032D00019F4411101C0982F8F5F8630A9F79F3FE5
:1032E00009F40895290F311D97FD3A95F90162837C
:1032F0000895FC01329608962191261303C0DF0140
:1033000011971C92E817F907B9F708950E945F1901
:1033100008950E9479190895029626E0FC01119201
:103320002A95E9F7089508950E9493190895811147
:1033300006C081E0809357020E949419089582E0AC
:10334000F9CF83E0809357020E94941908950E9458
:103350009719089581E0809357020E949419089567
:103360000E94AA190895089508950E94B419089515
:10337000089508950E94B3190895CF930E94B81933
:103380000E943C120E94B919C0E08C2F0E941511B6
:10339000811105C0CF5FCA30C1F7CF91089581E098
:1033A000FCCF85B7806885BF85B7806885BF0895E5
:1033B0001F921FB61F9211248F939F93AF93BF93B9
:1033C00080915802811113C08091820290918302F2
:1033D000A0918402B09185024196A11DB11D8093F8
:1033E000820290938302A0938402B0938502BF91DE
:1033F000AF919F918F911F901FBE1F901895809144
:103400008A02843031F10E942A041092580288E125
:1034100090E020E40FB6F894A895809360000FBE6A
:103420002093600083B7817F846083BF83B781600E
:1034300083BF7894889583B78E7F83BF0FB6F89447
:10344000A895809160008861809360001092600070
:103450000FBE08950E94EE070E942F04089582E097
:1034600084BD93E095BD9AEF97BD80936E0008955B
:103470002FB7F8948091820290918302A0918402E8
:10348000B09185022FBF08952FB7F8946091820202
:103490007091830280918402909185022FBF0895DC
:1034A0009C014FB7F8948091820290918302A09181
:1034B0008402B09185024FBF821B930B0895CF9277
:1034C000DF92EF92FF922FB7F894C0908202D090D3
:1034D0008302E0908402F09085022FBFA70196013D
:1034E000261B370B480B590BCA01B901FF90EF900F
:1034F000DF90CF90089578941F921FB61F921124E9
:103500008F939F93AF93BF93809182029091830298
:10351000A0918402B09185020196A11DB11D8093F6
:10352000820290938302A0938402B0938502BF919C
:10353000AF919F918F911F901FBE1F90189587E7A5
:1035400097E7909301088093000888E19AE00FB60E
:10355000F894A895809360000FBE90936000FFCF11
:1035600088E19AE00FB6F894A895809360000FBEAA
:1035700090936000FFCF8091640208950895CF93E7
:10358000DF93EC0181E08093E9008FEF9091E800F8
:10359000815095FD06C095ED9A95F1F700008111D7
:1035A000F5CF8091E80085FF14C050E040E068E06E
:1035B00070E0CE010E94D11C8091E8008E7780934C
:1035C000E80088E0FE01ACE5B2E001900D928A953A
:1035D000E1F7DF91CF9108958093590270935B02D8
:1035E00060935A0280918A02843001F582E08093D0
:1035F000E9008FEF9091E800815095FD06C095EDB0
:103600009A95F1F700008111F5CF8091E80085FFD0
:103610000DC050E040E063E070E089E592E00E9478
:10362000D11C8091E8008E778093E8000895BC015A
:1036300084E00E94EC1A0895BC0183E00E94EC1A19
:103640000895089580918902811109C00E94611E28
:103650000E94BE1E8091E20084608093E200089583
:103660001092890208950E94AA1908956091860215
:1036700081E0611101C080E00E94A119089590913C
:103680008A0281E0943009F080E0609186020E9415
:10369000A719089542E061EC81E00E94DD1D42E23D
:1036A00061EC82E00E94DD1D90918A0281E09430FD
:1036B00009F080E0609186020E9497190895809138
:1036C0008C02833009F461C030F48130D1F1823052
:1036D00009F49EC008958A3009F48AC08B3009F439
:1036E0006FC0893009F050C080918B02813209F09F
:1036F0004BC080918F0290919002029708F044C0D5
:103700008091E800877F8093E8008091E80082FF45
:1037100037C09091F3008091F200029731F48091CC
:10372000F100813011F0863021F48091F100809316
:1037300064028091E8008B778093E8000E94111E5C
:1037400023C080918B02813AF9F48091E800877F51
:103750008093E80080918F0290919002892B61F410
:1037600068E08CE592E070E00E94201D8091E80006
:103770008B778093E800089560E090E080E0F3CFDD
:1037800080918A028111C1CF089580918B02813A84
:10379000D9F780918F0290919002892BA9F780919F
:1037A000E800877F8093E8008091E80080FFFCCFED
:1037B000809127018093F1008091E8008E77BCCF43
:1037C00080918B02813201F780918F02909190025B
:1037D000892BD1F68091E800877F8093E8000E94D2
:1037E000111E80918D02809327010E94EE0708959B
:1037F00080918B02813241F68091E800877F80932F
:10380000E8000E94111E80918E0280936502089547
:1038100080918B02813A09F0B7CF8091E800877FD1
:103820008093E8008091E80080FFFCCF80916502E2
:10383000C1CF84B7877F84BF0FB6F894A8958091D5
:103840006000886180936000109260000FBE80E885
:1038500090E00FB6F89480936100909361000FBEE2
:103860000E94B01908950E94611E0E94BE1EE2EEE1
:10387000F0E080818460808378940E943D210895E7
:103880008BE191E00E94EE18089580918A028530C4
:1038900031F480918A02853019F00E942A1A089525
:1038A0000E94FF1980918802882399F30E94BD1914
:1038B000882379F30E94BB1C0E94EE07EACF08958B
:1038C0000E94631C0895292F33272330310519F1F5
:1038D00068F42130310509F444C02230310509F47F
:1038E00045C090E080E030E020E025C02132310585
:1038F00049F122323105A9F780E490E02BE436E06B
:1039000061157105C1F082E390E029E136E0613094
:10391000710589F0E6CF99278130910581F00097F4
:1039200029F00297F1F6E8E9F5E002C0E8ECF5E0ED
:10393000849190E09F01FA01318320830895EAEB9E
:10394000F5E0F6CF89E090E02EED35E061157105E8
:1039500091F389E090E027EF35E06130710559F38C
:10396000C0CF82E190E027E036E0E5CF8BE390E046
:103970002CEC35E0E0CF80E189BD82E189BD09B45E
:1039800000FEFDCF8091D8008F7D8093D80080917C
:10399000E00082608093E0008091E00081FDFCCF38
:1039A0000895AF92BF92CF92DF92FF920F931F9331
:1039B000CF93DF936C01EB018A010E94301EF82E39
:1039C000811123C00115110539F0F8018081918121
:1039D000C81BD90BC80ED91EB12CA12C2097A9F059
:1039E0008091E80085FD22C08091E8008E77809369
:1039F000E80001151105A1F0F80180819181A80E60
:103A0000B91EB182A08285E0F82E8F2DDF91CF9173
:103A10001F910F91FF90DF90CF90BF90AF900895CE
:103A20000E94301E8823D1F2F82EEFCFF60181914B
:103A30006F018093F1002197FFEFAF1ABF0ACECF3D
:103A4000FC01809191029091920286179707A0F055
:103A50006115710529F49091E8009E779093E80034
:103A600090E06115710551F4911108C08091E80052
:103A700082FF34C080E00895BC01F2CF80918A02B9
:103A80008823C1F18530C1F18091E80083FD30C009
:103A90008091E80082FDEACF8091E80080FFE1CFCD
:103AA0008091F3002091F200382F6115710519F013
:103AB0002830310558F091E02830310509F090E0C8
:103AC0002091E8002E772093E800CBCF819180935E
:103AD000F100615071092F5F3F4FE7CF80918A025B
:103AE000882341F0853041F08091E80083FFBECF0C
:103AF00081E0089582E0089583E00895FC018091BB
:103B000091029091920286179707A0F061157105B6
:103B100029F48091E8008E778093E80090E06115A9
:103B2000710551F4911108C08091E80082FF35C001
:103B300080E00895BC01F2CF80918A028823C9F108
:103B40008530C9F18091E80083FD31C08091E800A3
:103B500082FDEACF8091E80080FFE1CF8091F30001
:103B60002091F200382F6115710519F028303105C8
:103B700058F091E02830310509F090E08091E8009C
:103B80008E778093E800CBCF84918093F1003196BB
:103B9000615071092F5F3F4FE6CF80918A028823E1
:103BA00041F0853041F08091E80083FFBDCF81E096
:103BB000089582E0089583E00895982F973028F0C3
:103BC0008F708093E90081E008959093E900242F9D
:103BD000762F50E0981731F07091EC002091ED00B5
:103BE0005091F00021FD02C09F5FE8CF3091EB00C3
:103BF0003E7F3093EB003091ED003D7F3093ED0040
:103C00003091EB0031603093EB007093EC00209327
:103C1000ED005093F0002091EE0027FDE5CF80E00D
:103C2000089580918B0287FF13C08091E80082FF86
:103C300006C08091E8008B778093E80004C08091F3
:103C40008A028111F2CF089580918A028823D9F3E4
:103C50008091E80080FFF8CF8091E8008E77ECCF6C
:103C60002091E4003091E50095E6A9012091EC0057
:103C7000822F817020FF06C08091E80080FF06C07F
:103C800080E008952091E80022FD1AC080918A0208
:103C9000882389F0853089F08091EB0085FD0FC085
:103CA0002091E4003091E50042175307F9F291505A
:103CB000E1F684E0089582E0089583E0089581E0CC
:103CC00008950E94D01E0E94D81EE0EEF0E0808190
:103CD00081608083E8EDF0E080818F77808319BC7C
:103CE000A7EDB0E08C918E7F8C9380818F7E808356
:103CF0001092890208950F931F93CF93DF930E9430
:103D0000D01E0E94D81EC8EDD0E088818F778883AE
:103D100088818068888388818F7D888319BC109210
:103D20008A0210928602109288021092870200EE98
:103D300010E0F80180818B7F808388818160888397
:103D400042E060E080E00E94DD1DE1EEF0E0808175
:103D50008E7F8083E2EEF0E08081816080838081CD
:103D600088608083F80180818E7F80838881806174
:103D70008883DF91CF911F910F910895E8EDF0E0D6
:103D800080818F7E8083E7EDF0E080818160808399
:103D900084E082BF81E0809389020E947B1E0895A7
:103DA000E8EDF0E080818E7F80831092E20008953C
:103DB0001092DA001092E10008951F920F920FB650
:103DC0000F9211242F933F934F935F936F937F93A1
:103DD0008F939F93AF93BF93EF93FF938091E100F5
:103DE00082FF0BC08091E20082FF07C08091E1005A
:103DF0008B7F8093E1000E943C218091DA0080FF5C
:103E000019C08091D80080FF15C08091DA008E7FA4
:103E10008093DA008091D90080FF96C080E189BD4F
:103E200082E189BD09B400FEFDCF81E080938A0262
:103E30000E94221B8091E10080FF19C08091E20066
:103E400080FF15C08091E2008E7F8093E200809118
:103E5000E20080618093E2008091D80080628093CC
:103E6000D80019BC85E080938A020E94361B80919D
:103E7000E10084FF2BC08091E20084FF27C080E135
:103E800089BD82E189BD89B5982F917080FFFBCFF4
:103E90008091D8008F7D8093D8008091E1008F7E43
:103EA0008093E1008091E2008F7E8093E200809118
:103EB000E20081608093E20080918602882309F409
:103EC00049C084E080938A020E943F1B8091E100F8
:103ED00083FF29C08091E20083FF25C08091E1002B
:103EE000877F8093E10082E080938A0210928602AD
:103EF0008091E1008E7F8093E1008091E2008E7FCF
:103F00008093E2008091E20080618093E20042E0D1
:103F100060E080E00E94DD1D8091F0008860809369
:103F2000F0000E94331BFF91EF91BF91AF919F91E1
:103F30008F917F916F915F914F913F912F910F9052
:103F40000FBE0F901F90189519BC10928A020E9404
:103F5000301B70CF8091E30087FD93E090938A023D
:103F6000B3CF1F920F920FB60F9211242F933F934E
:103F70004F935F936F937F938F939F93AF93BF9371
:103F8000CF93DF93EF93FF93D091E900DF7080919F
:103F9000EC00C82FC17080FDC0E81092E90080914C
:103FA000F000877F8093F00078940E94F51F1092B4
:103FB000E9008091F00088608093F000CD2BCF70F5
:103FC000C093E900FF91EF91DF91CF91BF91AF9145
:103FD0009F918F917F916F915F914F913F912F9121
:103FE0000F900FBE0F901F901895AAE2B0E0EBEF74
:103FF000FFE10C947F218BE892E02091F100FC011D
:104000002193CF01F2E083399F07B9F70E945F1B2C
:104010008091E80083FF1EC180918B0290918C02F9
:104020009A3008F017C1E92FF0E0E35FFD4D0C94E2
:104030006A21803899F0823809F00CC180918F0292
:104040008F70873008F006C18093E9008091EB0003
:1040500085FB882780F91092E90006C080918702CD
:1040600090918802911182609091E800977F9093DF
:10407000E8008093F1001092F1008091E8008E77C3
:10408000E5C0882309F4D3C0823009F0E3C08091F1
:104090008D028111D6C080918F028F702FEF280F73
:1040A000263008F0D7C08093E9002091EB0020FF74
:1040B000C8C0933031F48091EB0080628093EB00B4
:1040C000C0C09091EB0090619093EB0021E030E054
:1040D00001C0220F8A95EAF72093EA001092EA00C5
:1040E0008091EB008860EACF8111B4C010918D02FD
:1040F0001F778091E3008078812B8093E30080918B
:10410000E800877F8093E8000E94111E8091E800FC
:1041100080FFFCCF8091E30080688093E30082E021
:10412000111183E080938A0295C08058823008F094
:1041300091C080918D0290918E028C3D23E0920778
:10414000A1F583E08A838AE289834FB7F894DE0180
:10415000139620E03EE051E2E32FF0E05093570049
:10416000E49120FF03C0E295EF703F5FEF708E2F68
:1041700090E0EA30C0F0C7968D939D932F5F243175
:1041800059F74FBF8091E800877F8093E8006AE28B
:1041900070E0CE0101960E94201D8091E8008B778F
:1041A0008093E80057C0C096E7CF60918F0270916E
:1041B0009002AE014F5F5F4F0E94601CBC01892BD3
:1041C00009F448C09091E800977F9093E8008981B6
:1041D0009A810E947E1DE1CF8038E1F58091E80050
:1041E000877F8093E800809186028093F10045CF1D
:1041F000811130C090918D02923060F58091E8007D
:10420000877F8093E800909386020E94111E809120
:104210008602882311F084E005C08091E30087FDC9
:10422000FACF81E080938A020E944A1B13C08091DA
:104230008D02813079F481E0933009F080E0809341
:1042400088021092E9008091E800877F8093E8005F
:104250000E94111E8091E80083FF0AC08091E8004F
:10426000877F8093E8008091EB0080628093EB0071
:10427000AA96E3E00C949B210895CF9380918A0243
:104280008823A1F0C091E900CF709091EC00892FB4
:10429000817090FD80E8C82B1092E9008091E800C1
:1042A00083FD0E94F51FCF70C093E900CF91089560
:1042B0000E94611E10928A020895E8EDF0E080816C
:1042C000806180838AE18A95F1F700C08091D900EE
:1042D00081700895EE0FFF1F0590F491E02D099471
:1042E0002F923F924F925F926F927F928F929F9206
:1042F000AF92BF92CF92DF92EF92FF920F931F93F4
:10430000CF93DF93CDB7DEB7CA1BDB0B0FB6F894A4
:10431000DEBF0FBECDBF09942A88398848885F84E4
:104320006E847D848C849B84AA84B984C884DF8055
:10433000EE80FD800C811B81AA81B981CE0FD11D39
:104340000FB6F894DEBF0FBECDBFED010895FB019F
:10435000DC0104C08D910190801921F4415050403E
:10436000C8F7881B990B0895FB01DC0102C001907E
:104370000D9241505040D8F70895F999FECF92BD63
:1043800081BDF89A992780B50895A8E1B0E042E090
:1043900050E00C94F121262FF999FECF92BD81BDFA
:1043A000F89A019700B4021639F01FBA20BD0FB673
:1043B000F894FA9AF99A0FBE08950396272F0E944F
:1043C000CC210E94CB21252F0E94CC21242F0C949C
:1043D000CC210196272F0E94CC210C94CB21DC010B
:1043E000CB01FC01F999FECF06C0F2BDE1BDF89A00
:1043F000319600B40D9241505040B8F70895F894AA
:10440000FFCFE805E80519061906A606480648067E
:104410004806C206330742074207192041202A21D5
:0E44200041202A21742095202A21EC20F8202A
:10442E000A0201000000010000000000000005016A
:10443E000000000406000000000000BB1ABF1A2195
:10444E001B1C1B171BBE1A01E200E900EA00B50097
:10445E00B600B700CD008301CC008A019201940111
:10446E002102230224022502260227022A02B30079
:10447E00B4006F007000818283E200E900EA00B5AB
:10448E0000B600B700CD008301CC008A01920194E2
:10449E00012102230224022502260227022A02B348
:1044AE0000B4006F007000818283F4F5F6F73133AB
:0844BE00329497C63435310237
:00000001FF
